:0200000460009A
:100000004643464200000156000000000101020084
:1000100000000000000000000000000000000000E0
:1000200000000000000000000000000000000000D0
:1000300000000000000000000000000000000000C0
:1000400000000000010403000000000000000000A8
:100050000000200000000000000000000000000080
:100060000000000000000000000000000000000090
:100070000000000000000000000000000000000080
:10008000EB04180A063204260000000000000000FD
:10009000050404240000000000000000000000002F
:1000A0000000000000000000000000000000000050
:1000B0000604000000000000000000000000000036
:1000C0000000000000000000000000000000000030
:1000D00020041808000000000000000000000000DC
:1000E0000000000000000000000000000000000010
:1000F0000000000000000000000000000000000000
:10010000D8041808000000000000000000000000F3
:100110000204180804200000000000000000000095
:1001200000000000000000000000000000000000CF
:10013000600400000000000000000000000000005B
:1001400000000000000000000000000000000000AF
:10015000000000000000000000000000000000009F
:10016000000000000000000000000000000000008F
:10017000000000000000000000000000000000007F
:10018000000000000000000000000000000000006F
:10019000000000000000000000000000000000005F
:1001A000000000000000000000000000000000004F
:1001B000000000000000000000000000000000003F
:1001C000000100000010000001000000000000001D
:1001D000000001000000000000000000000000001E
:1001E000000000000000000000000000000000000F
:1001F00000000000000000000000000000000000FF
:10020000FFFFFFFFFFFFFFFFFFFFFFFFFFFFFFFFFE
:10021000FFFFFFFFFFFFFFFFFFFFFFFFFFFFFFFFEE
:10100000D10020402C100060000000000000000013
:1010100020100060001000600000000000000000D0
:1010200000000060005501000000000000000120E9
:1010300035100060744B4FF42A01744A74485A64A6
:101040001864744A99639546734A74498A420FD06A
:10105000734B9A420CD2D4430846234423F0030333
:1010600004330B4450F8041B984242F8041BF9D196
:101070006C4A6D498A420FD06C4B9A420CD2D443D1
:101080000846234423F0030304330B4450F8041BA5
:10109000984242F8041BF9D1654A664B9A420BD23A
:1010A000D04311460024034423F0030304331344C4
:1010B00041F8044B8B42FBD15F4A4FF470015F4B08
:1010C000116003F530715E4A43F8042F9942FBD159
:1010D0005C4B80215C4A03F8011B9342FBD15B4CC3
:1010E0004FF080375A4E4FF0FF32DFF8A4A10025B1
:1010F000DFF8A091DFF8A081564B4349C3F800A068
:10110000C4F80471C4F80091C4F8F470C4F8F08015
:10111000F36923F07F0343F04003F361736A23F024
:101120007F0343F0400373628A66CA660A674A67B0
:1011300000F0B4F8484A6320484B49491060032244
:101140001D60CAF8381043F8082C4649464A4748FB
:10115000C3F8082D0B68464A43F08073CAF83C0078
:1011600044480B601368444943F00103136003686B
:101170000B6000F0F3F8C4F804714048C4F8009123
:10118000C4F8F470C4F8F08000F07AFB00BF00BF30
:1011900000BF00BFF16E3A4A41F44051394BF1664D
:1011A0001560C2F80851C2F81851C2F82851C2F8A7
:1011B00038519A6BD20708D442F615623249596504
:1011C0001A659A6B42F001029A632E4A2F4C93687B
:1011D00043F00113936000F04BFB2368132BFCD901
:1011E00000F07CF900F0F0F900F02AFB00F0E8F8DC
:1011F00000F042FB2368B3F5967FFBD300F034FB8D
:1012000000F026FBFEE700BF00C00A40BFAAAAAA62
:10121000070020000080062000000000A0180060E9
:10122000C0120100000000206C2B0160A0290020EA
:10123000A0290020C052002088ED00E0FC330020EF
:10124000BDAD000000E400E0A0E400E000800D403F
:1012500000C00F4008ED00E014E000E018E000E0FE
:1012600035C00000FCED00E00000202039C1000086
:10127000001000E0041000E0502D00200046C323C1
:101280000040084000400D400000C056582D00208E
:10129000003400201B1018200C0D1113F0B51D4A4E
:1012A00000211D4B4FF0100E1C4801241C4F1D4EF9
:1012B0001D4D0160C2F800E01F6016601B4F1D60ED
:1012C0001B4E1C4D17601E601B4F15601B4E1C4DA6
:1012D0001F6016601B4F1D601B4E1C4D17601E606B
:1012E0001B4F15601B4E1C4D1F6016601D60046077
:1012F000BFF34F8FBFF36F8FC3F8B011BFF34F8FA2
:10130000BFF36F8F52F8883C43F4403342F8883C77
:10131000F0BD00BF9CED00E0A0ED00E094ED00E02A
:101320002500080311002000210002071200002000
:10133000250008131300202027000B131400004081
:1013400033001013150000602F000B07160000700B
:1013500035000B07170000702F000B03F0B4174A7D
:1013600040274FF480314FF480564FF400554FF42E
:10137000404443F24200136913F0020F06D0946117
:1013800051619061136913F0020FF8D113F4005FFB
:1013900001D15561EFE713F4805F01D15661EAE7AF
:1013A000002BE8DA13F4803F01D09161E3E75B069C
:1013B00001D45761DFE7F0BC704700BF00800D40EB
:1013C0003B4AF3EE096A3B4900201368F0B523F06D
:1013D00001030324DFF800E11360C2F89040D1F864
:1013E000E030354FDDB2C3F30B24344EC4EB13535E
:1013F00007EE905AA5F15501CEF80050B8EEE77A05
:1014000003EB830507EE904A03FB01F13B6003EB1E
:101410008313B8EEE75A07EE901A491B77EE666A17
:10142000B8EE677A264D07EE901A0B44C5ED006AB8
:10143000F8EE677A3460C7EE265A224E15682249C4
:10144000224C87EEA66A07EE903A214BC6F840314F
:10145000F8EE677A87EEA67A75EE855A76EE056A1B
:10146000FCEEE55AFCEEE66A15EE903A45EA0353C7
:1014700016EE905A77EE057A136001EA0541D2F82C
:101480001031FCEEE77A0B43C2F8103117EE903AB8
:10149000D2F81011C3F30B030B43C2F810311368D9
:1014A00043F00203136020700A4B01221A60F0BD62
:1014B00080810D4000441F40842D0020882D002095
:1014C000802D0020003400200000FF0F40E400E0E9
:1014D00099AE000008E100E07C2D0020304B40F682
:1014E000617270B5C3F8202140F2044500F0B8F9EC
:1014F0002C492D48D1F880202C4C42F003022C4B73
:10150000C1F88020C0F86051226813401BB9D0F8A0
:10151000A8319A071AD0244B4FF00041234A516357
:101520001A46D3F8401141F00201C3F84011D2F835
:1015300040319B07FBD44FF400301E491B4B4FF04A
:101540000042086019209A6300F086F91A4D0022C3
:10155000164B4FF08041144C0A26996328461A60B6
:101560001146C4F8A8614FF4207200F06DF94FF4F1
:1015700081064FF4800040F24313104A10492E6058
:101580002864C4F85851C2F80412C4F848310D4A0E
:101590004FF4003101231160C4F8403170BD00BF29
:1015A00000800D4000C00F4000002E4000900D4014
:1015B000001C1E008CE200E00050002000340020DF
:1015C000F5AF00000CE100E0114B1249D86E0A465D
:1015D00040F4403030B4D86640F2B765D86EA024ED
:1015E00040F44070D8664D648C64936C1B06FCD448
:1015F000094B40F2B760A0211A4658649964936C75
:1016000013F08003FBD1054A137030BC704700BF54
:1016100000C00F4000400C4000800C40BE2F002056
:101620000102030405060708090A0102030405066E
:101630000708090A0102010301000000010101017C
:101640000101010101010202020202020202020280
:101650000303040405000000080A0F14008040C0C2
:1016600020A060E0109050D030B070F0088848C8DA
:1016700028A868E8189858D838B878F8048444C47A
:1016800024A464E4149454D434B474F40C8C4CCC7A
:101690002CAC6CEC1C9C5CDC3CBC7CFC028242C232
:1016A00022A262E2129252D232B272F20A8A4ACA7A
:1016B0002AAA6AEA1A9A5ADA3ABA7AFA068646C61A
:1016C00026A666E6169656D636B676F60E8E4ECE1A
:1016D0002EAE6EEE1E9E5EDE3EBE7EFE018141C1DE
:1016E00021A161E1119151D131B171F1098949C94A
:1016F00029A969E9199959D939B979F9058545C5EA
:1017000025A565E5159555D535B575F50D8D4DCDE9
:101710002DAD6DED1D9D5DDD3DBD7DFD038343C3A1
:1017200023A363E3139353D333B373F30B8B4BCBE9
:101730002BAB6BEB1B9B5BDB3BBB7BFB078747C789
:1017400027A767E7179757D737B777F70F8F4FCF89
:101750002FAF6FEF1F9F5FDF3FBF7FFF7C3C3E5E81
:101760002B3D3F2F5B5D3B2C2A225C00160355006E
:1017700053004200200053006500720069006100C0
:101780006C00000018035400650065006E007300D3
:1017900079006400750069006E006F00040309049D
:1017A00009024300020100C03209040000010202E4
:1017B0000100052400100105240101010424020692
:1017C000052406000107058203100010090401002A
:1017D000020A00000007050302400000070584021A
:1017E0004000000009024300020100C03209040069
:1017F000000102020100052400100105240101017D
:1018000004240206052406000107058203100010C7
:1018100009040100020A000000070503020002009B
:1018200007058402000200000A06000202000040D0
:101830000100FFFFF8B500BFF8BC08BC9E4670472A
:101840005FF800F0C5C800005FF800F071D3000039
:101850005FF800F059C100005FF800F015A8000023
:101860005FF800F0D9B700005FF800F0D1CB0000BE
:101870005FF800F0D5AD00005FF800F0D9AD0000D2
:101880005FF800F051A5000045000000B50400001D
:101890003D700000BD7D0000B18100007990000026
:1018A0000000000000000000000000000000000038
:1018B0000000000000000000000000000000000028
:1018C00010B5054C237833B9044B13B10448AFF37A
:1018D00000800123237010BDA0290020000000001B
:1018E000C4120100084B10B51BB108490848AFF3FA
:1018F00000800848036803B910BD074B002BFBD0DC
:10190000BDE81040184700BF00000000A4290020D7
:10191000C4120100A0290020000000002DE9F843B6
:10192000394E0024394B3046DFF844811C8006F0E4
:1019300057F8022306F1A00086F8BE4086F89C30D6
:10194000A6F8BC4006F0B4FC314906F1A00006F050
:1019500093FB4FF462600CF057F83146044600F0F8
:10196000A3FB2C4B06F1A0002B491C60C8F80040DB
:1019700006F082FB94200CF047F8284A284B0446D6
:10198000284900F14C05026000F18C07264A4360AB
:10199000264B8160C2602649264A0361264B41617D
:1019A00082612649264AC361264B0162426226496A
:1019B000264A8362264BC16202632649264A436354
:1019C000D8F80090254B8163C26303642846103524
:1019D00000210CF063F9BD42F8D1214B2149224886
:1019E0006664C4F848901C6006F046FBD8F8000016
:1019F0000368DB6998471D4B00221B481A60BDE84D
:101A0000F84306F055BC00BFC0290020BC290020C7
:101A100000000020B82A002018000020300000201C
:101A2000380000204400002054000020240500203D
:101A30005C00002068000020740000207C00002072
:101A4000880000208C00002094000020A4000020CA
:101A5000AC000020B0000020B4000020BC0000203A
:101A6000BC2A0020C4000020602A0020B42A0020E4
:101A7000C02A00200368DB0600D0704710B504467A
:101A8000164805F021FF00B910BD144805F006FF07
:101A9000032821D8DFE800F01A140E02104911487B
:101AA00006F01AFB0321104B22461868BDE81040CF
:101AB00005F0B4B90D490B4806F00EFB0121F2E721
:101AC0000B49084806F008FB0221ECE709490548E4
:101AD00006F002FB0021E6E70021E4E7C029002030
:101AE000D0000020602A0020C02A0020F80000203A
:101AF000E4000020100100200128F8B530D01FD3E9
:101B000002281CD1254E317805293CD98D1F0B1F89
:101B10000024ED00B5EB830F15DA214F3B6864001C
:101B2000A9B201359868E4B202F0C0FA08B144F0F5
:101B3000010431780B1FB5EB830FEFDB03E0F8BD39
:101B4000164E0024317817484B1C2246D0F88400EA
:101B5000337006F06DF9337803F007033370F8BD86
:101B60000E4E0F4B31781A6801F007030729134412
:101B700093F85842E7D10C4B9B68DB060BD544F039
:101B80000104E4B2DFE7064B1B68986802F086FAAE
:101B900031780446D7E704F0FE04D4E7C42A0020D5
:101BA000B82A0020C029002000C00042084B10B510
:101BB000044693F89C00FFF79FFF2046FFF75AFF6B
:101BC000044B214618680368BDE810405B6A18475B
:101BD000C0290020C02A002010B588B00BF030FDCD
:101BE000002818DD782268460D490BF0E1FF0D4B07
:101BF000694604A81C680CF077F804A9204602F096
:101C0000D9FA044604A80CF009F868460CF006F866
:101C1000204608B010BD0024204608B010BD00BF0B
:101C2000DC1F0020BC2A00202DE9F04F3C4985B084
:101C30003C48002506F0B4FB3B4B0A223948198882
:101C40002E463A4F06F0AEFB3949364806F044FAC4
:101C5000DFF8FC80FFF7C0FFDFF8DC90D7F800B0BA
:101C6000AE46344CDFF8D4A02068CEF57A71D8F8AF
:101C70000030AAFB03239B0C03FB01F123681B1A12
:101C80009942FBD83868D9F800102B4B8842039052
:101C9000009310D00AF074FA019004A8009B50F849
:101CA000042D1A60FFF782FF0AF06AFA0199C1EB6E
:101CB000000E03997644CBEB01010135B1F57A7F33
:101CC000D2D364231D490A22164803FB06F3A1FB65
:101CD0000331C1F3874106F065FB1949114806F04D
:101CE0005FFB0A2229460F4806F05CFB15490D48A8
:101CF00006F056FB14490B4806F052FB31460A2207
:101D0000084806F04FFB1149064806F0E5F9064B76
:101D1000054A1B880133138005B0BDE8F08F00BF72
:101D200020010020602A0020BC290020582D00201E
:101D3000CC000020041000E0B42A002083DE1B4306
:101D400028010020300100203C010020400100203B
:101D5000A81F002010B5054C204605F083FC204646
:101D6000034A0449BDE810400CF06CBBC0290020B8
:101D70004C1F0020C15E0000704700BF704700BFCD
:101D8000BE4B70B503F13402D0F86C5504460360C5
:101D9000C0F8942235B128460BF040FF28461C219C
:101DA0000BF038FED4F8705535B128460BF036FFED
:101DB00028461C210BF02EFED4F8745535B1284668
:101DC0000BF02CFF28461C210BF024FED4F878558C
:101DD00035B128460BF022FF28461C210BF01AFED5
:101DE000D4F87C5535B128460BF018FF28461C2145
:101DF0000BF010FED4F8805535B128460BF00EFFDD
:101E000028461C210BF006FED4F8845535B128462F
:101E10000BF004FF28461C210BF0FCFDD4F888557C
:101E200035B128460BF0FAFE28461C210BF0F2FDD6
:101E3000D4F88C5535B128460BF0F0FE28461C210D
:101E40000BF0E8FDD4F8905535B128460BF0E6FECE
:101E500028461C210BF0DEFDD4F8945535B12846F8
:101E60000BF0DCFE28461C210BF0D4FDD4F898556D
:101E700035B128460BF0D2FE28461C210BF0CAFDD6
:101E8000D4F89C5535B128460BF0C8FE28461C21D5
:101E90000BF0C0FDD4F8A05535B128460BF0BEFEBE
:101EA00028461C210BF0B6FDD4F8A45535B12846C0
:101EB0000BF0B4FE28461C210BF0ACFDD4F8A8555D
:101EC00035B128460BF0AAFE28461C210BF0A2FDD6
:101ED00004F2AC5004F6CC050BF09AFD04F55D60FD
:101EE0000BF09CFE04F6B8500BF098FE04F55A6017
:101EF0000BF094FE04F688500BF090FE04F557604A
:101F00000BF08CFE04F658500BF088FE04F554607C
:101F10000BF084FE04F628500BF080FE04F55160AF
:101F20000BF07CFE04F6F8400BF078FE04F6DC4083
:101F30000BF074FE04F6C4400BF070FE04F6AC40E7
:101F40000BF06CFE04F694400BF068FE04F67C4047
:101F50000BF064FE04F664400BF060FE04F64C40A7
:101F60000BF05CFE04F634400BF058FE04F61C4007
:101F70000BF054FE04F604400BF050FE04F6EC3077
:101F80000BF04CFE04F6D4300BF048FE04F6BC30E7
:101F90000BF044FE04F6A4300BF040FE04F68C3047
:101FA0000BF03CFE04F674300BF038FE04F65C30A7
:101FB0000BF034FE04F644300BF030FE04F62C3007
:101FC0000BF02CFE04F614300BF028FE04F6FC2077
:101FD0000BF024FE04F6E4200BF020FE04F6CC20E7
:101FE0000BF01CFE04F6B4200BF018FE04F69C2047
:101FF0000BF014FE04F684200BF010FE04F66C20A7
:102000000BF00CFE04F654200BF008FE04F63C2006
:102010000BF004FE04F624200BF000FE04F60C2066
:102020000BF0FCFD04F6F4100BF0F8FD04F6DC10E8
:102030000BF0F4FD04F6C4100BF0F0FD04F66C1682
:1020400004F6AC100BF0EAFD04F694100BF0E6FD7C
:10205000B54205D0103E30460BF0E0FDB542F9D157
:1020600004F2CC56103D28460BF0D8FDAE42F9D113
:10207000204603F011FD204670BD00BFFC0A002081
:10208000A0F52570FFF77CBE10B50446FFF778FE7B
:102090004FF4626120460BF0BDFC204610BD00BF2E
:1020A000A0F52570FFF7F0BF2DE9F04FD84F89B0AC
:1020B000044603F06BFD3D46D64BD74A40F2C9219A
:1020C00003F1340E55F8240BD44E04F69419236012
:1020D00004F6C41AC4F894E2C4F82825C4F83C05F0
:1020E00004F2CC50C4F8206504F66C16C4F824152C
:1020F000CB490BF0E7FDCB4904F2DC50DFF80C8450
:102100000BF0E0FDC84904F2EC500BF0DBFDC749D1
:1021100004F2FC500BF0D6FDC54904F20C600BF044
:10212000D1FDC44904F21C600BF0CCFDC24904F29D
:102130002C600BF0C7FDC14904F23C600BF0C2FDFE
:10214000BF4904F24C600BF0BDFDBE4904F25C6077
:102150000BF0B8FDBC4904F26C600BF0B3FDBB4959
:1021600004F27C600BF0AEFDB94904F28C600BF018
:10217000A9FDB84904F29C600BF0A4FDB64904F235
:10218000AC600BF09FFDB54904F2BC600BF09AFD0A
:10219000B34904F2CC600BF095FDB24904F2DC6067
:1021A0000BF090FDB04904F2EC600BF08BFDAF49F1
:1021B00004F2FC600BF086FDAD4904F20C700BF0EC
:1021C00081FDAC4904F21C700BF07CFDAA4904F2BD
:1021D0002C700BF077FDA94904F23C700BF072FDF6
:1021E000A74904F24C700BF06DFDA64904F25C7037
:1021F0000BF068FDA44904F26C700BF063FD9A4982
:1022000004F27C700BF05EFDA04904F28C700BF0C0
:1022100059FD9F4904F29C700BF054FD9D4904F256
:10222000AC700BF04FFD9C4904F2BC700BF04AFD02
:102230009A4904F2CC700BF045FD994904F2DC7028
:102240000BF040FD974904F2EC700BF03BFD964912
:1022500004F2FC700BF036FD944904F60C000BF010
:1022600031FD934904F61C000BF02CFD914904F656
:102270002C000BF027FD904904F63C000BF022FDEA
:102280008E4904F64C000BF01DFD8D4904F65C00F0
:102290000BF018FD8B4904F66C000BF013FD8A4916
:1022A00004F67C000BF00EFD884904F68C000BF060
:1022B00009FD874904F69C000BF004FD854904F6EE
:1022C000AC000BF0FFFC844904F6BC000BF0FAFCF8
:1022D000824904F6CC000BF0F5FC814904F6DC00E1
:1022E0000BF0F0FC414604F6EC000BF0EBFC7D49F2
:1022F00004F6FC000BF0E6FC7B4904F60C100BF036
:10230000E1FC7A4904F61C100BF0DCFC784904F679
:102310002C100BF0D7FC774904F63C100BF0D2FCE4
:10232000754904F64C100BF0CDFC744904F65C10B2
:102330000BF0C8FCBE46BC4664375EF8040F5CF880
:1023400018BFDEF80410DEF80820DEF80C30BEF806
:1023500010E00FC6DCF804101A239CF80820484649
:10236000A6F800E004F6DC1684F8862984F8903993
:10237000C4F87EB904F6AC1BC4F882190021C4F875
:102380008849C4F88C490BF089FC5D4904A80BF01E
:1023900099FC04A9484604F6F4190BF025FD04A89D
:1023A0000BF03CFCD4F888291E235846C4F8A42915
:1023B000002184F8A8390BF071FC524904A80BF0F5
:1023C00081FC04A9584604F60C2B0BF00DFD04A863
:1023D0000BF024FCD4F888291F235046C4F8BC29EC
:1023E000002184F8C0390BF059FC474904A80BF0D0
:1023F00069FC04A9504604F6242A0BF0F5FC04A855
:102400000BF00CFCD4F888292023304680E000BF74
:1024100050010020FC0A0020C0010020B40100206F
:10242000CC010020D8010020E4010020F4010020AC
:10243000000200200C0200201C0200202C020020C0
:102440003C020020500200206402002074020020A0
:10245000840200208C020020A0020020B80200208C
:10246000C4020020D8020020F80200200C03002043
:10247000140300202C030020400300205003002000
:1024800060030020700300208003002094030020DC
:10249000A4030020B0030020BC030020C8030020D8
:1024A000D4030020E0030020EC030020F803002008
:1024B0000404002010040020200400203004002028
:1024C000400400205004002060040020700400201C
:1024D0008004002090040020A0040020B404002008
:1024E00044070020CC040020E0040020F804002071
:1024F00008050020140500202C05002034050020CC
:102500003C0500204C05002060050020BC04002094
:10251000C4F8D429002184F8D8390BF0BFFBD9497D
:1025200004A80BF0CFFB04A9304604F63C260BF0C0
:102530005BFC04A80BF072FBD4F8882921234846E1
:10254000C4F8EC29002184F8F0390BF0A7FBCE4940
:1025500004A80BF0B7FB04A9484604F654290BF075
:1025600043FC04A80BF05AFBD4F8882922235846D0
:10257000C4F8042A002184F8083A0BF08FFBC34901
:1025800004A80BF09FFB04A9584604F66C2B0BF033
:102590002BFC04A80BF042FBD4F8882923235046D7
:1025A000C4F81C2A002184F8203A0BF077FBB849C4
:1025B00004A80BF087FB04A9504604F6842A0BF00C
:1025C00013FC04A80BF02AFBD4F8882924233046F6
:1025D000C4F8342A002184F8383A0BF05FFBAD4987
:1025E00004A80BF06FFB04A9304604F69C260BF000
:1025F000FBFB04A80BF012FBD4F8882928234846DB
:10260000C4F84C2A002184F8503A0BF047FBA24949
:1026100004A80BF057FB04A9484604F6B4290BF0B4
:10262000E3FB04A80BF0FAFAD4F8882929235846CA
:10263000C4F8642A002184F8683A0BF02FFB97490C
:1026400004A80BF03FFB04A9584604F6CC2B0BF072
:10265000CBFB04A80BF0E2FAD4F888292A235046D1
:10266000C4F87C2A002184F8803A0BF017FB8C49CF
:1026700004A80BF027FB04A9504604F6E42A0BF04B
:10268000B3FB04A80BF0CAFAD4F888292B233046F0
:10269000C4F8942A002184F8983A0BF0FFFA814993
:1026A00004A80BF00FFB04A9304604F6FC260BF03F
:1026B0009BFB04A80BF0B2FAD4F888292C234846D7
:1026C000C4F8AC2A002184F8B03A0BF0E7FA764956
:1026D00004A80BF0F7FA04A9484604F614390BF0E5
:1026E00083FB04A80BF09AFAD4F888292D235846C6
:1026F000C4F8C42A002184F8C83A0BF0CFFA6B4919
:1027000004A80BF0DFFA04A9584604F62C3B0BF0A2
:102710006BFB04A80BF082FAD4F888292E235046CC
:10272000C4F8DC2A002184F8E03A0BF0B7FA4146FD
:1027300004A80BF0C7FA04A9504604F6443A0BF07B
:1027400053FB04A80BF06AFAD4F8882932233046E8
:10275000C4F8F42A002184F8F83A0BF09FFA54499F
:1027600004A80BF0AFFA04A9304604F65C360BF06F
:102770003BFB04A80BF052FAD4F8882933234846CF
:10278000C4F80C2B002184F8103B0BF087FA494960
:1027900004A80BF097FA04A9484604F674390BF024
:1027A00023FB04A80BF03AFAD4F8882934235846BE
:1027B000C4F8242B002184F8283B0BF06FFA3E4923
:1027C00004A80BF07FFA04A9584604F68C3B0BF0E2
:1027D0000BFB04A80BF022FAD4F8882935235046C5
:1027E000C4F83C2B002184F8403B0BF057FA3349E6
:1027F00004A80BF067FA04A9504604F6A43A0BF0BB
:10280000F3FA04A80BF00AFAD4F8882936233046E4
:10281000C4F8542B002184F8583B0BF03FFA2849A8
:1028200004A80BF04FFA04A9304604F6BC360BF0AE
:10283000DBFA04A80BF0F2F9D4F8882937234846CC
:10284000C4F86C2B002184F8703B0BF027FA1D496B
:1028500004A80BF037FA04A9484604F6D4390BF063
:10286000C3FA04A80BF0DAF9D4F8882938235846BB
:10287000C4F8842B002184F8883B0BF00FFA12492E
:1028800004A823E07405002084050020940500209E
:10289000B0050020C0050020D0050020E005002084
:1028A000F4050020080600201C0600203806002041
:1028B00050060020600600207406002088060020D4
:1028C0009C060020AC060020F80400200BF0FAF96A
:1028D00004A9584604F6EC3B0BF086FA04A80BF06A
:1028E0009DF9D4F888293C235046C4F89C2B00213C
:1028F00084F8A03B0BF0D2F9D24904A80BF0E2F91E
:1029000004A9504604F6044A0BF06EFA04A80BF032
:1029100085F9D4F888293D233046C4F8B42B00212A
:1029200084F8B83B0BF0BAF9C74904A80BF0CAF910
:1029300004A9304604F61C460BF056FA04A80BF026
:102940006DF9D4F888293E234846C4F8CC2B0021E1
:1029500084F8D03B0BF0A2F9BC4904A80BF0B2F903
:1029600004A9484604F634490BF03EFA04A80BF0DB
:1029700055F9D4F888293F235846C4F8E42B0021A0
:1029800084F8E83B0BF08AF9B14904A80BF09AF9F6
:1029900004A9584604F64C4B0BF026FA04A80BF099
:1029A0003DF9D4F8882940235046C4F8FC2B002177
:1029B00084F8003C0BF072F9A64904A80BF082F9E8
:1029C00004A9504604F6644A0BF00EFA04A80BF072
:1029D00025F9D4F8882941233046C4F8142C002165
:1029E00084F8183C0BF05AF99B4904A80BF06AF9DB
:1029F00004A9304604F67C460BF0F6F904A80BF067
:102A00000DF9D4F8882942234846C4F82C2C00211B
:102A100084F8303C0BF042F9904904A80BF052F9CD
:102A200004A9484604F694490BF0DEF904A80BF01B
:102A3000F5F8D4F8882946235846C4F8442C0021D8
:102A400084F8483C0BF02AF9854904A80BF03AF9C0
:102A500004A9584604F6AC4B0BF0C6F904A80BF0D9
:102A6000DDF8D4F8882947235046C4F85C2C0021AF
:102A700084F8603C0BF012F97A4904A80BF022F9B3
:102A800004A9504604F6C44A0BF0AEF904A80BF0B2
:102A9000C5F8D4F8882948233046C4F8742C00219E
:102AA00084F8783C0BF0FAF86F4904A80BF00AF9A7
:102AB00004A9304604F6DC460BF096F904A80BF0A6
:102AC000ADF8D4F8882949230021C4F88C2C484655
:102AD00084F8903C0BF0E2F8644904A80BF0F2F89B
:102AE00004A948460BF080F904A80BF097F8D4F835
:102AF00088294A230021C4F8A42C584684F8A83C0D
:102B00000BF0CCF85A4904A80BF0DCF804A958469D
:102B10000BF06AF904A80BF081F8D4F888294B234C
:102B20000021C4F8BC2C504684F8C03C0BF0B6F829
:102B3000504904A80BF0C6F804A950460BF054F90C
:102B400004A80BF06BF8D4F888294C230021C4F8B2
:102B5000D42C304684F8D83C0BF0A0F8464904A8A1
:102B60000BF0B0F804A930460BF03EF904A80BF0C6
:102B700055F8CDF80080214602230122C4F8EC4C20
:102B800004F54F6004F048FA3C4BD4F8EC1C0122E9
:102B9000009304F60850032304F03EFA384BD4F8AF
:102BA000EC1C0122009304F55260042304F034FA73
:102BB000344BD4F8EC1C0122009304F63850052362
:102BC00004F02AFA304BD4F8EC1C0122009304F5EF
:102BD0005560062304F020FA2C4BD4F8EC1C01229B
:102BE000009304F66850072304F016FA284AD4F834
:102BF000EC1C0223009204F55860032204F00CFA46
:102C0000244AD4F8EC1C0C23009204F698500322BA
:102C100004F002FA204AD4F8EC1C0D23009204F5CB
:102C20005B60032204F0F8F91C4AD4F8EC1C04F6AB
:102C3000C85000920E23032204F0EEF904F55E6EF4
:102C40002EE000BFC4060020D4060020E8060020C5
:102C5000FC0600201807002028070020400700205D
:102C60004C0700205C07002070070020840700202C
:102C7000A0070020B007002044070020CC0400205B
:102C8000E0040020F80400200805002014050020BE
:102C9000C8070020D8070020E0070020EC0700202C
:102CA0002868103555F80C1C764655F8082C0EF19E
:102CB000100E55F8043CBD420FC6F1D1C6494FF085
:102CC0000008D4F890024FF0FF3505F0D5F96420E4
:102CD00009F0F0F9D4F8281504A820270AF0DEFF3F
:102CE00004A904F5A1604FF02C0A0BF07DF804A8AC
:102CF0000AF094FFD4F8243584F87D821C20A4F8CF
:102D000018350AF081FE0722064601950623009237
:102D1000B249052202F0F2FBC4F86C651C200AF0EF
:102D200073FE0646009509230822AD4902F0E6FB32
:102D3000C4F870651C200AF067FE009506460B2358
:102D40000A22A84902F0DAFB1C20C4F87465064682
:102D50000AF05AFE19221821814602951723019282
:102D600000911622A04902F0C9FBC4F878953046BC
:102D70000AF04AFE21221F21814603951E2302925A
:102D80001D2200910197994902F0B8FBC4F87C9587
:102D900030460AF039FE252224218146029523235C
:102DA000019222220091924902F0A8FBC4F880957A
:102DB00030460AF029FE2922282181460295272340
:102DC0000192262200918B4902F098FBC4F8849569
:102DD00030460AF019FE2D22814602952B230192DE
:102DE000CDF800A02A22844902F088FBC4F8889517
:102DF00030460AF009FE814600952E2311227F49B4
:102E000002F07CFBC4F88C95304604F525790AF075
:102E1000FBFD834601951B2300961A22784902F098
:102E20006DFBC4F890B530460AF0EEFD15228346DE
:102E3000029500961B2301921A22724902F05EFB52
:102E4000C4F894B530460AF0DFFD09220B21834611
:102E500002950A230192082200916B4902F04EFB71
:102E6000C4F898B530460AF0CFFD2D23834602956D
:102E700001930F221423CDF800A0644904F2E44A20
:102E800002F03CFBC4F89CB530460AF0BDFD1F23A0
:102E90008346029500931D221E235D49019702F08F
:102EA0002DFBC4F8A0B530460AF0AEFD2B22072357
:102EB000834602950093062301920522554902F0AC
:102EC0001DFBC4F8A4B530460AF09EFD2A2221233A
:102ED000029500920322019311234F49064602F006
:102EE0000DFBD4F89435D4F880153846C4F8B435C1
:102EF000D4F89C35D4F87825C4F8BC35D4F8A0357E
:102F0000D4F89855C4F8C035D4F8A435C4F8A865E9
:102F1000C4F8C8650126C4F8AC15C4F8B025C4F8D7
:102F2000B855C4F8C4350AF06FFD054649463B4B19
:102F30004FF4FA62CDF8008004F046FBC4F84C551B
:102F400038460AF061FD05464946354BC8220096D1
:102F500004F03AFBC4F8505538460AF055FD0546D2
:102F6000304B4FF4FA724946CDF8008004F02CFB48
:102F70004146C4F85455284604F05AFB38460AF036
:102F800043FD0546284B4FF47A724946CDF8008040
:102F900004F01AFBD4F84C15C4F85855504604F008
:102FA000F5FAD4F85015C4F85C05504604F0EEFA72
:102FB000D4F85415C4F86005504604F0E7FAD4F884
:102FC0005815C4F86405504604F0E0FAC4F86805E2
:102FD000204609B0BDE8F08FF80700200C0800205B
:102FE00018080020240800202C08002034080020A5
:102FF0003C080020440800204C080020280A00203B
:1030000058080020640800206C0800207408002084
:103010007C080020840800208C08002094080020F0
:10302000A4080020B0080020C008002070B50446A5
:103030000025D0F84C0504F007FBD4F84C054FF4FC
:10304000FA6104F0F3FA2946D4F8900584F837556C
:1030500002F048FB2B462046FA220621BDE87040CC
:1030600003F0C8BD10B5044690F835150122D0F81C
:10307000800502F0A7FA94F83515032900D910BD90
:103080004B1CD4F88005022284F83535BDE8104089
:1030900002F098BAF8B504460D46D0F890023D49C2
:1030A00005F01AF894F81D35B3B141F28831204685
:1030B00003F0ACF94FF47A71204603F013FA94F858
:1030C0003715B9B1012606FA05F52943C9B20F290A
:1030D00084F8371520D0F8BD40F6B831204603F00B
:1030E00095F94FF47A71204603F0FCF994F83715FE
:1030F0000029E7D10222D4F8900502F063FA4FF4D8
:10310000FA61D4F84C0504F091FAD4F84C0504F0B7
:1031100093FA94F83715D5E70221D4F8900502F018
:10312000ADFA054688B14EF660220221D4F8740546
:1031300002F042FB00220221D4F8900502F042FA8C
:103140002046BDE8F840FFF771BF3146D4F890053E
:1031500002F094FA074690B90146D4F8900502F0BF
:103160008DFA0028ECD0204642F2107103F04EF99F
:103170003A463946D4F8900502F024FAE0E72046B2
:10318000054903F043F92A463146D4F8900502F088
:1031900019FAD5E7D0080020A086010038B504460A
:1031A0000D46D0F890021E4904F096FF94F81D35A4
:1031B000F3B140F6B831204603F028F94FF47A71A4
:1031C000204603F08FF92946D4F8800502F044FA2E
:1031D000022813D029466422D4F8800502F01EFA92
:1031E000D4F834150F4B104A0B4093420FD038BD22
:1031F0004FF47A71204603F009F9DFE72046FFF724
:1032000031FF42F21071204603F000F9E8E7012295
:10321000D4F86C051146BDE8384002F0D3B900BFC0
:10322000E008002000FFFF000004050038B5044658
:103230000D46D0F890021E4904F04EFF94F81D355B
:10324000F3B140F6B831204603F0E0F84FF47A715C
:10325000204603F047F92946D4F87C0502F0FCF932
:10326000022813D029466422D4F8800502F0D6F94A
:10327000D4F834150F4B104A0B4093420FD038BD91
:103280004FF47A71204603F0C1F8DFE72046FFF7DC
:10329000E9FE42F21071204603F0B8F8E8E7012297
:1032A000D4F86C051146BDE8384002F08BB900BF78
:1032B000F008002000FFFF000004050038B50446B8
:1032C0000D46D0F89002294904F006FF94F81D3508
:1032D000D3B141F28831204603F098F84FF47A7167
:1032E000204603F0FFF82946D4F8880502F0B4F927
:1032F000012821D002280DD02946D4F888050122C2
:10330000BDE8384002F05EB940F6B831204603F01F
:103310007DF8E3E729460022D4F8880502F052F947
:10332000012194F8333501FA05F51D43EDB20F2D57
:1033300084F8335508D038BD2946D4F888050222D0
:10334000BDE8384002F03EB9D4F86C0502F0F8F957
:1033500094F832352BB9FF2803D0002384F8333595
:1033600038BD0349204603F051F8F6E70009002074
:10337000A086010070B504460D46D0F890022F4992
:1033800004F0AAFE94F81D355BB340F6B831204630
:1033900003F03CF84FF47A71204603F0A3F8012DB6
:1033A0002BD02946D4F86C0502F068F9C0B1002290
:1033B0002946D4F86C0502F005F90021D4F870050F
:1033C00002F090F994F88733012103EB430304EBF7
:1033D000830393F854230A4483F8542384F8321562
:1033E00070BD4FF47A71204603F010F84FF47A71F3
:1033F000204603F077F8012DD3D1114E1221306809
:1034000002F0B2FA43789BB93068132102F0ACFAAB
:103410004378002BC5D094F838150229C1D84B1C2D
:10342000D4F88405012284F8383502F0CBF8B8E7E7
:103430000449204602F0EAFFE6E700BF1009002039
:10344000C82A0020A086010010B5044682B01949A0
:10345000D0F8900204F040FE94F81D35C3B141F25B
:103460008831204602F0D2FF94F82D35CBB1124BB3
:103470000F21186802F078FA00213223C822009147
:10348000022101F0ABFF012384F82D3502B010BDFD
:1034900040F6B831204602F0B9FF94F82D35002BE4
:1034A000E5D10122D4F86C05114602B0BDE8104008
:1034B00002F088B820090020C82A002010B5044670
:1034C0000549D0F8900204F007FE204646F2A81104
:1034D000BDE8104002F09ABF3009002010B5044644
:1034E0000A49D0F8900204F0F7FD204646F2A811F0
:1034F00002F08CFF064B0F21186802F035FA437872
:1035000013B1012384F82F3510BD00BF40090020FE
:10351000C82A002010B504460849D0F8900204F0EB
:10352000DBFD204646F2A81102F070FF20464FF462
:103530007A71BDE8104002F0D5BF00BF4C090020F1
:1035400010B504460F49D0F8900204F0C5FD94F878
:103550001D355BB9204640F6B83102F057FF2046D2
:103560004FF47A71BDE8104002F0BCBF204641F232
:10357000883102F04BFF20464FF47A71BDE81040CD
:1035800002F0B0BF5C09002010B504460F49D0F826
:10359000900204F0A1FD94F81D355BB9204640F679
:1035A000B83102F033FF20464FF47A71BDE8104085
:1035B00002F098BF204641F2883102F027FF2046F2
:1035C0004FF47A71BDE8104002F08CBF7009002002
:1035D00010B504460949D0F8900204F07DFD20465C
:1035E0004FF47A7102F012FFD4F8740502F0F4F887
:1035F000D4F86C05BDE8104002F0EEB87C0900205C
:1036000010B504460549D0F8900204F065FD204647
:1036100041F28831BDE8104002F0F8BE8809002070
:1036200070B504462749D0F8900204F055FDD4F84F
:103630009005022102F022F858BB05460121D4F87A
:10364000900502F01BF8064678B90146D4F89005BB
:1036500002F014F858BBD4F82025D4F890021A4B85
:103660001A49BDE8704004F0BFBD2A46D4F8900561
:10367000012101F0A7FF2946D4F89005022201F0AC
:10368000A1FFD4F84C0541F28831BDE8704003F049
:10369000CDBFD4F890050022022101F093FFD4F8A9
:1036A000900502220121BDE8704001F08BBFD4F8E3
:1036B00090053246314601F085FF2046BDE8704056
:1036C000FFF7B4BC98090020AC090020C009002015
:1036D000434B70B50446186802F05EF994F849351A
:1036E0000133DBB2072B84F8493524D9002384F851
:1036F000493512213B480AF009F83B4804F5B56505
:1037000004F5B9660AF0C4F955F8040F0122002146
:1037100001F058FFAE42F7D1C8210023A4F84415A8
:1037200084F848350023D4F85005A4F84A35BDE89C
:10373000704003F07BBF013B062BDAD801A252F8A0
:1037400023F000BFC11E0000531E0000D71E000062
:10375000531E0000ED1E0000091F0000271F00007F
:103760001021224809F0D2FF1F480AF091F90F21D9
:10377000A4F84415D6E716211D4809F0C7FF1A48DA
:103780000AF086F96421A4F84415CBE71021194802
:1037900009F0BCFF14480AF07BF914210123A4F8B6
:1037A000441584F84835BDE70D21134809F0AEFFF4
:1037B0000D480AF06DF90123B4F8441584F8483532
:1037C000A4F84635AEE70E210C4809F09FFF0648E5
:1037D0000AF05EF914231946A4F84435A2E700BFA5
:1037E000C82A0020D0090020DC1F0020E4090020A6
:1037F000F8090020100A0020240A0020340A0020C2
:1038000010B509490446D0F8900204F035FC0A23AB
:10381000204684F84935FFF75BFFD4F85005BDE832
:10382000104003F009BF00BF440A002070B590F8B3
:10383000493582B00446072B27D8DFE803F03976F4
:1038400039893904A52D7F4B00251E6808F098FCA6
:103850007D4B01463046A3FB01235B0903EB430389
:10386000A1EB031102F080F894F84815322300957B
:10387000C82201F0B3FDB4F84A15642900F0DE80D7
:10388000C72904D92046FFF723FFB4F84A150131B0
:10389000A4F84A1502B070BDB0F84A152F2940F2BD
:1038A000C2806429EED00131A4F84A1502B070BD7F
:1038B00090F8483500F5B56500F5B96643B355F89D
:1038C000040F01F0D1FFB542F9D194F84835002B2F
:1038D00072D0B4F84415053189B2A4F84415D4F86F
:1038E000500503F0A3FEB4F84435653B9BB2C62BEC
:1038F00005D994F8483583F0010384F84835B4F8C5
:103900004A154F29BED80131A4F84A1502B070BD3E
:1039100055F8040F01F060FFAE42D6D055F8040F01
:1039200001F05AFFAE42F3D1CFE7B0F84A152F2984
:1039300060D8444B186802F017F801F087FDB4F81E
:103940004A155E299ED80131A4F84A1502B070BD0F
:1039500090F84A5515F0070555D000EB8503002176
:10396000D3F8A80501F0BEFE04EB85050121D5F8CA
:10397000AC0501F0B7FEB4F84A152F2982D8013101
:10398000A4F84A1502B070BD2E4D0021286801F040
:10399000EBFF46782868B6B902F01AF894F8483573
:1039A000B4F84615ABB3023189B21829A4F846150C
:1039B00010D984F848650DE0B4F84415053989B28A
:1039C000A4F844158BE701F0E7FFB4F84615C1F100
:1039D0001A0189B2A4F84415D4F8500503F026FE64
:1039E000B4F84A1596293FF44DAF0131A4F84A15B1
:1039F00002B070BD134B30391868C9B201F0B4FF82
:103A000001F024FD9BE72946D0F8C80501F06AFEC5
:103A1000AAE7023989B20129A4F84615DAD80123A8
:103A200084F84835D6E7074B186801F09DFF4FF43E
:103A30007A7101F01DFDB4F84A1532E784F8485553
:103A400025E700BFC82A0020ABAAAAAA70B588B093
:103A5000144605460E4604A81F490AF01FF92146E0
:103A6000684604EBC4040AF05DF9694604A8A400A2
:103A70000AF048FA19490AF04DFA014628460AF0B8
:103A800033F968460AF0CAF804A80AF0C7F83119F1
:103A900004A801F52B710AF027F904A810490AF0CF
:103AA00039FA014628460AF0F7F904A80AF0B6F8F0
:103AB000311904A801F527710AF016F904A809497B
:103AC0000AF028FA014628460AF0E6F904A80AF0A6
:103AD000A5F8284608B070BD580A00205C0A0020EE
:103AE000600A0020640A002010B507490446D0F897
:103AF000900204F0C1FA0023D4F8580584F8403548
:103B0000BDE8104003F098BD680A002030B585B0CC
:103B10000C460546002168460AF0C0F821462846B2
:103B200002F0B4F94CB1012C02D1284600F042F861
:103B300068460AF073F805B030BD2846FFF760FE0E
:103B40002846FFF7D1FF68460AF068F805B030BD97
:103B500010B504461649D0F8900204F08DFA2046BC
:103B600002F0B2FBA0680122042100F071FAA06803
:103B700001220C2100F06CFAA06801220D2100F056
:103B800067FAA06801220E2100F062FA236820463D
:103B90001F219B68984704F55560FA21002203F025
:103BA00071FA20460021BDE81040FFF7AFBF00BF0B
:103BB0007C0A002070B504460121FFF7A7FF00250D
:103BC0006422236884F833552046A4F83A250F214F
:103BD00084F8385584F82C559B6884F832559847FA
:103BE0002046FFF723FA2B462A4684F82D5584F801
:103BF0002E550C2184F82F5584F83055A06800F01C
:103C0000EFF92B46A06801220D21BDE8704000F0BD
:103C1000E7B900BFCB1001F0070103EB830370B5D8
:103C200001EB430190F81A55064601F0FF047DB3FD
:103C3000012D2CD1B0F89833B0F83A25934206D331
:103C400090F838159B1A0229A0F898332FD9A4F1BF
:103C50001A03322B22D8DFE803F033212121383D2B
:103C60004B555A2121212121683D76555A848D21B9
:103C70002121683D765592A0A9212121683D76B386
:103C800092A021212121683D76B39284AE0070BDBF
:103C90002F2C03D112B190F87C3303B970BD013BD6
:103CA000012180F87C33BDE87040FFF72FBF4B1C2B
:103CB000D0F884052A4686F8383501F083FCC6E73B
:103CC0003046BDE87040FFF79BBC3046BDE8704011
:103CD000FFF720BCA4F11F013B4B304683FB0123BF
:103CE000C917C1EBA301BDE87040C9B2FFF79EBA86
:103CF00030461E2102F08AFBD6F87405BDE87040FC
:103D000001F06ABD3046BDE87040FFF761BCA4F128
:103D100022012D4B304683FB0123C917C1EBA301C0
:103D2000BDE87040C9B2FFF7C9BAA4F12801264B1B
:103D3000304683FB0123C917C1EBA301BDE87040E6
:103D4000C9B2FFF7A7B9A4F12A011F4B304683FB84
:103D50000123C917C1EBA301BDE87040C9B2FFF749
:103D60001DBAB4F12D01304618BF0121BDE87040E5
:103D7000FFF70ABC3046BDE87040FFF765BBA4F111
:103D80003601114B304683FB0123C917C1EBA30158
:103D9000BDE87040C9B2FFF7EDBAB4F13701304663
:103DA00018BF0121BDE87040FFF7CABB3046BDE82F
:103DB0007040FFF783BB3046BDE87040FFF78EBB15
:103DC000A4F12B01A5E700BF6766666670B590F8A1
:103DD000402584B00546FAB1032A28D017D9042A11
:103DE0004BD0043A29466846D2B2FFF72FFE05238E
:103DF0006A460121D5F8A00301F0FAF895F840359C
:103E0000082B33D0684609F009FF95F840250132A8
:103E100085F8402504B070BD02F038F94FF47A718E
:103E2000D5F8580503F002FC95F84025EFE7D0F8E7
:103E3000A063337F5BB1002421460134304601F09A
:103E400063F9337FE4B2A342F6D8D5F8A063104AF1
:103E500030460523002101F0B7F840F6C411D5F82B
:103E6000580503F0E3FB95F84025D0E700236846AA
:103E700085F8403509F0D2FECCE7064A062300213A
:103E8000D0F8A00301F0A0F895F84025A9E700BFFD
:103E9000900A0020A80A0020D0F85C358B421BD085
:103EA000D0F86035994210B419D0D0F864359942F1
:103EB0001AD0D0F86835994209D0D0F820250E4B99
:103EC000D0F890020D495DF8044B04F0A1B91146F9
:103ED0005DF8044BFFF77ABF1146FFF7A1BB11460F
:103EE0005DF8044BFFF7A2BC00F5586000215DF8B7
:103EF000044B03F0B1B800BFC00A0020D00A002074
:103F0000A0F52570FFF7C8BF70B50E460546012322
:103F1000042186F010048068C4F30014224600F0E7
:103F20005FF8084A234608491268084809F0C8FDA6
:103F30002846012102F058FF31462846BDE870406E
:103F400002F0FEBC582D0020E00A0020DC1F0020FB
:103F500010B50446006808B109F05AFDA06808B120
:103F600009F056FD606808B109F052FD204610BD09
:103F700010B50446642008F09DF8A37B63B10023CC
:103F80001A462068591CC254A068C2546068C254C2
:103F90008BB2A17B9942F4D810BD00BF38B50D4655
:103FA0000446642008F086F8B5F5806F294628BFDE
:103FB0004FF48061481EA181C0100130C0B2A073CF
:103FC00009F024FD2060A07B09F020FDA060A07B0B
:103FD00009F01CFD60602046FFF7CAFF204638BD8F
:103FE00070B484898C420CD901F007050124C910F2
:103FF000AC4089B2E5B243B16AB10468635C1D426A
:1040000018D00023184670BC70474668765C35426D
:10401000F8D1002AF1D10668735C1D4215D023EA5D
:104020000404012374548068425C154345541846C7
:1040300070BC704745EA0302012362548068425C09
:1040400015434554184670BC70471346DAE700BF65
:1040500083898B420ED9012310B401F00704C910E3
:10406000A34089B23AB94068425C22EA0303435450
:104070005DF8044B70474268505C03435354F7E7C4
:10408000827B4B109A4207D90268D05CCB0754BFA1
:1040900000F00F000009704700207047837B8B42BF
:1040A00002D90368585C704700207047827B4B1030
:1040B0009A4207D98268D05CCB0754BF00F00F004A
:1040C0000009704700207047827B4B109A4207D945
:1040D00011F0010F8168CA5C03D002F00F02CA54CC
:1040E000704722F00F02CA54704700BF2DE9F04319
:1040F000002585B0C0F89050D1F80880B8F1000FC5
:1041000039D00F4606462C4602E0444506DA013413
:104110002146384609F022FF2028F6D944452DD003
:10412000254602E0454506DA01352946384609F0BC
:1041300015FF2028F6D8D6F890002B46224639469F
:1041400006EB0019684609F041FF684609F14C0981
:1041500009F068FF0146484609F03EFE684609F04E
:104160005DFDD6F89030F2180133032B82F88C40B5
:10417000C6F89030C7DD05B0BDE8F083D6F89030C2
:10418000032BF8DC06EB03158C3306F19007E4B241
:104190004C351E442846064909F02EFE06F8014B10
:1041A000BE4205F11005F5D105B0BDE8F08300BFB2
:1041B000F00A00202DE9F0478AB00E46044600219F
:1041C00002A809F06BFDB3688BB1626C002A00F0A5
:1041D0005B82A26C002A00F05782802B00F2F780ED
:1041E00031462046FFF782FFD4F890303BB90025D6
:1041F00002A809F013FD28460AB0BDE8F08704F1D3
:104200004C082168404609F093FE002840F0F680F3
:1042100005466168404609F08BFE002840F0148393
:10422000A168404609F084FE002840F0F182E16870
:10423000404609F07DFE002840F049832169404650
:1042400009F076FE002840F034836169404609F0A9
:104250006FFE002840F01583A169404609F068FE12
:10426000002840F0FF82E169404609F061FE002825
:1042700040F05382216A404609F05AFE002840F07F
:104280002B82616A404609F053FE002840F01182FB
:10429000A16A404609F04CFE002840F0FA81E16A2C
:1042A000404609F045FE002840F09F82216B4046C1
:1042B00009F03EFE002840F06D82616B404609F037
:1042C00037FE002831D0606CD0F8F0301BB11846B2
:1042D00007F0A8FA606C0023524A194603F0B0FABE
:1042E000636C06A893F8EC1009F01CFD06A902A85F
:1042F00009F07AFD06A809F091FC636CD3F8F00090
:1043000060B102A909F09EFB636CD3F8F00028B1FC
:104310000368032244495B689847636C012518468B
:10432000424A0023294603F08BFAA16B404609F06C
:10433000FFFD68B3D4F89030012B07DD3C4904F150
:104340005C0009F0F5FD002840F04B83606CD0F86C
:10435000F0301BB1184607F065FA606C0023354A4F
:104360000125194603F06CFA636C0A2206A8B3F81B
:10437000EE1009F0EBFC06A902A809F035FD06A82D
:1043800009F04CFC002302AA2946606C03F072FA83
:10439000E16B404609F0CCFD002853D1216C40462A
:1043A00009F0C6FD002864D1002D40F004832121CE
:1043B000214809F0ABF94146204809F043FB0221AE
:1043C0001F4809F0A3F91D4809F062FB10E77F239D
:1043D0000022314606A809F0F9FD06A9304609F089
:1043E00003FD06A809F01AFC31462046FFF77EFEC1
:1043F000D4F89030002B3FF4FAAE00E704F15C00F3
:1044000009F020FEA36C00F01F071A681846394611
:1044100093689847D4F89030022B00F3EF8201257F
:10442000F7E600BFC00B0020CC0B0020D00B002013
:10443000780B0020E00B0020840D0020DC1F002002
:10444000A80D0020A06C01F03FFF606CD0F8F030A8
:104450001BB1184607F0E6F9606C0023B74A19460D
:1044600003F0EEF94046216C09F062FD002800F0EF
:10447000A282606CD0F8F0301BB1184607F0D2F978
:10448000606C00230125AE4A194603F0D9F90023D8
:10449000AC4A2946606C03F0D3F91321AA4809F00D
:1044A00035F9AA4809F0F4FA266830460BF058F8B6
:1044B0000146304609F02AF91421A54809F026F9E9
:1044C000A24809F0E5FA666830460BF049F8014663
:1044D000304609F01BF917219E4809F017F99B484F
:1044E00009F0D6FAA66830460BF03AF80146304695
:1044F00009F00CF91A21984809F008F9934809F0D5
:10450000C7FAE66830460BF02BF80146304609F052
:10451000FDF817218F4809F0F9F88C4809F0B8FA2E
:10452000266930460BF01CF80146304609F0EEF8DB
:104530001721884809F0EAF8844809F0A9FA666961
:1045400030460BF00DF80146304609F0DFF8142133
:10455000824809F0DBF87D4809F09AFAA6693046EE
:104560000AF0FEFF0146304609F0D0F809217C48E8
:1045700009F0CCF8754809F08BFA266A30460AF043
:10458000EFFF0146304609F0C1F81821754809F0DF
:10459000BDF86E4809F07CFA666A30460AF0E0FF22
:1045A0000146304609F0B2F815216F4809F0AEF81F
:1045B000664809F06DFAA66A30460AF0D1FF014656
:1045C000304609F0A3F81521674809F09FF85F48C5
:1045D00009F05EFAE66A30460AF0C2FF014630464C
:1045E00009F094F82421614809F090F8574809F03F
:1045F0004FFA266B30460AF0B3FF0146304609F009
:1046000085F81C215A4809F081F8504809F040FA11
:10461000666B30460AF0A4FF0146304609F076F892
:104620001621544809F072F8484809F031FAA66B8F
:1046300030460AF095FF0146304609F067F82C2114
:104640004D4809F063F8414809F022FAE66B30461C
:104650000AF086FF0146304609F058F81421474811
:1046600009F054F8394809F013FA246C20460AF08E
:1046700077FF0146204609F049F8344809F008FA66
:10468000324809F005FAB3E538213D4809F03EF813
:10469000ADE504F15C053B49284609F049FC0746B5
:1046A000002800F06381A06C0125103002F0EEFDBF
:1046B000F5E5344904F15C0009F03AFC8146002834
:1046C00000F0B181636C0125D3F8F00000283FF4BD
:1046D000DFAD07F0A7F8DBE504F15C052A492846C1
:1046E00009F026FC18B1636C022283F89C2027494C
:1046F000284609F01DFC18B1636C012283F89C2048
:104700002846234909F014FC002800F06881636CF6
:104710000022012583F89C20B3E504F15C051949CA
:10472000284609F005FC002800F04781636C01254C
:10473000D3F8840003F0C4FB9CE500BFF40B002019
:10474000000C0020100C0020240C0020DC1F002096
:10475000380C0020500C0020680C0020840C002035
:104760009C0C0020A80C0020C40C0020DC0C0020B5
:10477000040D0020240D00203C0D00206C0D0020B5
:104780003C0B0020780B0020800B0020880B0020C1
:10479000940B0020606C012103F0CCF8636CD3F81B
:1047A000F00008B107F03EF802F052FF0A2201467D
:1047B00006A809F0CBFA06A902A809F015FB06A87D
:1047C00009F02CFA0023606C02AA194603F052F893
:1047D000636CD3F8F000002800F00E8103680B2210
:1047E000A04901255B68984767E5606C012103F0EB
:1047F000A1F8606CD0F8F0301BB1184607F012F841
:10480000606C0023984A0125194603F019F84DE51C
:1048100004F15C0009F016FC074604F16C0009F095
:1048200011FCD4F890308146022B00F0118104F184
:104830007C00012509F006FC1FFA89F283B2A06C06
:10484000F9B202F0D7F9F2E404F15C058749284691
:1048500009F06EFB002877D0A36C0125D86801F021
:1048600053FFDDE404F15C00012509F0EBFB804B14
:10487000C1B20746186801F077F8FA2100F0F8FD98
:10488000F1E404F15C0009F0DDFBD4F89030074658
:10489000022B00F3C1804FF0FA09754BF9B20125E4
:1048A000186801F061F849460023322200F0BAFD91
:1048B000D2E404F15C056D49284609F039FB8146D4
:1048C00030B36B4B0125186801F066F8BDE404F1C4
:1048D0005C056649284609F02BFB28B1644B01258D
:1048E000186801F059F8A9E42846012509F0AAFB47
:1048F000074604F16C0009F0A5FBA36C0028F9B28F
:1049000098682B46D4BF00220122FFF769FB95E48B
:104910002846012509F096FB074604F16C0009F0D2
:1049200091FB534B8246F9B2186801F01DF8BAF1B9
:10493000000FCDF800904FF03203D4BF00210121C9
:10494000C82200F04BFD80E42846012509F07AFBDF
:10495000074604F16C0009F075FB0028F9B2A06C61
:10496000D4BF0022012202F02FF959E42846012584
:1049700009F068FB94F88E208146314606A809F0BC
:1049800049FB06A902A809F02FFA06A809F046F982
:10499000A36C02A906A803F1100609F0A5F9069B6D
:1049A00009EA0501304600973A4602F0E3FC06A802
:1049B00009F034F973E401251AE42846012509F0C9
:1049C00041FB00F0070704F16C0009F03BFB636C4E
:1049D000C2B23946D3F8840003F048FA4AE401250C
:1049E0004FE4656C0022D5F89800114604F0E0F819
:1049F0000023A5F8EE30A9E401255EE404F16C0083
:104A0000012509F01FFBA36C00F01F011A6818466E
:104A100093689847FFF7FDBB04F16C0009F012FBA7
:104A20001FFA80F939E794F88E20314606A801254F
:104A300009F0F0FA06A902A809F0D6F906A809F0CB
:104A4000EDF84946FBB202AA606C02F013FF1FE4C6
:104A500082B20023F9B2A06C02F0CCF80125FFF776
:104A6000E6BB00BFB40B0020980B0020780B0020A1
:104A7000C82A0020037E8B4207D9437E934204D983
:104A8000436853F82130985C70472120704700BF7D
:104A90002DE9F04745680FFA81F986B005EB491515
:104AA000AB7C002B37D0D0F800A00E466B7C0746BD
:104AB0009AF819802C7A092B00F20281DFE813F0B2
:104AC0006B000A007D009D00BA009D00BA00D30073
:104AD000E9002E0095F818804FF00009294602A839
:104AE00009F002F9029B424631465046CDF800904B
:104AF00002F040FC02A809F091F8AB7E002B00F018
:104B0000EC802B8B01339BB22B833A7F141BA34287
:104B100001D185F81A9006B0BDE8F08707F030FBA8
:104B20003968C0B24B68B0FBF8F208FB120453F8C6
:104B300029000B7EE4B2497E04E00134E4B2A045D2
:104B400008BF00249E42F8D28C42F6D2025D202A91
:104B5000F3D12146284609F001FA224603463146A0
:104B6000386802F0AFFC2B8B01339BB243452B839B
:104B7000D1D100243F68294602A809F0B5F8029B6C
:104B8000384631462246009402F0F4FB02A809F0B0
:104B900045F8AC74BFE72F7E0024294602A809F02F
:104BA000A3F8029B3A4631465046009402F0E2FBDD
:104BB00002A809F033F8AC74ADE7294602A809F061
:104BC00093F84FF0000EB5F918303146029A50466E
:104BD000CDF800E002F0FEFB02A809F01FF8AB7E62
:104BE000002B71D12B8B01339BB22B833A7FA41AFC
:104BF000A34290D10123AB768DE7294602A809F0A4
:104C000073F801272B8B3146029A504603EB070EAF
:104C10001BB2C8EB0408A5F818E0009702F0DAFB15
:104C200002A808F0FBFF2B8B43457FF774AF0023EE
:104C3000AB7470E7294602A809F056F82B8B0127C0
:104C4000029A03F1FF3E31461BB25046A5F818E028
:104C5000009702F0BFFB02A808F0E0FF2B8BA342F5
:104C60007FF659AFE3E7013C2B8BA3424DD0504672
:104C700002F0F2FB298B28464B1C2B8309F06EF9BE
:104C800008F1FF3203463146D2B2386802F01AFC0E
:104C900041E7B5F81880B8F1000F26D1294602A8DF
:104CA00009F022F8013C029B424631465046CDF8BD
:104CB000008002F05FFB02A808F0B0FF2C832AE717
:104CC00000236B74AB7426E72B8B013B9BB22B83C9
:104CD000002B7FF420AFAB761DE72B8B013B9BB203
:104CE0002B83002B7FF417AF84E7504602F0D2FBF2
:104CF000298B28464B1E2B8309F030F93146034699
:104D00000022386802F0DEFB05E70024294602A8ED
:104D100008F0EAFF029B314650462246009402F01A
:104D200029FB02A808F07AFF2C83F4E6037F8B426C
:104D300000D870472DE9F0470D468CB00168044655
:104D4000684617461C310FFA85F808F0CDFF1E2182
:104D5000012F94F8149094E8480006EB481693F855
:104D600019A0B183777410D0022F19D0092F00F247
:104D7000E280DFE817F0DA001900E0008700A50004
:104D8000C5002C004E00D6007B00227F914503D940
:104D900000233383B3760BE014BF01270027E5E738
:104DA000227F914580F0BF80002201233283B376B9
:104DB0000123B374237FAB4203D929462046FFF772
:104DC00067FE684608F02AFF0CB0BDE8F08708AF20
:104DD00004F10C01384608F087FF23681A7EAA42C6
:104DE00000F2CF800DF110097649484608F056FFD1
:104DF0004946384609F086F80146304608F0ECFF8F
:104E0000484608F00BFF384608F008FF6369338313
:104E1000CEE7B9F1000F40F0CE801A7EAA4200F230
:104E2000C28008AF6749384608F038FF3946304637
:104E300008F0DAFF384608F0F1FE09F1FF3333835A
:104E4000B9F1000F40F0858023681A7EAA4279D814
:104E50005C49384608F022FF3946304608F0C4FF66
:104E6000384608F0DBFE00233383A1E704F10C0190
:104E7000304608F0B1FF2946206802F067FA0023A7
:104E8000338395E71A7EAA4269D80DF110094D497E
:104E9000484608F003FF494608A808F025FF694680
:104EA00008A809F02FF80146304608F095FF08A839
:104EB00008F0B4FE484608F0B1FE0023338377E7DC
:104EC00008AF6946384608F00FFF23681A7EAA42E9
:104ED0004ED80DF110093B49484608F0DFFE49461F
:104EE000384609F00FF80146304608F075FF48468D
:104EF00008F094FE384608F091FEA6F818A057E78F
:104F00001A7EAA4246D80DF110092E49484608F0EB
:104F1000C5FE494608A808F0E7FE08A804F10C0100
:104F2000BFE708AF8CE77FF433AF04F10C013046E4
:104F300008F052FF3CE700236846B374338308F05F
:104F40006DFE41E75B68384653F8281008F0A6FE6E
:104F500082E704F10C01384608F0C6FE7CE75B6886
:104F60000DF1100953F82810484608F097FE92E713
:104F70005B680DF1100953F82810484608F08EFEC2
:104F8000ADE75B680DF1100953F82810484608F0AA
:104F900085FE2DE75B680DF1100953F8281048468F
:104FA00008F07CFEB5E75B6808AF53F82810384678
:104FB00008F074FE3AE708AF04F10C01384608F037
:104FC00093FE33E7F00A002070B5047F8C4200D8CE
:104FD00070BD1E460D46044611460C3008F00CFF0D
:104FE000324629462046BDE87040FFF79FBE00BF0D
:104FF00070B5047F8C4200D870BD1E460D46044635
:1050000011460C3008F0E8FE324629462046BDE83D
:105010007040FFF78BBE00BF2DE9F047057F002DE4
:1050200057D0002406460F462046736803EB44130E
:105030009A7C4AB15A69998BBA1A8A4204D35F6141
:105040000120357FA5423DD80134E4B2AC42ECD317
:10505000002D41D00023D6F808E04FF0640C9846AC
:1050600008E08D4212D982F81080357F0133DBB21F
:105070009D4225D9C3EBC3020EEB8202117C0029AD
:10508000F4D05569518B7D1B0029EAD1148B013373
:1050900092F812A092F81190DBB2B5FBF4F104FB88
:1050A00011550CFB05F5B5FBF4F454458CBF0024F9
:1050B0000124A1455474357F18BF01209D42D9D8E1
:1050C000BDE8F08730462146FFF7E2FC357F01203E
:1050D000BAE72846BDE8F087BDE8F087F8B5C1EB30
:1050E000C1018368427F03EB810662B1054600245B
:1050F000202721460134304608F040FF0770E4B213
:105100006B7FA342F5D8F8BD38B5044600680D465C
:1051100002F01CF9237F6068AB4200EB451001D917
:1051200000238374A368C5EBC501002203EB810350
:1051300004491A7408F060FE29462046BDE838404C
:10514000FFF7CCBFF00A00202DE9F0470025064606
:105150000F4684B00560294645600C3008F09EFD7E
:10516000757735774FF02008376008203C7E34771C
:105170007B7E08FB0400737708F048FC446000F174
:105180000809C0F80080ACB1671E4FF001084C461A
:10519000013F20460021203408F080FD7A1C04F8ED
:1051A000108C04F80F5C04F80E5C44F80C5C24F8D6
:1051B000085CEDD1347F1C270820C6F80490651EDA
:1051C00007FB040008F022FC076000F108084460B7
:1051D000D4B1444600274FF0010A4FF0320920466F
:1051E000002108F05BFD013D4FF4FA73277484F849
:1051F00011A01C3424F8043C6B1C04F80A9C44F8ED
:10520000087C24F8027CEAD1337FC6F808808BB38F
:1052100000254FF001093227AA4601E0D6F80880A0
:10522000C5EBC50331686846013508EB83041C31C2
:1052300008F05AFD69462046EDB208F0D5FD6846F3
:1052400008F0ECFC4FF4FA7384F810A084F8119085
:10525000A774A4F81AA02383337FAB42DED84BB1E6
:105260000024214601343046FFF74EFF337FE4B27D
:10527000A342F6D8304604B0BDE8F0872DE9F047E8
:10528000054697681C4690461F440E46FFF726FFCA
:105290006B7FA3421FD9FFB2BC421CD2C6EBC6062D
:1052A000A146B60001E0A74215D9C9EB040140466A
:1052B00008F054FE8246A86821460134304408F0C4
:1052C0005DFEBAF1200FE4B214BF782220220270F2
:1052D0006B7FA342E7D8BDE8F08700BF2DE9F04F10
:1052E000047F89B090468C429DF848A09DF84C20E0
:1052F00002D809B0BDE8F08F0EB2044640680D46F2
:10530000770141469946039238444FF0000B08F06C
:1053100063FD6368414604A81F442368A7F81890FA
:1053200087F811B087F812B0029308F0DDFC02A8EC
:1053300029460DC800924A4602F01CF804A808F05D
:105340006DFCBAF1000F09D1A368C6EBC60603EBEA
:10535000860686F810A009B0BDE8F08FC6EBC60639
:10536000294620464B464246B600FFF787FFA36812
:105370003225074A33444FF4FA70012112689D74B4
:10538000A468A3F81AB02644188331747261B0E798
:10539000582D00200022322110B44FF4FA7401710C
:1053A000027044808273427082815DF8044B7047C2
:1053B0004A784B8870B40C784270047043800B7943
:1053C00003718E688D898C7B0A698B8A86608581E2
:1053D00084730261838270BC704700BF10B40C1CE0
:1053E00018BF012401290470BDF804400DD0022922
:1053F00007D1002A08BFC822002B08BF32234280F1
:10540000037141705DF8044B70474378012BF8D06D
:10541000034B84811B685DF8044B836041707047C7
:10542000582D002030B40CB20125002A08BF3222CA
:10543000002908BFC82104FB03F30224057044704F
:1054400002714180838130BC704700BF4378012BDB
:1054500008D033B90549012283810B68027083604B
:10546000427070470023037043707047582D00202E
:1054700010B403780124054A634084731268818262
:10548000026103705DF8044B704700BF582D002087
:105490004378022BF0B505781CD02B46827B22B1D5
:1054A0000269848A8A1AA2420ED853B1828942B113
:1054B0008468091B914204D3002213468281427002
:1054C000027085EA0300F0BD83F00103002203703F
:1054D0008273EAE78268642446888A1A90F804E0B6
:1054E000B2FBF6F706FB172204FB02F2B2FBF6F35F
:1054F00073452CBF002301230370CFE70CB4F0B534
:105500000E4685B00021044608F0C8FB0023182091
:10551000237508F079FA0746FFF73CFF0A9DA7615B
:105520006B1C207D07D00AAB53F8042F01300132E9
:10553000C0B2F9D1207508F069FA237D20615BB112
:10554000002303E00AAA206952F82350591CC554CD
:10555000227DCBB29A42F5D83146684608F09EFBD0
:105560006946204608F040FC684608F057FB204694
:1055700005B0BDE8F04002B0704700BF0D4B10B55C
:105580001C68A4B103692046595C00F0EDF904469B
:1055900008B1204610BD1E21074808F0B7F807489B
:1055A00008F076FA642006F085FD204610BD26211D
:1055B0000348F2E7C82A0020DC0D0020DC1F002091
:1055C000B40D0020114B1B6870B582B0DBB1037DB8
:1055D0008B420BD91646FFF7D1FF0022322331460A
:1055E0000092C822FFF7FAFE02B070BD25210848DC
:1055F00008F08CF8074808F04BFA642002B0BDE8C8
:10560000704006F057BD25210348F1E7C82A002065
:10561000240E0020DC1F0020FC0D00200B4B1B681B
:1056200010B53BB11446FFF7A9FF2146BDE8104075
:10563000FFF71EBF2721064808F068F8054808F064
:1056400027FA6420BDE8104006F034BDC82A0020C7
:10565000780E0020DC1F0020074B1B684BB110B5F3
:10566000037D8B4201D8002010BDFFF787FF4078F3
:1056700010BD1846704700BFC82A002038B5144B2B
:105680001C68C4B1037D0D468B4208D9FFF776FF35
:10569000044698B14078003018BF012038BD2A2157
:1056A0000C4808F033F80C4808F0F2F9642006F0D2
:1056B00001FD002038BD2A210848F2E72A460849A2
:1056C000054808F00DFA642006F0F4FC204638BDC9
:1056D000C82A0020CC0E0020DC1F0020A00E0020D5
:1056E000F80E0020134B1B68F0B583B0ABB1037DFF
:1056F000054683B100240E462746E1B22846FFF74F
:105700003DFF32230097C82231460134FFF766FE81
:105710002B7DA342F1DC03B0F0BD2821064807F041
:10572000F5FF064808F0B4F9642003B0BDE8F04086
:1057300006F0C0BCC82A0020240F0020DC1F002077
:105740001A4B1B6870B582B013B30546007DD0B10B
:105750000E46002403E0D4B22B7DA34215D9214686
:105760002846FFF70BFF4378621CB342F3D0214673
:105770002846FFF703FF0022314632230092C82259
:10578000FFF72CFE204602B070BD204602B070BD6F
:105790003021074807F0BAFF064808F079F964207D
:1057A00006F088FCFF2002B070BD00BFC82A0020B0
:1057B000500F0020DC1F002070B515460646FFF78D
:1057C000BFFF044635B1FF2804D030462146FFF71D
:1057D000D5FE8581204670BDF8B51F4B1B68002B98
:1057E00036D0017D0646012926D901398469C9B21E
:1057F000FFF7C4FE01462046FFF7DAFD347D023C88
:1058000011D4E5B23046013C691CC9B2FFF7B6FEBF
:10581000074629463046FFF7B1FE01463846FFF7F6
:10582000C7FD631CEDD100213046FFF7A7FEB1692B
:10583000BDE8F840FFF7BCBD2821084807F066FF27
:10584000074808F025F96420BDE8F84006F032BCAE
:105850002D210448F2E700BFC82A00204410002090
:10586000DC1F002014100020F8B51F4B1B687BB311
:10587000037D0646012B28D984690021FFF77EFEAF
:1058800001462046FFF794FD317D01291EDD0025EC
:10589000ECB2304601352146FFF770FE611C074629
:1058A0003046C9B2FFF76AFE01463846FFF780FD71
:1058B000317D0139A942EBDCC9B23046FFF75EFE0B
:1058C000B169BDE8F840FFF773BDF8BD0139F3E7F2
:1058D0002C21064807F01AFF054808F0D9F8642083
:1058E000BDE8F84006F0E6BBC82A0020C41000203E
:1058F000DC1F0020B1F5807F2DE9F041074617DC61
:10590000B1F1AA6F0E461CD94FF0FF300C1808F009
:105910007DF880464546013C2846FFF73BFD18359B
:10592000631CF8D1C7F8008038467E60BDE8F0817E
:105930004FF4C050FF2408F069F84FF48076804699
:10594000E8E701EB41004C1EC00008F05FF8621C64
:105950008046E7D0DEE700BF10B50446006808B116
:1059600008F056F8204610BD002908B508DB43684A
:10597000994205DA01EB4101006800EBC10008BD66
:105980000A460348034908F0ABF8002008BD00BFF1
:10599000DC1F0020001100204368002B16DD70B5CD
:1059A000002482B0054626462A6804EB44000134F0
:1059B000322302EBC0000096C8220021FFF70EFD43
:1059C0006B68E4B29C42EFDB02B070BD704700BF71
:1059D0004368002B16DD70B5002482B005462646CC
:1059E0002A6804EB44000134322302EBC000009625
:1059F000C8220121FFF7F2FC6B68E4B29C42EFDBA6
:105A000002B070BD704700BF9A421DD8F8B5144669
:105A100006460F46ABB101334268DDB295420DDD5B
:105A2000D5B20BE004EB4400214601343268002378
:105A3000E4B212F830203846FEF7D2FAA542F1D887
:105A4000F8BD4268D5B2E9E7704700BFF8B54368D2
:105A5000002B15DD00240F4606462546336804EB6F
:105A600044000134394603EBC000FFF711FD7368B1
:105A7000E4B2A84288BF01259C42EFDB2846F8BD6E
:105A80000025FBE7704700BF704700BF704700BFAD
:105A9000A0F52570FAE700BF314B70B503F1340271
:105AA000D0F89C4305460360C0F8942234B12046E8
:105AB000FFF752FF2046082107F0ACFF05F5A16073
:105AC00005F5267608F0AAF805F2E44008F0A6F8F5
:105AD00005F2D44008F0A2F805F2BC4008F09EF8A8
:105AE00005F2A44008F09AF805F28C4008F096F808
:105AF00005F2744008F092F805F58B6008F08EF816
:105B000005F5886008F08AF805F5856008F086F8E4
:105B100005F5826008F082F805F57E7008F07EF8E1
:105B200005F5787008F07AF805F5537405F572708C
:105B300008F074F805F56C7008F070F8A64209D00A
:105B4000243C04F1140008F069F8201D08F066F800
:105B5000A642F5D1284600F00DFF284670BD00BFD3
:105B600040110020A0F52570FFF796BF10B5044640
:105B7000FFF792FF4FF4A461204607F04BFF204649
:105B800010BD00BFA0F52570FFF7F0BF2DE9F04173
:105B900086B0044600F0A0FFAB4B04F5277504F572
:105BA000547603F134022360C4F89422002128467D
:105BB00008F074F805F110002435002108F06EF8A3
:105BC000AE42F3D13022002104F5537004F56C7518
:105BD00009F01EF806232846002184F8AC3304F5AA
:105BE0007276C4F8A44304F57878C4F8A84304F5A1
:105BF000826708F053F8954902A808F063F802A9F3
:105C0000284604F57E7508F0EFF802A808F006F8BB
:105C1000D4F8A42307233046C4F8C023002184F815
:105C2000C43308F03BF88A4902A808F04BF802A9EF
:105C3000304604F5856608F0D7F802A807F0EEFFB5
:105C4000D4F8A42310234046C4F8D823002184F8B4
:105C5000DC3308F023F87F4902A808F033F802A9E2
:105C600040464FF02F0808F0BFF802A807F0D6FF13
:105C7000D4F8A42311232846C4F8F023002184F883
:105C8000F43308F00BF8744902A808F01BF802A9D5
:105C9000284604F5886508F0A7F802A807F0BEFFBB
:105CA000D4F8A4231B233846C4F80824002184F820
:105CB0000C3407F0F3FF694902A808F003F802A9C1
:105CC000384604F58B6708F08FF802A807F0A6FFA6
:105CD000D4F8A42325233046C4F82024002184F8D6
:105CE000243407F0DBFF5D4902A807F0EBFF02A9AF
:105CF000304604F2E44608F077F802A807F08EFF79
:105D0000D4F8A43384F83C842846C4F838340021FD
:105D100007F0C4FF524902A807F0D4FF02A92846A1
:105D200004F5A16508F060F802A807F077FFD4F841
:105D3000A43384F854843846C4F85034002107F062
:105D4000ADFF484902A807F0BDFF02A9384608F098
:105D50004BF802A807F062FF0123434A2146C4F82A
:105D6000684404F26C4000921A4601F055F93F482D
:105D7000D4F8681408230122009004F2844001F052
:105D80004BF93B48D4F8681409230122009004F22F
:105D90009C4001F041F93748D4F8681400230322ED
:105DA000009004F2B44001F037F933480123032294
:105DB000D4F86814009004F2CC4001F02DF930467C
:105DC00001F08EFB002128460F4607F067FF2B49A4
:105DD000D4F8900202F050F9642006F06BF920200C
:105DE00007F012FE804604F11001FFF7ADF9C4F888
:105DF000A083082007F008FE80463021FFF77AFDD7
:105E00001F49C4F89C8302A807F048FF02A928464E
:105E10003D4607F0E9FF02A807F000FF3046A4F86E
:105E20001875184907F0F2FFA9B201350122A068E0
:105E3000FEF70EF9032DF7D1134B2046D4F89C231F
:105E40001A6006B0BDE8F0814011002080110020EA
:105E500094110020A0110020B8110020C4110020CE
:105E6000D0110020E0110020440700202C05002064
:105E700034050020F0110020F8110020001200204D
:105E8000101200201C120020C82A002070B584B017
:105E900006460C460021684607F000FFD6F890023F
:105EA00002F076F8D6F89002224902F051FA214623
:105EB000D6F890020A2202F011F986F81A45ECB1E0
:105EC000012C16D100232246B0681946FEF788F847
:105ED000D6F8A0532B7F4BB100242146013428462D
:105EE000FFF712F92B7FE4B2A342F6D8002386F81D
:105EF0001B35684607F092FE04B070BD234622466B
:105F00002146B068FEF76CF8D6F8A0532B7F43B15A
:105F1000214601342846FFF7F7F82B7FE4B2A3426D
:105F2000F6D80123684686F81B3507F077FE04B0E3
:105F300070BD00BF2C12002038B50C4605460E215E
:105F4000184807F0E3FB184807F0A2FD022C06D022
:105F5000042C03D195F81B35D3B938BD38BD95F85D
:105F60001A35002BF9D1D5F88C2292F89C10012912
:105F70000BD013D3022901D182F89C30D5F89002BE
:105F80000A49BDE8384002F0A7B882F89C40F5E71E
:105F900028460221BDE83840FFF778BF012382F888
:105FA0009C30EBE740120020DC1F00205012002044
:105FB0002DE9F04188B017460646334904A81D462E
:105FC0009DF838409DF83C8007F07CFE0A22394657
:105FD000684607F0CFFE694604A807F093FF014624
:105FE000304607F081FE684607F018FE04A807F067
:105FF00015FE0A2DB268314604A894BF521B0A3A16
:1060000008F008F804A9304607F0EEFE04A807F0EF
:1060100005FE377A022F94BF00230123A34202D941
:10602000BD1E002D1EDC032F18D9B8F1000F15D0AE
:106030003D1F03242946304607F090FF03462946BA
:10604000304663F07F02202BA5F10305D2B205D0C4
:10605000033407F08DFFE4B2A742EBD8304608B016
:10606000BDE8F08100242146304607F077FF302854
:10607000D9D12146013420223046E4B207F078FF1E
:10608000AC42D0DAEFE700BF701200202DE9F043F8
:1060900097B00646002106A807F000FE00210AA8D6
:1060A00007F0FCFD00210EA807F0F8FD12A8002162
:1060B00007F0F4FDD6F8A0532B7F4BB10024214606
:1060C00001342846FFF720F82B7FE4B2A342F6D82C
:1060D000354606AF06F130094FF000080823D5F821
:1060E0004C233146CDF804800DEB0300CDF8008041
:1060F000FFF75EFF0C3502A9384607F075FE02A8CF
:1061000007F08CFDA94507F110074FF00004E5D119
:10611000D6F8A003234606AA214601940094FFF76F
:10612000DDF8D6F8A0030AAA214601940C230094B6
:10613000FFF7D4F8D6F8A00323460EAA0194012154
:106140000094FFF7CBF8D6F8A00312AA0C23019411
:1061500001210094FFF7C2F896F87C1302A807F01B
:10616000E1FD049B02AA0121C3F10A03D6F8A003B2
:106170000194DBB20094FFF7B1F802A807F04EFDDE
:1061800012A807F04BFD0EA807F048FD0AA807F07B
:1061900045FD06A807F042FD17B0BDE8F08300BF3B
:1061A00000232DE9F043064689B0242400F5277525
:1061B00000F55479984601278DF80F30D6F88C32C7
:1061C0002146D3F8980002F05DFB0823024645F80B
:1061D000040C314604A80197CDF80080FFF7E8FED3
:1061E00004A9284607F000FE04A807F017FDD6F81A
:1061F0008C32211DD3F8980089B202F003FBD6F847
:106200008C32611D8DF80C00D3F8980089B202F031
:10621000F9FAD6F88C32A11D8DF80D00D3F898004C
:10622000083489B202F0EEFA03A98DF80E0004A832
:1062300007F034FD04A905F11000243507F0D4FD62
:1062400004A807F0EBFC4D45A4B2B7D109B0BDE8F6
:10625000F08300BF70B50646162400F5627521462E
:106260000434D6F88C32A4B2D3F8980002F00AFBBA
:10627000222C45F8040FF2D170BD00BF2DE9F0418A
:10628000074600254FF001080E4E00F56074E9B294
:10629000D7F88C0201F0E8FC00F01F00182806EB8C
:1062A00000030AD8325C1B7F227004F8033C0135DE
:1062B0000134032DEBD1BDE8F08184F8008004F8AF
:1062C000038CF4E7201600602DE9F04305468BB0FF
:1062D0003D490026D0F8900205F52B7401F0CCFE64
:1062E000284600F043FCD5F89C23384B02A83849D7
:1062F00005F5587985F881624FF47A7885F81C6540
:10630000012785F87C631A6007F0DCFC05F5A161C4
:1063100006A807F0E9FC06A902A807F0BDFD06A83B
:1063200007F07CFC334602AA3146D5F88C0201F016
:10633000A1FA85F8836385F8846385F88563C5F8D9
:106340004C63C5F85863C5F86463C5F870632149A8
:1063500006A807F0A3FC06A9204607F045FD06A8FD
:1063600007F05CFC44F8148C08234FF47A72294639
:1063700006A801970097FFF71BFE06A9A4F11000DD
:10638000243407F031FD06A807F048FCA145DED112
:106390000024A1B201340122A868FDF759FE032CA4
:1063A000F7D10123284685F81D35FFF767FF2846FA
:1063B000FFF750FF2846FFF7F3FE02A807F02EFC78
:1063C0000BB0BDE8F08300BF7C120020C82A00207B
:1063D0008C1200209412002038B504460D46D0F8E7
:1063E0008C02012101F040FC94F87C13064BC0F3B1
:1063F000871029441844C9B290F83830994228BF10
:10640000194684F87C1338BD2016006070B590F8EA
:10641000873304465D00EA1800EB8202D2F84C0391
:1064200092F855630144022EC2F84C1305D804EBD0
:106430008600D0F88C03814227D22B4404EB8303DF
:1064400093F856232AB9D3F84C13D4F898229142E2
:1064500000D270BD0126D4F88C02162183F8566351
:1064600001F00CFC05461721D4F88C0201F006FC63
:1064700000EB45012046C9B2FFF7AEFF3246204689
:106480000821BDE8704000F09FBB01361C2182F856
:106490005563D4F88C0201F0F1FB01280CD00121E6
:1064A0002046FFF799FF01220821204600F08CFBCF
:1064B00094F887335D00C0E794F887530023FA22ED
:1064C000082105EB4505204604EB850595F8546346
:1064D000013685F8546300F08DFB94F887335D0036
:1064E000ABE700BF90F8873303EB430300EB830077
:1064F000D0F850331944C0F85013704790F88132E7
:106500008BB170B5154D2C789C420FD1144B1D7872
:10651000ADB90968D0F888228A1AB2F5FA6F14D397
:1065200001221A7070BD0E4A13707047026804464B
:106530001946136A984794F881322B7070BD0D6824
:10654000D0F88832EB1AC72B00D870BD03682146FB
:10655000C0F888521B6ABDE870401847CD2A002059
:10656000CC2A002070B504460D460F4E00F2E440E0
:1065700001F00EF829462046FFF7C0FF2968306871
:10658000FFF764FA00233068A1681A46FFF73CFA67
:106590002968D4F8A003FEF73FFD29462046BDE850
:1065A000704000F0D5BC00BFC82A00204B1E1E2B37
:1065B00070B5064625D801EB41000C4641F28835FE
:1065C000C00007F023FA002100F118030A46013148
:1065D00003F8182C43F8142C18338C4223F8282C79
:1065E00023F8265C23F8242CF1D13060102007F02A
:1065F0000BFA05462146FDF7D1FC75603472304632
:1066000070BD002303600372304670BD38B5044688
:10661000006808B107F0FCF9656835B12846FDF758
:1066200097FC2846102107F0F5F9204638BD00BF39
:10663000F8B501EB41040568E4002E5D2F19964280
:106640000ED02A551B684AB97B6105460C460023CB
:106650004068FDF7C5FC6C720120F8BD3B61F4E7B2
:106660000020F8BDF0B501EB410604680C4F83B083
:1066700004EBC6041E463B681546636046B1002D18
:106680004FF00100A68108BFFA25258103B0F0BDB7
:106690003F6802AB012243F8047DFFF7C9FFEEE734
:1066A000582D0020F0B5057A83B08D421AD901EB40
:1066B00041030668DFF834E00025DB00DEF800C0A7
:1066C000F418F35C9342C4F804C0A581258109D075
:1066D000DEF8004002AB43F8044DFFF7A9FF0120AC
:1066E00003B0F0BD002003B0F0BD00BF582D002066
:1066F00010B4047A8C4203D95DF8044BFFF7B2BFA3
:1067000000205DF8044B704738B5037A5BB105464D
:1067100000242146013400222846FFF7C3FF2B7ACC
:10672000E4B2A342F5D838BD2DE9F047027A002A39
:106730005BD00025894607462E46AE460DE06189AE
:1067400029B1D9F8003020691B1A8B423BD8238924
:1067500053BB01361835B24223DD3C6814F805807E
:106760002C44B8F1000FEAD1A389002BF1D0D9F85D
:1067700000106068091A9942EBD35FFA86FA4B461B
:10678000012238465146FFF753FFA4F80C803A7AAD
:1067900001364FF0010E87F809A0B24205F1180545
:1067A000DBDC7046BDE8F0872469D9F80010091BCE
:1067B0008B42CED25FFA86FA4B46002251463846CB
:1067C000FFF736FFE3E75FFA86FA00224B463846CA
:1067D0005146FFF72DFF2289002AD8D02169D9F828
:1067E00000305B1A9342D2D9E6E79646D9E700BF5C
:1067F000F8B5067A86B1002507462C462E46214676
:1068000001347868E4B2FDF749FC3B7AA840E50022
:106810009D4246EA0006F2DB3046F8BDF0B400F2D5
:106820000B260746002200F203240346354603F1F7
:10683000200104F8012F05F8012F43F8042F8B42A3
:106840004FF00000F9D1B442F1D1FF23B87087F8BE
:10685000140238467B70F0BC704700BF10B5044688
:1068600010F5017001D007F0D3F814F5037001D0D2
:1068700007F0CEF8201D01D007F0CAF8204610BD61
:1068800090F814320133DBB2072B05D900221346EE
:1068900080F814221846704780F814321846704762
:1068A00001F0070100EB010C2DE9F04307469CF8CD
:1068B000040250403ED04D01012401EB8101994674
