:0200000460009A
:100000004643464200000156000000000101020084
:1000100000000000000000000000000000000000E0
:1000200000000000000000000000000000000000D0
:1000300000000000000000000000000000000000C0
:1000400000000000010403000000000000000000A8
:100050000000200000000000000000000000000080
:100060000000000000000000000000000000000090
:100070000000000000000000000000000000000080
:10008000EB04180A063204260000000000000000FD
:10009000050404240000000000000000000000002F
:1000A0000000000000000000000000000000000050
:1000B0000604000000000000000000000000000036
:1000C0000000000000000000000000000000000030
:1000D00020041808000000000000000000000000DC
:1000E0000000000000000000000000000000000010
:1000F0000000000000000000000000000000000000
:10010000D8041808000000000000000000000000F3
:100110000204180804200000000000000000000095
:1001200000000000000000000000000000000000CF
:10013000600400000000000000000000000000005B
:1001400000000000000000000000000000000000AF
:10015000000000000000000000000000000000009F
:10016000000000000000000000000000000000008F
:10017000000000000000000000000000000000007F
:10018000000000000000000000000000000000006F
:10019000000000000000000000000000000000005F
:1001A000000000000000000000000000000000004F
:1001B000000000000000000000000000000000003F
:1001C000000100000010000001000000000000001D
:1001D000000001000000000000000000000000001E
:1001E000000000000000000000000000000000000F
:1001F00000000000000000000000000000000000FF
:10020000FFFFFFFFFFFFFFFFFFFFFFFFFFFFFFFFFE
:10021000FFFFFFFFFFFFFFFFFFFFFFFFFFFFFFFFEE
:10100000D10020402C100060000000000000000013
:1010100020100060001000600000000000000000D0
:1010200000000060405001000000000000000120AE
:1010300035100060744B4FF42A01744A74485A64A6
:101040001864744A99639546734A74498A420FD06A
:10105000734B9A420CD2D4430846234423F0030333
:1010600004330B4450F8041B984242F8041BF9D196
:101070006C4A6D498A420FD06C4B9A420CD2D443D1
:101080000846234423F0030304330B4450F8041BA5
:10109000984242F8041BF9D1654A664B9A420BD23A
:1010A000D04311460024034423F0030304331344C4
:1010B00041F8044B8B42FBD15F4A4FF470015F4B08
:1010C000116003F530715E4A43F8042F9942FBD159
:1010D0005C4B80215C4A03F8011B9342FBD15B4CC3
:1010E0004FF080375A4E4FF0FF32DFF8A4A10025B1
:1010F000DFF8A091DFF8A081564B4349C3F800A068
:10110000C4F80471C4F80091C4F8F470C4F8F08015
:10111000F36923F07F0343F04003F361736A23F024
:101120007F0343F0400373628A66CA660A674A67B0
:1011300000F0B4F8484A6320484B49491060032244
:101140001D60CAF8381043F8082C4649464A4748FB
:10115000C3F8082D0B68464A43F08073CAF83C0078
:1011600044480B601368444943F00103136003686B
:101170000B6000F0F3F8C4F804714048C4F8009123
:10118000C4F8F470C4F8F08000F072FB00BF00BF38
:1011900000BF00BFF16E3A4A41F44051394BF1664D
:1011A0001560C2F80851C2F81851C2F82851C2F8A7
:1011B00038519A6BD20708D442F615623249596504
:1011C0001A659A6B42F001029A632E4A2F4C93687B
:1011D00043F00113936000F043FB2368132BFCD909
:1011E00000F07CF900F0F0F900F04AFB00F0E8F8BC
:1011F00000F02EFB2368B3F5967FFBD300F024FBB1
:1012000000F032FBFEE700BF00C00A40BFAAAAAA56
:10121000070020000080062000000000A0180060E9
:10122000400F010000000020EC2701606028002032
:1012300060280020C052002088ED00E0FC2F002034
:1012400045AA000000E400E0A0E400E000800D40BA
:1012500000C00F4008ED00E014E000E018E000E0FE
:10126000BDBC0000FCED00E000002020C1BD00007E
:10127000001000E0041000E00C2C00200046C32306
:101280000040084000400D400000C056142C0020D3
:10129000003000201B1018200C0D1113F0B51D4A52
:1012A00000211D4B4FF0100E1C4801241C4F1D4EF9
:1012B0001D4D0160C2F800E01F6016601B4F1D60ED
:1012C0001B4E1C4D17601E601B4F15601B4E1C4DA6
:1012D0001F6016601B4F1D601B4E1C4D17601E606B
:1012E0001B4F15601B4E1C4D1F6016601D60046077
:1012F000BFF34F8FBFF36F8FC3F8B011BFF34F8FA2
:10130000BFF36F8F52F8883C43F4403342F8883C77
:10131000F0BD00BF9CED00E0A0ED00E094ED00E02A
:101320002500080311002000210002071200002000
:10133000250008131300202027000B131400004081
:1013400033001013150000602F000B07160000700B
:1013500035000B07170000702F000B03F0B4174A7D
:1013600040274FF480314FF480564FF400554FF42E
:10137000404443F24200136913F0020F06D0946117
:1013800051619061136913F0020FF8D113F4005FFB
:1013900001D15561EFE713F4805F01D15661EAE7AF
:1013A000002BE8DA13F4803F01D09161E3E75B069C
:1013B00001D45761DFE7F0BC704700BF00800D40EB
:1013C0003B4AF3EE096A3B4900201368F0B523F06D
:1013D00001030324DFF800E11360C2F89040D1F864
:1013E000E030354FDDB2C3F30B24344EC4EB13535E
:1013F00007EE905AA5F15501CEF80050B8EEE77A05
:1014000003EB830507EE904A03FB01F13B6003EB1E
:101410008313B8EEE75A07EE901A491B77EE666A17
:10142000B8EE677A264D07EE901A0B44C5ED006AB8
:10143000F8EE677A3460C7EE265A224E15682249C4
:10144000224C87EEA66A07EE903A214BC6F840314F
:10145000F8EE677A87EEA67A75EE855A76EE056A1B
:10146000FCEEE55AFCEEE66A15EE903A45EA0353C7
:1014700016EE905A77EE057A136001EA0541D2F82C
:101480001031FCEEE77A0B43C2F8103117EE903AB8
:10149000D2F81011C3F30B030B43C2F810311368D9
:1014A00043F00203136020700A4B01221A60F0BD62
:1014B00080810D4000441F40402C0020442C00201F
:1014C0003C2C0020003000200000FF0F40E400E032
:1014D00021AB000008E100E0382C0020304B40F642
:1014E000617270B5C3F8202140F2044500F0A8F9FC
:1014F0002C492D48D1F880202C4C42F003022C4B73
:10150000C1F88020C0F86051226813401BB9D0F8A0
:10151000A8319A071AD0244B4FF00041234A516357
:101520001A46D3F8401141F00201C3F84011D2F835
:1015300040319B07FBD44FF400301E491B4B4FF04A
:101540000042086019209A6300F086F91A4D0022C3
:10155000164B4FF08041144C0A26996328461A60B6
:101560001146C4F8A8614FF4207200F085F94FF4D9
:1015700081064FF4800040F24313104A10492E6058
:101580002864C4F85851C2F80412C4F848310D4A0E
:101590004FF4003101231160C4F8403170BD00BF29
:1015A00000800D4000C00F4000002E4000900D4014
:1015B000001C1E008CE200E00050002000300020E3
:1015C0007DAC00000CE100E0114B1249D86E0A46D8
:1015D00040F4403030B4D86640F2B765D86EA024ED
:1015E00040F44070D8664D648C64936C1B06FCD448
:1015F000094B40F2B760A0211A4658649964936C75
:1016000013F08003FBD1054A137030BC704700BF54
:1016100000C00F4000400C4000800C407E2E002097
:101620000102030405060708090A0102030405066E
:101630000708090A0102010301000000010101017C
:101640000101010101010202020202020202020280
:101650000303040405000000080A0F14008040C0C2
:1016600020A060E0109050D030B070F0088848C8DA
:1016700028A868E8189858D838B878F8048444C47A
:1016800024A464E4149454D434B474F40C8C4CCC7A
:101690002CAC6CEC1C9C5CDC3CBC7CFC028242C232
:1016A00022A262E2129252D232B272F20A8A4ACA7A
:1016B0002AAA6AEA1A9A5ADA3ABA7AFA068646C61A
:1016C00026A666E6169656D636B676F60E8E4ECE1A
:1016D0002EAE6EEE1E9E5EDE3EBE7EFE018141C1DE
:1016E00021A161E1119151D131B171F1098949C94A
:1016F00029A969E9199959D939B979F9058545C5EA
:1017000025A565E5159555D535B575F50D8D4DCDE9
:101710002DAD6DED1D9D5DDD3DBD7DFD038343C3A1
:1017200023A363E3139353D333B373F30B8B4BCBE9
:101730002BAB6BEB1B9B5BDB3BBB7BFB078747C789
:1017400027A767E7179757D737B777F70F8F4FCF89
:101750002FAF6FEF1F9F5FDF3FBF7FFF7C3C3E5E81
:101760002B3D3F2F5B5D3B2C2A225C00160355006E
:1017700053004200200053006500720069006100C0
:101780006C00000018035400650065006E007300D3
:1017900079006400750069006E006F00040309049D
:1017A00009024300020100C03209040000010202E4
:1017B0000100052400100105240101010424020692
:1017C000052406000107058203100010090401002A
:1017D000020A00000007050302400000070584021A
:1017E0004000000009024300020100C03209040069
:1017F000000102020100052400100105240101017D
:1018000004240206052406000107058203100010C7
:1018100009040100020A000000070503020002009B
:1018200007058402000200000A06000202000040D0
:101830000100FFFFF8B500BFF8BC08BC9E4670472A
:101840005FF800F061B400005FF800F051C80000DC
:101850005FF800F061AA00005FF800F09DA40000AE
:101860005FF800F05DAA00005FF800F0E1BD000045
:101870005FF800F0D9A100005FF800F0F1CF0000A0
:101880005FF800F045C50000450000008504000039
:10189000B56C0000357A0000297E0000F18C000054
:1018A0000000000000000000000000000000000038
:1018B0000000000000000000000000000000000028
:1018C00010B5054C237833B9044B13B10448AFF37A
:1018D00000800123237010BD60280020000000005C
:1018E000440F0100084B10B51BB108490848AFF37D
:1018F00000800848036803B910BD074B002BFBD0DC
:10190000BDE81040184700BF000000006428002018
:10191000440F0100602800200000000038B5054693
:10192000114805F005FE022818D0032804460FD000
:10193000012807D000210D4B2A461868BDE8384021
:1019400005F0A0B80A490B4806F002FA0221F2E7B6
:101950000949084806F0FCF92146ECE70749054823
:1019600006F0F6F90121E6E780280020842900200E
:101970001400002020290020000000202800002062
:101980002DE9F843364E0024364B3046DFF82C81E3
:101990001C8005F061FE012306F1A00086F8BE4020
:1019A00086F89C30A6F8BC4006F0BEFA2E4906F137
:1019B000A00006F09DF94FF462600BF069FE31461D
:1019C000044600F061FB294B06F1A00028491C6089
:1019D000C8F8004006F08CF988200BF059FE254A23
:1019E000254B0446254900F14005026000F18007BF
:1019F000234A4360234B8160C2602349234A036129
:101A0000234B416182612349234AC361234B016215
:101A100042622349234A8362D8F80090224BC16274
:101A2000026343632846103500210BF077FFBD4267
:101A3000F8D11E4B1E491F48A663C4F83C901C6099
:101A400006F056F9D8F800000368DB6998471A4B8E
:101A5000002218481A60BDE8F84306F065BA00BFD6
:101A6000802800207C2800204000002078290020C9
:101A70005800002070000020780000208400002022
:101A8000940000209C000020A8000020B00000204E
:101A9000BC000020C0000020D0000020D8000020A2
:101AA000DC000020E0000020E80000207C2900206D
:101AB000F000002020290020742900208429002023
:101AC0000128F8B530D01FD302281CD1254E31781B
:101AD00005293CD98D1F0B1F0024ED00B5EB830FAA
:101AE00015DA214F3B686400A9B201359868E4B269
:101AF00002F042FA08B144F0010431780B1FB5EB53
:101B0000830FEFDB03E0F8BD164E00243178174851
:101B10004B1C2246D0F88400337005F0C5FF3378A3
:101B200003F007033370F8BD0F4B0E4E1868317881
:101B3000543004F0D7FC317804460729E7D10C4B28
:101B40009B68DB060BD540F00104E4B2DFE7064BEF
:101B50001B68986802F008FA31780446D7E700F06D
:101B6000FE04D4E780290020782900208028002066
:101B700000C000420A4B10B5044693F89C00FFF7E2
:101B80009FFF2368DB0602D12046FFF7C7FE054B07
:101B9000214618680368BDE810401B6A184700BF5B
:101BA000802800208429002010B588B00BF08CFB21
:101BB000002818DD782268460D490BF039FE0D4BE0
:101BC000694604A81C680BF0CFFE04A9204602F069
:101BD00055FA044604A80BF061FE68460BF05EFE61
:101BE000204608B010BD0024204608B010BD00BF3C
:101BF000A41E00207C2900202DE9F04F3C4985B02F
:101C00003C48002506F008FA3B4B0A22394819885F
:101C10002E463A4F06F002FA3949364806F098F84F
:101C2000DFF8FC80FFF7C0FFDFF8DC90D7F800B0EA
:101C3000AE46344CDFF8D4A02068CEF57A71D8F8DF
:101C40000030AAFB03239B0C03FB01F123681B1A42
:101C50009942FBD83868D9F800102B4B8842039082
:101C6000009310D00AF0D0F8019004A8009B50F81F
:101C7000042D1A60FFF77EFF0AF0C6F80199C1EB48
:101C8000000E03997644CBEB01010135B1F57A7F63
:101C9000D2D364231D490A22164803FB06F3A1FB95
:101CA0000331C1F3874106F0B9F91949114806F02B
:101CB000B3F90A2229460F4806F0B0F915490D4834
:101CC00006F046F814490B4806F0A6F931460A22F8
:101CD000084806F0A3F91149064806F039F8064B02
:101CE000054A1B880133138005B0BDE8F08F00BFA3
:101CF000FC000020202900207C280020142C00203B
:101D0000F8000020041000E07429002083DE1B434B
:101D1000040100200C010020180100201C010020FB
:101D2000701E002010B5054C204605F0EDFA204647
:101D3000034A0449BDE810400CF0C4B980280020D3
:101D4000141E0020655B0000704700BF704700BF95
:101D5000BE4B70B503F13002D0F86C5504460360F9
:101D6000C0F8942235B128460BF098FD28461C2176
:101D70000BF094FCD4F8705535B128460BF08EFD6D
:101D800028461C210BF08AFCD4F8745535B128463E
:101D90000BF084FD28461C210BF080FCD4F878550C
:101DA00035B128460BF07AFD28461C210BF076FC55
:101DB000D4F87C5535B128460BF070FD28461C211F
:101DC0000BF06CFCD4F8805535B128460BF066FD5D
:101DD00028461C210BF062FCD4F8845535B1284606
:101DE0000BF05CFD28461C210BF058FCD4F88855FC
:101DF00035B128460BF052FD28461C210BF04EFC55
:101E0000D4F88C5535B128460BF048FD28461C21E6
:101E10000BF044FCD4F8905535B128460BF03EFD4C
:101E200028461C210BF03AFCD4F8945535B12846CD
:101E30000BF034FD28461C210BF030FCD4F89855EB
:101E400035B128460BF02AFD28461C210BF026FC54
:101E5000D4F89C5535B128460BF020FD28461C21AE
:101E60000BF01CFCD4F8A05535B128460BF016FD3C
:101E700028461C210BF012FCD4F8A45535B1284695
:101E80000BF00CFD28461C210BF008FCD4F8A855DB
:101E900035B128460BF002FD28461C210BF0FEFB55
:101EA00004F2AC5004F6CC050BF0F6FB04F55D60D3
:101EB0000BF0F4FC04F6B8500BF0F0FC04F55A609B
:101EC0000BF0ECFC04F688500BF0E8FC04F55760CE
:101ED0000BF0E4FC04F658500BF0E0FC04F5546001
:101EE0000BF0DCFC04F628500BF0D8FC04F5516034
:101EF0000BF0D4FC04F6F8400BF0D0FC04F6DC4008
:101F00000BF0CCFC04F6C4400BF0C8FC04F6AC406B
:101F10000BF0C4FC04F694400BF0C0FC04F67C40CB
:101F20000BF0BCFC04F664400BF0B8FC04F64C402B
:101F30000BF0B4FC04F634400BF0B0FC04F61C408B
:101F40000BF0ACFC04F604400BF0A8FC04F6EC30FB
:101F50000BF0A4FC04F6D4300BF0A0FC04F6BC306B
:101F60000BF09CFC04F6A4300BF098FC04F68C30CB
:101F70000BF094FC04F674300BF090FC04F65C302B
:101F80000BF08CFC04F644300BF088FC04F62C308B
:101F90000BF084FC04F614300BF080FC04F6FC20FB
:101FA0000BF07CFC04F6E4200BF078FC04F6CC206B
:101FB0000BF074FC04F6B4200BF070FC04F69C20CB
:101FC0000BF06CFC04F684200BF068FC04F66C202B
:101FD0000BF064FC04F654200BF060FC04F63C208B
:101FE0000BF05CFC04F624200BF058FC04F60C20EB
:101FF0000BF054FC04F6F4100BF050FC04F6DC106B
:102000000BF04CFC04F6C4100BF048FC04F66C1604
:1020100004F6AC100BF042FC04F694100BF03EFCFE
:10202000B54205D0103E30460BF038FCB542F9D130
:1020300004F2CC56103D28460BF030FCAE42F9D1EC
:10204000204603F0A9FB204670BD00BF580A0020BF
:10205000A0F52570FFF77CBE10B50446FFF778FEAB
:102060004FF4626120460BF019FB204610BD00BF03
:10207000A0F52570FFF7F0BF90F81B3503B9704746
:10208000022103F0B7BD00BF2DE9F04FD84F89B052
:10209000044603F02FFC3D46D64BD74A40F2C921F7
:1020A00003F1300E55F8240BD44E04F69419236036
:1020B00004F6C41AC4F894E2C4F82825C4F83C0510
:1020C00004F2CC50C4F8206504F66C16C4F824154C
:1020D000CB490BF037FCCB4904F2DC50DFF80C8421
:1020E0000BF030FCC84904F2EC500BF02BFCC74954
:1020F00004F2FC500BF026FCC54904F20C600BF016
:1021000021FCC44904F21C600BF01CFCC24904F21F
:102110002C600BF017FCC14904F23C600BF012FC80
:10212000BF4904F24C600BF00DFCBE4904F25C6048
:102130000BF008FCBC4904F26C600BF003FCBB49DB
:1021400004F27C600BF0FEFBB94904F28C600BF0EA
:10215000F9FBB84904F29C600BF0F4FBB64904F2B9
:10216000AC600BF0EFFBB54904F2BC600BF0EAFB8E
:10217000B34904F2CC600BF0E5FBB24904F2DC6039
:102180000BF0E0FBB04904F2EC600BF0DBFBAF4975
:1021900004F2FC600BF0D6FBAD4904F20C700BF0BE
:1021A000D1FBAC4904F21C700BF0CCFBAA4904F241
:1021B0002C700BF0C7FBA94904F23C700BF0C2FB7A
:1021C000A74904F24C700BF0BDFBA64904F25C7009
:1021D0000BF0B8FBA44904F26C700BF0B3FB9A4906
:1021E00004F27C700BF0AEFBA04904F28C700BF093
:1021F000A9FB9F4904F29C700BF0A4FB9D4904F2DB
:10220000AC700BF09FFB9C4904F2BC700BF09AFB86
:102210009A4904F2CC700BF095FB994904F2DC70FA
:102220000BF090FB974904F2EC700BF08BFB964996
:1022300004F2FC700BF086FB944904F60C000BF0E2
:1022400081FB934904F61C000BF07CFB914904F6DA
:102250002C000BF077FB904904F63C000BF072FB6E
:102260008E4904F64C000BF06DFB8D4904F65C00C2
:102270000BF068FB8B4904F66C000BF063FB8A499A
:1022800004F67C000BF05EFB884904F68C000BF032
:1022900059FB874904F69C000BF054FB854904F672
:1022A000AC000BF04FFB844904F6BC000BF04AFB7A
:1022B000824904F6CC000BF045FB814904F6DC00B2
:1022C0000BF040FB414604F6EC000BF03BFB7D4974
:1022D00004F6FC000BF036FB7B4904F60C100BF007
:1022E00031FB7A4904F61C100BF02CFB784904F6FC
:1022F0002C100BF027FB774904F63C100BF022FB67
:10230000754904F64C100BF01DFB744904F65C1083
:102310000BF018FBBE46BC4664375EF8040F5CF851
:1023200018BFDEF80410DEF80820DEF80C30BEF826
:1023300010E00FC6DCF804101A239CF80820484669
:10234000A6F800E004F6DC1684F8862984F89039B3
:10235000C4F87EB904F6AC1BC4F882190021C4F895
:102360008849C4F88C490BF0D9FA5D4904A80BF0F0
:10237000E9FA04A9484604F6F4190BF075FB04A821
:102380000BF08CFAD4F888291E235846C4F8A429E7
:10239000002184F8A8390BF0C1FA524904A80BF0C7
:1023A000D1FA04A9584604F60C2B0BF05DFB04A8E7
:1023B0000BF074FAD4F888291F235046C4F8BC29BE
:1023C000002184F8C0390BF0A9FA474904A80BF0A2
:1023D000B9FA04A9504604F6242A0BF045FB04A8D8
:1023E0000BF05CFAD4F888292023304680E000BF47
:1023F0002C010020580A00209C01002090010020A0
:10240000A8010020B4010020C0010020D00100205C
:10241000DC010020E8010020F80100200802002073
:10242000180200202C020020400200205002002050
:1024300060020020680200207C020020940200203C
:10244000A0020020B4020020D4020020E8020020F4
:10245000F0020020080300201C0300202C030020B1
:102460003C0300204C0300205C030020700300208C
:10247000800300208C03002098030020A403002088
:10248000B0030020BC030020C8030020D4030020B8
:10249000E0030020EC030020FC0300200C040020DB
:1024A0001C0400202C0400203C0400204C040020CC
:1024B0005C0400206C0400207C04002090040020B8
:1024C00020070020A8040020BC040020D404002021
:1024D000E4040020F004002008050020100500207E
:1024E00018050020280500203C0500209804002045
:1024F000C4F8D429002184F8D8390BF00FFAD9494F
:1025000004A80BF01FFA04A9304604F63C260BF091
:10251000ABFA04A80BF0C2F9D4F888292123484665
:10252000C4F8EC29002184F8F0390BF0F7F9CE4912
:1025300004A80BF007FA04A9484604F654290BF046
:1025400093FA04A80BF0AAF9D4F888292223584654
:10255000C4F8042A002184F8083A0BF0DFF9C349D3
:1025600004A80BF0EFF904A9584604F66C2B0BF005
:102570007BFA04A80BF092F9D4F88829232350465B
:10258000C4F81C2A002184F8203A0BF0C7F9B84996
:1025900004A80BF0D7F904A9504604F6842A0BF0DE
:1025A00063FA04A80BF07AF9D4F88829242330467A
:1025B000C4F8342A002184F8383A0BF0AFF9AD4959
:1025C00004A80BF0BFF904A9304604F69C260BF0D2
:1025D0004BFA04A80BF062F9D4F88829282348465E
:1025E000C4F84C2A002184F8503A0BF097F9A2491C
:1025F00004A80BF0A7F904A9484604F6B4290BF087
:1026000033FA04A80BF04AF9D4F88829292358464C
:10261000C4F8642A002184F8683A0BF07FF99749DE
:1026200004A80BF08FF904A9584604F6CC2B0BF044
:102630001BFA04A80BF032F9D4F888292A23504653
:10264000C4F87C2A002184F8803A0BF067F98C49A1
:1026500004A80BF077F904A9504604F6E42A0BF01D
:1026600003FA04A80BF01AF9D4F888292B23304672
:10267000C4F8942A002184F8983A0BF04FF9814964
:1026800004A80BF05FF904A9304604F6FC260BF011
:10269000EBF904A80BF002F9D4F888292C2348465A
:1026A000C4F8AC2A002184F8B03A0BF037F9764927
:1026B00004A80BF047F904A9484604F614390BF0B6
:1026C000D3F904A80BF0EAF8D4F888292D2358464A
:1026D000C4F8C42A002184F8C83A0BF01FF96B49EA
:1026E00004A80BF02FF904A9584604F62C3B0BF074
:1026F000BBF904A80BF0D2F8D4F888292E23504651
:10270000C4F8DC2A002184F8E03A0BF007F94146CE
:1027100004A80BF017F904A9504604F6443A0BF04C
:10272000A3F904A80BF0BAF8D4F88829322330466C
:10273000C4F8F42A002184F8F83A0BF0EFF8544971
:1027400004A80BF0FFF804A9304604F65C360BF041
:102750008BF904A80BF0A2F8D4F888293323484653
:10276000C4F80C2B002184F8103B0BF0D7F8494932
:1027700004A80BF0E7F804A9484604F674390BF0F6
:1027800073F904A80BF08AF8D4F888293423584642
:10279000C4F8242B002184F8283B0BF0BFF83E49F5
:1027A00004A80BF0CFF804A9584604F68C3B0BF0B4
:1027B0005BF904A80BF072F8D4F888293523504649
:1027C000C4F83C2B002184F8403B0BF0A7F83349B8
:1027D00004A80BF0B7F804A9504604F6A43A0BF08D
:1027E00043F904A80BF05AF8D4F888293623304668
:1027F000C4F8542B002184F8583B0BF08FF828497B
:1028000004A80BF09FF804A9304604F6BC360BF080
:102810002BF904A80BF042F8D4F88829372348464E
:10282000C4F86C2B002184F8703B0BF077F81D493D
:1028300004A80BF087F804A9484604F6D4390BF035
:1028400013F904A80BF02AF8D4F88829382358463D
:10285000C4F8842B002184F8883B0BF05FF8124900
:1028600004A823E05005002060050020700500202A
:102870008C0500209C050020AC050020BC05002034
:10288000D0050020E4050020F805002014060020F3
:102890002C0600203C060020500600206406002084
:1028A0007806002088060020D40400200BF04AF8A7
:1028B00004A9584604F6EC3B0BF0D6F804A80AF03D
:1028C000EDFFD4F888293C235046C4F89C2B002106
:1028D00084F8A03B0BF022F8D24904A80BF032F8A0
:1028E00004A9504604F6044A0BF0BEF804A80AF006
:1028F000D5FFD4F888293D233046C4F8B42B0021F5
:1029000084F8B83B0BF00AF8C74904A80BF01AF892
:1029100004A9304604F61C460BF0A6F804A80AF0F9
:10292000BDFFD4F888293E234846C4F8CC2B0021AB
:1029300084F8D03B0AF0F2FFBC4904A80BF002F87F
:1029400004A9484604F634490BF08EF804A80AF0AE
:10295000A5FFD4F888293F235846C4F8E42B00216A
:1029600084F8E83B0AF0DAFFB14904A80AF0EAFF6C
:1029700004A9584604F64C4B0BF076F804A80AF06C
:102980008DFFD4F8882940235046C4F8FC2B002141
:1029900084F8003C0AF0C2FFA64904A80AF0D2FF5E
:1029A00004A9504604F6644A0BF05EF804A80AF045
:1029B00075FFD4F8882941233046C4F8142C00212F
:1029C00084F8183C0AF0AAFF9B4904A80AF0BAFF51
:1029D00004A9304604F67C460BF046F804A80AF039
:1029E0005DFFD4F8882942234846C4F82C2C0021E6
:1029F00084F8303C0AF092FF904904A80AF0A2FF44
:102A000004A9484604F694490BF02EF804A80AF0ED
:102A100045FFD4F8882946235846C4F8442C0021A1
:102A200084F8483C0AF07AFF854904A80AF08AFF36
:102A300004A9584604F6AC4B0BF016F804A80AF0AB
:102A40002DFFD4F8882947235046C4F85C2C002178
:102A500084F8603C0AF062FF7A4904A80AF072FF29
:102A600004A9504604F6C44A0AF0FEFF04A80AF07E
:102A700015FFD4F8882948233046C4F8742C002167
:102A800084F8783C0AF04AFF6F4904A80AF05AFF1C
:102A900004A9304604F6DC460AF0E6FF04A80AF072
:102AA000FDFED4F8882949230021C4F88C2C48461F
:102AB00084F8903C0AF032FF644904A80AF042FF0F
:102AC00004A948460AF0D0FF04A80AF0E7FED4F8AB
:102AD00088294A230021C4F8A42C584684F8A83C2D
:102AE0000AF01CFF5A4904A80AF02CFF04A9584612
:102AF0000AF0BAFF04A80AF0D1FED4F888294B23C3
:102B00000021C4F8BC2C504684F8C03C0AF006FFF3
:102B1000504904A80AF016FF04A950460AF0A4FF81
:102B200004A80AF0BBFED4F888294C230021C4F87D
:102B3000D42C304684F8D83C0AF0F0FE464904A86C
:102B40000AF000FF04A930460AF08EFF04A80AF03C
:102B5000A5FECDF80080214602230122C4F8EC4CEA
:102B600004F54F6004F0AAF83C4BD4F8EC1C0122A9
:102B7000009304F60850032304F0A0F8384BD4F86F
:102B8000EC1C0122009304F55260042304F096F833
:102B9000344BD4F8EC1C0122009304F63850052382
:102BA00004F08CF8304BD4F8EC1C0122009304F5AF
:102BB0005560062304F082F82C4BD4F8EC1C01225B
:102BC000009304F66850072304F078F8284AD4F8F4
:102BD000EC1C0223009204F55860032204F06EF806
:102BE000244AD4F8EC1C0C23009204F698500322DB
:102BF00004F064F8204AD4F8EC1C0D23009204F58C
:102C00005B60032204F05AF81C4AD4F8EC1C04F66A
:102C1000C85000920E23032204F050F804F55E6EB3
:102C20002EE000BFA0060020B0060020C406002051
:102C3000D8060020F4060020040700201C0700200E
:102C400028070020380700204C07002060070020DC
:102C50007C0700208C07002020070020A80400200B
:102C6000BC040020D4040020E4040020F004002070
:102C7000A4070020B4070020BC070020C8070020DC
:102C80002868103555F80C1C764655F8082C0EF1BE
:102C9000100E55F8043CBD420FC6F1D1C6494FF0A5
:102CA0000008D4F890024FF0FF3505F021F86420B9
:102CB00009F044F8D4F8281504A820270AF02EFEBD
:102CC00004A904F5A1604FF02C0A0AF0CDFE04A877
:102CD0000AF0E4FDD4F8243584F87D821C20A4F8A1
:102CE00018350AF0D5FC0722064601950623009206
:102CF000B249052202F082FAC4F86C651C200AF081
:102D0000C7FC0646009509230822AD4902F076FA71
:102D1000C4F870651C200AF0BBFC009506460B2326
:102D20000A22A84902F06AFA1C20C4F87465064613
:102D30000AF0AEFC19221821814602951723019250
:102D400000911622A04902F059FAC4F8789530464D
:102D50000AF09EFC21221F21814603951E23029228
:102D60001D2200910197994902F048FAC4F87C9518
:102D700030460AF08DFC252224218146029523232A
:102D8000019222220091924902F038FAC4F880950B
:102D900030460AF07DFC292228218146029527230E
:102DA0000192262200918B4902F028FAC4F88495FA
:102DB00030460AF06DFC2D22814602952B230192AC
:102DC000CDF800A02A22844902F018FAC4F88895A8
:102DD00030460AF05DFC814600952E2311227F4982
:102DE00002F00CFAC4F88C95304604F525790AF007
:102DF0004FFC834601951B2300961A22784902F066
:102E0000FDF9C4F890B530460AF042FC152283461D
:102E1000029500961B2301921A22724902F0EEF9E4
:102E2000C4F894B530460AF033FC09220B218346DE
:102E300002950A230192082200916B4902F0DEF903
:102E4000C4F898B530460AF023FC2D23834602953A
:102E500001930F221423CDF800A0644904F2E44A40
:102E600002F0CCF9C4F89CB530460AF011FC1F23DF
:102E70008346029500931D221E235D49019702F0AF
:102E8000BDF9C4F8A0B530460AF002FC2B22072396
:102E9000834602950093062301920522554902F0CC
:102EA000ADF9C4F8A4B530460AF0F2FB2A2221237A
:102EB000029500920322019311234F49064602F026
:102EC0009DF9D4F89435D4F880153846C4F8B43553
:102ED000D4F89C35D4F87825C4F8BC35D4F8A0359E
:102EE000D4F89855C4F8C035D4F8A435C4F8A8650A
:102EF000C4F8C8650126C4F8AC15C4F8B025C4F8F8
:102F0000B855C4F8C4350AF0C3FB054649463B4BE7
:102F10004FF4FA62CDF8008004F0A8F9C4F84C55DB
:102F200038460AF0B5FB05464946354BC82200969F
:102F300004F09CF9C4F8505538460AF0A9FB054640
:102F4000304B4FF4FA724946CDF8008004F08EF908
:102F50004146C4F85455284604F0BCF938460AF0F6
:102F600097FB0546284B4FF47A724946CDF800800E
:102F700004F07CF9D4F84C15C4F85855504604F0C8
:102F800057F9D4F85015C4F85C05504604F050F9D0
:102F9000D4F85415C4F86005504604F049F9D4F843
:102FA0005815C4F86405504604F042F9C4F86805A1
:102FB000204609B0BDE8F08FD4070020E8070020C4
:102FC000F407002000080020080800201008002056
:102FD00018080020200800202808002034080020BD
:102FE000400800204C080020540800205C08002005
:102FF000640800206C080020740800207C08002071
:103000008C08002098080020A808002070B504460D
:103010000025D0F84C0504F069F9D4F84C054FF4BC
:10302000FA6104F055F92946D4F8900584F837552B
:1030300002F0D8F92B462046FA220621BDE870405E
:1030400003F0E6BB10B5044690F835150122D0F820
:10305000800502F037F994F83515032900D910BD21
:103060004B1CD4F88005022284F83535BDE81040A9
:1030700002F028B9F8B504460D46D0F890023D4953
:1030800004F066FE94F81D35B3B141F28831204654
:1030900003F036F84FF47A71204603F09DF894F867
:1030A0003715B9B1012606FA05F52943C9B20F292A
:1030B00084F8371520D0F8BD40F6B831204603F02B
:1030C0001FF84FF47A71204603F086F894F837150C
:1030D0000029E7D10222D4F8900502F0F3F84FF46A
:1030E000FA61D4F84C0504F0F3F8D4F84C0504F078
:1030F000F5F894F83715D5E70221D4F8900502F0D9
:103100003DF9054688B14EF660220221D4F87405D7
:1031100002F0D2F900220221D4F8900502F0D2F890
:103120002046BDE8F840FFF771BF3146D4F890055E
:1031300002F024F9074690B90146D4F8900502F050
:103140001DF90028ECD0204642F2107102F0D8FFA1
:103150003A463946D4F8900502F0B4F8E0E7204644
:10316000054902F0CDFF2A463146D4F8900502F019
:10317000A9F8D5E7B8080020A086010038B50446B4
:103180000D46D0F890021E4904F0E2FD94F81D357A
:10319000F3B140F6B831204602F0B2FF4FF47A7135
:1031A000204603F019F82946D4F8800502F0D4F837
:1031B000022813D029466422D4F8800502F0AEF824
:1031C000D4F834150F4B104A0B4093420FD038BD42
:1031D0004FF47A71204602F093FFDFE72046FFF7B5
:1031E00031FF42F21071204602F08AFFE8E7012227
:1031F000D4F86C051146BDE8384002F063B800BF52
:10320000C808002000FFFF000004050038B5044690
:103210000D46D0F890021E4904F09AFD94F81D3531
:10322000F3B140F6B831204602F06AFF4FF47A71EC
:10323000204602F0D1FF2946D4F87C0502F08CF834
:10324000022813D029466422D4F8800502F066F8DB
:10325000D4F834150F4B104A0B4093420FD038BDB1
:103260004FF47A71204602F04BFFDFE72046FFF76C
:10327000E9FE42F21071204602F042FFE8E7012227
:10328000D4F86C051146BDE8384002F01BB800BF09
:10329000D808002000FFFF000004050038B50446F0
:1032A0000D46D0F89002294904F052FD94F81D35DE
:1032B000D3B141F28831204602F022FF4FF47A71F7
:1032C000204602F089FF2946D4F8880502F044F828
:1032D000012821D002280DD02946D4F888050122E2
:1032E000BDE8384001F0EEBF40F6B831204602F0AC
:1032F00007FFE3E729460022D4F8880501F0E2FF42
:10330000012194F8333501FA05F51D43EDB20F2D77
:1033100084F8335508D038BD2946D4F888050222F0
:10332000BDE8384001F0CEBFD4F86C0502F088F853
:1033300094F832352BB9FF2803D0002384F83335B5
:1033400038BD0349204602F0DBFEF6E7E80800201E
:10335000A086010070B504460D46D0F890022F49B2
:1033600004F0F6FC94F81D355BB340F6B831204606
:1033700002F0C6FE4FF47A71204602F02DFF012DB7
:103380002BD02946D4F86C0501F0F8FFC0B100221B
:103390002946D4F86C0501F095FF0021D4F870059A
:1033A00002F020F894F88733012103EB430304EB88
:1033B000830393F854230A4483F8542384F8321582
:1033C00070BD4FF47A71204602F09AFE4FF47A7184
:1033D000204602F001FF012DD3D1114E1221306899
:1033E00002F042F943789BB93068132102F03CF9AE
:1033F0004378002BC5D094F838150229C1D84B1C4E
:10340000D4F88405012284F8383501F05BFFB8E771
:103410000449204602F074FEE6E700BFF8080020E9
:1034200088290020A086010010B5044682B0194901
:10343000D0F8900204F08CFC94F81D35C3B141F231
:103440008831204602F05CFE94F82D35CBB1124B4A
:103450000F21186802F008F900213223C8220091D8
:10346000022101F04FFE012384F82D3502B010BD7A
:1034700040F6B831204602F043FE94F82D35002B7B
:10348000E5D10122D4F86C05114602B0BDE8104028
:1034900001F018BF080900208829002010B5044653
:1034A0000549D0F8900204F053FC204646F2A811DA
:1034B000BDE8104002F024BE1809002010B50446F3
:1034C0000A49D0F8900204F043FC204646F2A811C5
:1034D00002F016FE064B0F21186802F0C5F843787B
:1034E00013B1012384F82F3510BD00BF2809002037
:1034F0008829002010B504460849D0F8900204F04D
:1035000027FC204646F2A81102F0FAFD20464FF4AF
:103510007A71BDE8104002F05FBE00BF34090020A0
:1035200010B504460F49D0F8900204F011FC94F84D
:103530001D355BB9204640F6B83102F0E1FD20466A
:103540004FF47A71BDE8104002F046BE204641F2C9
:10355000883102F0D5FD20464FF47A71BDE8104065
:1035600002F03ABE4409002010B504460F49D0F8D5
:10357000900204F0EDFB94F81D355BB9204640F64F
:10358000B83102F0BDFD20464FF47A71BDE810401D
:1035900002F022BE204641F2883102F0B1FD204601
:1035A0004FF47A71BDE8104002F016BE58090020B1
:1035B00010B504460949D0F8900204F0C9FB204632
:1035C0004FF47A7102F09CFDD4F8740501F084FF89
:1035D000D4F86C05BDE8104001F07EBF64090020FE
:1035E00010B504460549D0F8900204F0B1FB20461E
:1035F00041F28831BDE8104002F082BD7009002020
:10360000CB1001F0070103EB830370B501EB43011D
:1036100090F81A55064601F0FF047DB3012D2CD118
:10362000B0F89833B0F83A25934206D390F838159D
:103630009B1A0229A0F898332FD9A4F11A03322B30
:1036400022D8DFE803F033212121383D4B555A21A0
:1036500021212121683D76555A848D212121683D03
:10366000765592A0A9212121683D76B392A021210F
:103670002121683D76B39284AE0070BD2F2C03D11A
:1036800012B190F87C3303B970BD013B012180F881
:103690007C33BDE8704002F0ADBA4B1CD0F8840515
:1036A0002A4686F8383501F00DFEC6E73046BDE8FB
:1036B0007040FFF795BF3046BDE87040FFF71ABF76
:1036C000A4F11F013B4B304683FB0123C917C1EB1B
:1036D000A301BDE87040C9B2FFF798BD30461E2176
:1036E00002F00EFDD6F87405BDE8704001F0F4BE9E
:1036F0003046BDE87040FFF75BBFA4F122012D4BBF
:10370000304683FB0123C917C1EBA301BDE870401C
:10371000C9B2FFF7C3BDA4F12801264B304683FB95
:103720000123C917C1EBA301BDE87040C9B2FFF77F
:10373000A1BCA4F12A011F4B304683FB0123C9170A
:10374000C1EBA301BDE87040C9B2FFF717BDB4F1EA
:103750002D01304618BF0121BDE87040FFF704BFBE
:103760003046BDE87040FFF75FBEA4F13601114B53
:10377000304683FB0123C917C1EBA301BDE87040AC
:10378000C9B2FFF7E7BDB4F13701304618BF0121D8
:10379000BDE87040FFF7C4BE3046BDE87040FFF79B
:1037A0007DBE3046BDE87040FFF788BEA4F12B0116
:1037B000A5E700BF6766666670B504462749D0F87E
:1037C000900204F0C5FAD4F89005022101F0D6FD6C
:1037D00058BB05460121D4F8900501F0CFFD0646FF
:1037E00078B90146D4F8900501F0C8FD58BBD4F86B
:1037F0002025D4F890021A4B1A49BDE8704004F015
:103800002FBB2A46D4F89005012101F05BFD294623
:10381000D4F89005022201F055FDD4F84C0541F290
:103820008831BDE8704003F053BDD4F89005002204
:10383000022101F047FDD4F8900502220121BDE8E4
:10384000704001F03FBDD4F890053246314601F09A
:1038500039FD2046BDE87040FFF7D8BB8009002045
:1038600094090020A80900202D4B70B50446186863
:1038700001F012FF94F849350133DBB2072B84F8CD
:1038800049351DD9002384F8493504F5B56504F59B
:10389000B96655F8040F0122002101F013FDAE4274
:1038A000F7D1C8210023A4F8441584F84835002333
:1038B000D4F85005A4F84A35BDE8704003F008BDBF
:1038C000013B062BE1D801A252F823F04920000069
:1038D000EB1F000051200000EB1F000059200000EA
:1038E00067200000772000000F21A4F84415DEE7D0
:1038F0006421A4F84415DAE714210123A4F844153F
:1039000084F84835D3E70123B4F8441584F84835E2
:10391000A4F84635CBE714231946A4F84435C6E786
:103920008829002010B509490446D0F8900204F017
:10393000DFF90A23204684F84935FFF795FFD4F8CC
:103940005005BDE8104003F0C9BC00BFB809002015
:1039500070B590F8493582B00446072B27D8DFE8C8
:1039600003F0397639893904A52D7F4B00251E686F
:1039700008F04AFA7D4B01463046A3FB01235B0960
:1039800003EB4303A1EB031101F06EFE94F848151D
:1039900032230095C82201F0B5FBB4F84A1564291A
:1039A00000F0DE80C72904D92046FFF75DFFB4F898
:1039B0004A150131A4F84A1502B070BDB0F84A1595
:1039C0002F2940F2C2806429EED00131A4F84A15B3
:1039D00002B070BD90F8483500F5B56500F5B966E0
:1039E00043B355F8040F01F0BFFDB542F9D194F887
:1039F0004835002B72D0B4F84415053189B2A4F8CB
:103A00004415D4F8500503F063FCB4F84435653B25
:103A10009BB2C62B05D994F8483583F0010384F88E
:103A20004835B4F84A154F29BED80131A4F84A15D3
:103A300002B070BD55F8040F01F04EFDAE42D6D075
:103A400055F8040F01F048FDAE42F3D1CFE7B0F8CE
:103A50004A152F2960D8444B186801F005FE01F083
:103A600075FBB4F84A155F299ED80131A4F84A15B0
:103A700002B070BD90F84A5515F0070555D000EB1F
:103A800085030021D3F8A80501F0ACFC04EB850503
:103A90000121D5F8AC0501F0A5FCB4F84A152F2991
:103AA00082D80131A4F84A1502B070BD2E4D002114
:103AB000286801F0D9FD46782868B6B901F008FEFB
:103AC00094F84835B4F84615ABB3023189B21829D9
:103AD000A4F8461510D984F848650DE0B4F84415EB
:103AE000053989B2A4F844158BE701F0D5FDB4F887
:103AF0004615C1F11A0189B2A4F84415D4F850054D
:103B000003F0E6FBB4F84A1596293FF44DAF0131B6
:103B1000A4F84A1502B070BD134B30391868C9B209
:103B200001F0A2FD01F012FB9BE72946D0F8C80581
:103B300001F058FCAAE7023989B20129A4F8461518
:103B4000DAD8012384F84835D6E7074B186801F026
:103B50008BFD4FF47A7101F00BFBB4F84A1532E794
:103B600084F8485525E700BF88290020ABAAAAAAF7
:103B700070B588B0144605460E4604A81F4909F0E2
:103B8000CDFE2146684604EBC40409F00BFF6946EC
:103B900004A8A40009F0F6FF194909F0FBFF01464B
:103BA000284609F0E1FE684609F078FE04A809F00D
:103BB00075FE311904A801F52B7109F0D5FE04A892
:103BC000104909F0E7FF0146284609F0A5FF04A8BF
:103BD00009F064FE311904A801F5277109F0C4FE4B
:103BE00004A8094909F0D6FF0146284609F094FFC8
:103BF00004A809F053FE284608B070BDCC09002087
:103C0000D0090020D4090020D809002010B50749A8
:103C10000446D0F8900204F06BF80023D4F858055D
:103C200084F84035BDE8104003F058BBDC090020A3
:103C300010B504461949D0F8900204F059F820460E
:103C400002F0BAF9A0680122042100F067F9A06827
:103C500001220C2100F062F9A06801220D2100F080
:103C60005DF9A06801220E2100F058F920461F21BD
:103C700002F0FCFD04F555600022FA2103F054F82F
:103C8000D4F89002064904F033F82046FFF74AFEC4
:103C90002046BDE81040FFF7B9BF00BFF009002083
:103CA000040A002070B590F8402584B005463AB16A
:103CB000032A27D00FD8013285F8402504B070BD03
:103CC00002F05CF84FF47A71D5F8580503F000FB68
:103CD00095F84025EFE7043A01466846D2B2FFF76F
:103CE00047FF05236A460121D5F8A00301F014F827
:103CF00095F84035082B24D0684609F0CFFD95F89B
:103D00004025D8E7D0F8A063337F5BB1002421467B
:103D10000134304601F08CF8337FE4B2A342F6D888
:103D2000D5F8A0630A4A30460523002100F0E0FFE1
:103D300040F6C411D5F8580503F0CAFA95F84025A5
:103D4000B9E70023684685F8403509F0A7FDB5E7D7
:103D5000180A0020D0F85C358B421BD0D0F86035B3
:103D6000994210B419D0D0F8643599421AD0D0F8DD
:103D70006835994209D0D0F820250E4BD0F8900232
:103D80000D495DF8044B04F07FB811465DF8044B13
:103D9000FFF788BF1146FFF70FBD11465DF8044BD2
:103DA000FFF7D6BD00F5586000215DF8044B02F026
:103DB000A5BF00BF300A0020400A0020A0F52570F2
:103DC000FFF7C8BFD0F8742238B5044692B1D0F8D6
:103DD00070520123D0F86C220421806832F815203B
:103DE000C2F3001200F062F820460121BDE838401D
:103DF00002F02EBE90F8803203B938BD01230421B1
:103E00008068EFE738B504460D46FFF7DBFF29462B
:103E10002046BDE8384001F039BD00BF10B504466A
:103E2000006808B109F038FCA06808B109F034FC5A
:103E3000606808B109F030FC204610BD10B504469A
:103E4000642007F07BFFA37B63B100231A46206840
:103E5000591CC254A068C2546068C2548BB2A17B82
:103E60009942F4D810BD00BF38B50D460446642011
:103E700007F064FFB5F5806F294628BF4FF48061D5
:103E8000481EA181C0100130C0B2A07309F002FC2D
:103E90002060A07B09F0FEFBA060A07B09F0FAFB8C
:103EA00060602046FFF7CAFF204638BD70B48489A1
:103EB0008C420CD901F007050124C910AC4089B22D
:103EC000E5B243B16AB10468635C1D4218D00023B7
:103ED000184670BC70474668765C3542F8D1002AB7
:103EE000F1D10668735C1D4215D023EA0404012356
:103EF00074548068425C15434554184670BC704742
:103F000045EA0302012362548068425C154345542C
:103F1000184670BC70471346DAE700BF83898B42AE
:103F20000ED9012310B401F00704C910A34089B2CF
:103F30003AB94068425C22EA030343545DF8044BFB
:103F400070474268505C03435354F7E7827B4B1041
:103F50009A4207D90268D05CCB0754BF00F00F002B
:103F60000009704700207047837B8B4202D90368A9
:103F7000585C704700207047827B4B109A4207D9EB
:103F80008268D05CCB0754BF00F00F000009704777
:103F900000207047827B4B109A4207D911F0010F25
:103FA0008168CA5C03D002F00F02CA54704722F045
:103FB0000F02CA54704700BF2DE9F0438F6885B0E7
:103FC000EFB30023064688461D46C0F884302C46D1
:103FD00002E0202806D801342146404609F0FEFDC3
:103FE000BC42F6DBBC422DD0254602E0202806D993
:103FF00001352946404609F0F1FDBD42F6DBD6F811
:1040000084002B462246414600F10409684609F027
:104010001DFE684606EB091909F044FE01464846B4
:1040200009F01AFD684609F039FCD6F88430F21818
:104030000133032B82F88040C6F88430C7DD05B019
:10404000BDE8F083D6F88430032BF8DC1D1D8033E7
:1040500006F18407E4B206EB05151E44284606491E
:1040600009F00AFD06F8014BBE4205F11005F5D135
:1040700005B0BDE8F08300BFB01100202DE9F04786
:104080008AB00E460446002102A809F047FCB36836
:104090008BB1A26B002A00F01582E26B002A00F0BF
:1040A0001182802B00F2E28031462046FFF784FF28
:1040B000D4F884303BB9002502A809F0EFFB28466C
:1040C0000AB0BDE8F08704F140082168404609F0D5
:1040D0006FFD002840F0E18005466168404609F028
:1040E00067FD002840F00F82A168404609F060FD9E
:1040F000002840F0EC81E168404609F059FD0028B5
:1041000040F0CC822169404609F052FD002840F081
:10411000B6826169404609F04BFD002840F0A0825C
:10412000A169404609F044FD002840F04C82E16955
:10413000404609F03DFD002840F03282216A4046A9
:1041400009F036FD002840F01882616A404609F007
:104150002FFD002840F0E681A16A404609F028FDC5
:10416000002831D0A06BD0F8F0301BB1184607F012
:1041700095F9A06B00234F4A194603F0ABF9A36BE6
:1041800006A893F8EC1009F00DFC06A902A809F0A6
:104190006BFC06A809F082FBA36BD3F8F00060B1BA
:1041A00002A909F093FAA36BD3F8F00028B10368D1
:1041B000032241495B689847A36B012518463F4A93
:1041C0000023294603F086F9E16A404609F0F0FC35
:1041D00068B3D4F88430012B07DD394904F150006D
:1041E00009F0E6FC002840F0AB82A06BD0F8F0307C
:1041F0001BB1184607F052F9A06B0023314A012584
:10420000194603F067F9A36B0A2206A8B3F8EE106B
:1042100009F0DCFB06A902A809F026FC06A809F0B3
:104220003DFB002302AA2946A06B03F06DF9216B28
:10423000404609F0BDFC00284CD1616B404609F0B6
:10424000B7FC00285DD1002D40F0488221211E4896
:1042500009F0A0F841461D4809F038FA02211C482F
:1042600009F098F8194809F057FA25E77F2300224A
:10427000314606A809F0EAFC06A9304609F0F4FB2D
:1042800006A809F00BFB31462046FFF795FED4F84F
:104290008430002B3FF40FAF15E704F150000125E7
:1042A00009F010FD00F01F07E06B394602F0DEFA5E
:1042B00013E700BF180B0020240B0020280B002060
:1042C000D00A0020380B0020AC0C0020A41E0020D7
:1042D000D00C0020E06B01F06FFEA06BD0F8F03046
:1042E0001BB1184607F0DAF8A06B0023C64A19463E
:1042F00003F0F0F84046616B09F05AFC002800F02A
:10430000ED81A06BD0F8F0301BB1184607F0C6F86D
:10431000A06B00230125BD4A194603F0DBF80023FA
:10432000BB4A2946A06B03F0D5F81321B94809F020
:1043300031F8B94809F0F0F9266830460AF050FF24
:104340000146304609F026F80921B44809F022F860
:10435000B14809F0E1F9666830460AF041FF0146CC
:10436000304609F017F8AC4809F0D6F91721AC48E7
:1043700009F010F8A84809F0CFF9A66830460AF00D
:104380002FFF0146304609F005F81A21A54809F02B
:1043900001F8A14809F0C0F9E66830460AF020FFAC
:1043A0000146304608F0F6FF17219D4808F0F2FF5D
:1043B000994809F0B1F9266930460AF011FF014623
:1043C000304608F0E7FF0921944808F0E3FF9248DF
:1043D00009F0A2F9A66930460AF002FF014630460C
:1043E00008F0D8FF1821904808F0D4FF8A4809F057
:1043F00093F9E66930460AF0F3FE0146304608F0CC
:10440000C9FF1521894808F0C5FF834809F084F9E0
:10441000266A30460AF0E4FE0146304608F0BAFF4C
:104420002421834808F0B6FF7B4809F075F9666AD5
:1044300030460AF0D5FE0146304608F0ABFF1C219D
:104440007C4808F0A7FF744809F066F9A66A304670
:104450000AF0C6FE0146304608F09CFF1621764859
:1044600008F098FF6C4809F057F9E66A30460AF000
:10447000B7FE0146304608F08DFF2C216F4808F04A
:1044800089FF654809F048F9266B30460AF0A8FE16
:104490000146304608F07EFF1421694808F07AFF93
:1044A0005D4809F039F9646B20460AF099FE01462F
:1044B000204608F06FFF584809F02EF9564809F0D9
:1044C0002BF9F9E538215F4808F064FFF3E504F1C2
:1044D000500009F0F7FB074604F1600009F0F2FB19
:1044E000D4F884308146022B00F04C8104F1700036
:1044F000012509F0E7FB1FFA89F283B2E06BF9B2FC
:1045000002F086F9F7E504F150054F49284609F015
:104510004FFB002800F0D080E36B0125D86801F044
:1045200015FFE1E5A06B012103F040F8A36BD3F880
:10453000F00008B106F0B2FF02F0DCFE0A220146EC
:1045400006A809F043FA06A902A809F08DFA06A800
:1045500009F0A4F90023A06B02AA194602F0D4FFC7
:10456000A36BD3F8F000002800F0F58003680B225D
:10457000364901255B689847EEE5A06B012103F001
:1045800015F8A06BD0F8F0301BB1184606F086FF86
:10459000A06B00232E4A0125194602F09BFFD4E5AB
:1045A000294904F1500009F003FB8146002800F07E
:1045B000D480A36B0125D3F8F00000283FF4BEADF2
:1045C00006F06CFFBAE504F150052249284609F0CF
:1045D000EFFA18B1A36B022283F89C201E492846EB
:1045E00009F0E6FA18B1A36B012283F89C20284653
:1045F0001A4909F0DDFA002800F0A080A36B002220
:10460000012583F89C2092E54C0B0020580B0020DC
:10461000680B00207C0B0020A41E0020900B0020C3
:104620009C0B0020B40B0020D00B0020EC0B0020D2
:10463000040C00202C0C00204C0C0020640C0020EA
:10464000940C0020940A0020D00A00200C0B0020BB
:10465000F00A0020D80A0020E00A0020EC0A00201E
:1046600004F150054B49284609F0A2FA002853D01E
:10467000A36B0125D3F8840003F05EFA50E504F142
:104680005000012509F01EFB434BC1B207461868D4
:1046900000F0EAFFFA2100F06BFD3AE504F1500565
:1046A0003C49284609F084FA8146C8B13A4B0125B5
:1046B000186800F0F1FF25E52846012509F002FB06
:1046C000074604F1600009F0FDFA0028F9B2E06B3A
:1046D000D4BF0022012202F085F805E50125EBE4B4
:1046E0002846012509F0EEFA074604F1600009F0BA
:1046F000E9FA294B8246F9B2186800F0B5FFBAF121
:10470000000FCDF800904FF03203D4BF00210121FB
:10471000C82200F0F7FCF5E42846012509F0D2FA9A
:1047200000F0070704F1600009F0CCFAA36BC2B2F5
:104730003946D3F8840003F0D5F9F1E40125F6E415
:10474000A56B0022D5F89800114604F06DF80023FF
:10475000A5F8EE3049E50125FEE494F882203146C3
:1047600006A8012509F096FA06A902A809F07CF925
:1047700006A809F093F84946FBB202AAA06B02F022
:10478000C3FEDBE482B20023F9B2E06B02F040F832
:104790000125B0E4D00A002088290020037E8B4246
:1047A00007D9437E934204D9436853F82130985C7B
:1047B00070472120704700BF2DE9F04745680FFA88
:1047C00081F986B005EB4915AB7C002B37D0D0F8CA
:1047D00000A00E466B7C07469AF819802C7A092BAC
:1047E00000F20281DFE813F06B000A007D009D00FB
:1047F000BA009D00BA00D300E9002E0095F8188099
:104800004FF00009294602A809F0AEF8029B424683
:1048100031465046CDF8009002F0FEFB02A809F0A8
:104820003DF8AB7E002B00F0EC802B8B01339BB26C
:104830002B833A7F141BA34201D185F81A9006B04E
:10484000BDE8F08707F0E0FA3968C0B24B68B0FB0A
:10485000F8F208FB120453F829000B7EE4B2497EFB
:1048600004E00134E4B2A04508BF00249E42F8D21F
:104870008C42F6D2025D202AF3D12146284609F067
:10488000ADF9224603463146386802F06DFC2B8BA9
:1048900001339BB243452B83D1D100243F68294685
:1048A00002A809F061F8029B38463146224600947E
:1048B00002F0B2FB02A808F0F1FFAC74BFE72F7E54
:1048C0000024294602A809F04FF8029B3A463146D7
:1048D0005046009402F0A0FB02A808F0DFFFAC7481
:1048E000ADE7294602A809F03FF84FF0000EB5F9F0
:1048F00018303146029A5046CDF800E002F0BCFB79
:1049000002A808F0CBFFAB7E002B71D12B8B0133BB
:104910009BB22B833A7FA41AA34290D10123AB769A
:104920008DE7294602A809F01FF801272B8B314695
:10493000029A504603EB070E1BB2C8EB0408A5F819
:1049400018E0009702F098FB02A808F0A7FF2B8B55
:1049500043457FF774AF0023AB7470E7294602A884
:1049600009F002F82B8B0127029A03F1FF3E314632
:104970001BB25046A5F818E0009702F07DFB02A894
:1049800008F08CFF2B8BA3427FF659AFE3E7013C85
:104990002B8BA3424DD0504602F0B0FB298B28460A
:1049A0004B1C2B8309F01AF908F1FF3203463146FC
:1049B000D2B2386802F0D8FB41E7B5F81880B8F1F8
:1049C000000F26D1294602A808F0CEFF013C029B29
:1049D000424631465046CDF8008002F01DFB02A849
:1049E00008F05CFF2C832AE700236B74AB7426E786
:1049F0002B8B013B9BB22B83002B7FF420AFAB763C
:104A00001DE72B8B013B9BB22B83002B7FF417AF51
:104A100084E7504602F090FB298B28464B1E2B83DF
:104A200009F0DCF8314603460022386802F09CFBAE
:104A300005E70024294602A808F096FF029B3146AC
:104A400050462246009402F0E7FA02A808F026FF3A
:104A50002C83F4E6037F8B4200D870472DE9F047A2
:104A60000D468CB001680446684617461C310FFAA3
:104A700085F808F079FF3221012F94F8149094E81A
:104A8000480006EB481693F819A0B183777410D04C
:104A9000022F19D0092F00F2E280DFE817F0DA00C8
:104AA0001900E0008700A500C5002C004E00D600CC
:104AB0007B00227F914503D900233383B3760BE03B
:104AC00014BF01270027E5E7227F914580F0BF80D2
:104AD000002201233283B3760123B374237FAB42D8
:104AE00003D929462046FFF767FE684608F0D6FE40
:104AF0000CB0BDE8F08708AF04F10C01384608F0AF
:104B000033FF23681A7EAA4200F2CF800DF110090C
:104B10007649484608F002FF4946384609F032F81F
:104B20000146304608F098FF484608F0B7FE384680
:104B300008F0B4FE63693383CEE7B9F1000F40F0AB
:104B4000CE801A7EAA4200F2C28008AF674938467A
:104B500008F0E4FE3946304608F086FF384608F093
:104B60009DFE09F1FF333383B9F1000F40F08580DA
:104B700023681A7EAA4279D85C49384608F0CEFEEE
:104B80003946304608F070FF384608F087FE0023AB
:104B90003383A1E704F10C01304608F05DFF29469C
:104BA000206802F025FA0023338395E71A7EAA4293
:104BB00069D80DF110094D49484608F0AFFE494645
:104BC00008A808F0D1FE694608A808F0DBFF0146F6
:104BD000304608F041FF08A808F060FE484608F09B
:104BE0005DFE0023338377E708AF6946384608F057
:104BF000BBFE23681A7EAA424ED80DF110093B492C
:104C0000484608F08BFE4946384608F0BBFF01468F
:104C1000304608F021FF484608F040FE384608F0CC
:104C20003DFEA6F818A057E71A7EAA4246D80DF115
:104C300010092E49484608F071FE494608A808F0B8
:104C400093FE08A804F10C01BFE708AF8CE77FF4DE
:104C500033AF04F10C01304608F0FEFE3CE70023C0
:104C60006846B374338308F019FE41E75B68384641
:104C700053F8281008F052FE82E704F10C01384680
:104C800008F072FE7CE75B680DF1100953F82810FC
:104C9000484608F043FE92E75B680DF1100953F8AF
:104CA0002810484608F03AFEADE75B680DF11009A0
:104CB00053F82810484608F031FE2DE75B680DF1E7
:104CC000100953F82810484608F028FEB5E75B683D
:104CD00008AF53F82810384608F020FE3AE708AF2E
:104CE00004F10C01384608F03FFE33E7B011002014
:104CF00070B5047F8C4200D870BD1E460D46044638
:104D000011460C3008F0B8FE324629462046BDE870
:104D10007040FFF79FBE00BF70B5047F8C4200D883
:104D200070BD1E460D46044611460C3008F094FE38
:104D3000324629462046BDE87040FFF78BBE00BFD3
:104D40002DE9F047057F002D57D0002406460F4679
:104D50002046736803EB44139A7C4AB15A69998BD5
:104D6000BA1A8A4204D35F610120357FA5423DD83B
:104D70000134E4B2AC42ECD3002D41D00023D6F88C
:104D800008E04FF0640C984608E08D4212D982F892
:104D90001080357F0133DBB29D4225D9C3EBC302BE
:104DA0000EEB8202117C0029F4D05569518B7D1BDA
:104DB0000029EAD1148B013392F812A092F81190D5
:104DC000DBB2B5FBF4F104FB11550CFB05F5B5FBAB
:104DD000F4F454458CBF00240124A1455474357F5C
:104DE00018BF01209D42D9D8BDE8F0873046214642
:104DF000FFF7E2FC357F0120BAE72846BDE8F087DF
:104E0000BDE8F087F8B5C1EBC1018368427F03EBD1
:104E1000810662B105460024202721460134304630
:104E200008F0ECFE0770E4B26B7FA342F5D8F8BD42
:104E300038B5044600680D4602F0DAF8237F606852
:104E4000AB4200EB451001D900238374A368C5EB86
:104E5000C501002203EB810304491A7408F00CFE1B
:104E600029462046BDE83840FFF7CCBFB0110020EE
:104E70002DE9F047002506460F4684B00560294617
:104E800045600C3008F04AFD757735774FF0200803
:104E9000376008203C7E34777B7E08FB0400737704
:104EA00008F0F8FB446000F10809C0F80080ACB1DC
:104EB000671E4FF001084C46013F20460021203478
:104EC00008F02CFD7A1C04F8108C04F80F5C04F830
:104ED0000E5C44F80C5C24F8085CEDD1347F1C2790
:104EE0000820C6F80490651E07FB040008F0D2FBFA
:104EF000076000F108084460D4B1444600274FF031
:104F0000010A4FF032092046002108F007FD013D5B
:104F10004FF4FA73277484F811A01C3424F8043C6D
:104F20006B1C04F80A9C44F8087C24F8027CEAD143
:104F3000337FC6F808808BB300254FF00109322774
:104F4000AA4601E0D6F80880C5EBC503316868467B
:104F5000013508EB83041C3108F006FD6946204644
:104F6000EDB208F081FD684608F098FC4FF4FA7342
:104F700084F810A084F81190A774A4F81AA02383D1
:104F8000337FAB42DED84BB100242146013430469A
:104F9000FFF74EFF337FE4B2A342F6D8304604B0A9
:104FA000BDE8F0872DE9F047054697681C46904616
:104FB0001F440E46FFF726FF6B7FA3421FD9FFB2A7
:104FC000BC421CD2C6EBC606A146B60001E0A74211
:104FD00015D9C9EB0401404608F000FE8246A868D6
:104FE00021460134304408F009FEBAF1200FE4B242
:104FF00014BF7822202202706B7FA342E7D8BDE85D
:10500000F08700BF2DE9F04F047F89B090468C42B5
:105010009DF848A09DF84C2002D809B0BDE8F08F5B
:105020000EB2044640680D46770141469946039208
:1050300038444FF0000B08F00FFD6368414604A8A8
:105040001F442368A7F8189087F811B087F812B0AA
:10505000029308F089FC02A829460DC800924A462E
:1050600001F0DAFF04A808F019FCBAF1000F09D129
:10507000A368C6EBC60603EB860686F810A009B047
:10508000BDE8F08FC6EBC606294620464B46424691
:10509000B600FFF787FFA3683225074A33444FF471
:1050A000FA70012112689D74A468A3F81AB026440E
:1050B000188331747261B0E7142C00200022322171
:1050C00010B44FF4FA74017102704480827342701C
:1050D00082815DF8044B70474A784B8870B40C7835
:1050E0004270047043800B7903718E688D898C7BCC
:1050F0000A698B8A8660858184730261838270BCB1
:10510000704700BF10B40C1C18BF012401290470A3
:10511000BDF804400DD0022907D1002A08BFC822DB
:10512000002B08BF32234280037141705DF8044BAD
:1051300070474378012BF8D0034B84811B685DF8DE
:10514000044B836041707047142C00204378012B7E
:1051500008D033B90549012283810B68027083604E
:10516000427070470023037043707047142C002076
:1051700010B403780124054A634084731268818265
:10518000026103705DF8044B704700BF142C0020CF
:105190004378022BF0B505781CD02B46827B22B1D8
:1051A0000269848A8A1AA2420ED853B1828942B116
:1051B0008468091B914204D3002213468281427005
:1051C000027085EA0300F0BD83F001030022037042
:1051D0008273EAE78268642446888A1A90F804E0B9
:1051E000B2FBF6F706FB172204FB02F2B2FBF6F362
:1051F00073452CBF002301230370CFE70CB4F0B537
:105200000E4685B00021044608F088FB00231820D4
:10521000237508F03DFA0746FFF750FF0A9DA76186
:105220006B1C207D07D00AAB53F8042F01300132EC
:10523000C0B2F9D1207508F02DFA237D20615BB151
:10524000002303E00AAA206952F82350591CC554D0
:10525000227DCBB29A42F5D83146684608F05EFB13
:105260006946204608F000FC684608F017FB204617
:1052700005B0BDE8F04002B0704700BF0D4B10B55F
:105280001C68A4B103692046595C00F0EDF904469E
:1052900008B1204610BD1E21074808F07BF80748DA
:1052A00008F03AFA642006F049FD204610BD262198
:1052B0000348F2E788290020040D0020A41E0020E6
:1052C000DC0C0020114B1B6870B582B0DBB1037D94
:1052D0008B420BD91646FFF7D1FF0022322331460D
:1052E0000092C822FFF70EFF02B070BD25210848CA
:1052F00008F050F8074808F00FFA642002B0BDE843
:10530000704006F01BBD25210348F1E788290020E5
:105310004C0D0020A41E0020240D00200B4B1B6808
:1053200010B53BB11446FFF7A9FF2146BDE8104078
:10533000FFF71EBF2721064808F02CF8054808F0A3
:10534000EBF96420BDE8104006F0F8BC8829002085
:10535000A00D0020A41E0020074B1B684BB110B508
:10536000037D8B4201D8002010BDFFF787FF4078F6
:1053700010BD1846704700BF8829002038B5144B6F
:105380001C68C4B1037D0D468B4208D9FFF776FF38
:10539000044698B14078003018BF012038BD2A215A
:1053A0000C4807F0F7FF0C4808F0B6F9642006F047
:1053B000C5FC002038BD2A210848F2E72A460849E2
:1053C000054808F0C1F9642006F0B8FC204638BD55
:1053D00088290020F40D0020A41E0020C80D002004
:1053E000200E0020134B1B68F0B583B0ABB1037DDA
:1053F000054683B100240E462746E1B22846FFF752
:105400003DFF32230097C82231460134FFF77AFE70
:105410002B7DA342F1DC03B0F0BD2821064807F044
:10542000B9FF064808F078F9642003B0BDE8F04001
:1054300006F084BC882900204C0E0020A41E002009
:105440001A4B1B6870B582B013B30546007DD0B10E
:105450000E46002403E0D4B22B7DA34215D9214689
:105460002846FFF70BFF4378621CB342F3D0214676
:105470002846FFF703FF0022314632230092C8225C
:10548000FFF740FE204602B070BD204602B070BD5E
:105490003021074807F07EFF064808F03DF96420F8
:1054A00006F04CFCFF2002B070BD00BF8829002030
:1054B000780E0020A41E002070B515460646FFF7A2
:1054C000BFFF044635B1FF2804D030462146FFF720
:1054D000D5FE8581204670BDF8B51F4B1B68002B9B
:1054E00036D0017D0646012926D901398469C9B221
:1054F000FFF7C4FE01462046FFF7EEFD347D023C77
:1055000011D4E5B23046013C691CC9B2FFF7B6FEC2
:10551000074629463046FFF7B1FE01463846FFF7F9
:10552000DBFD631CEDD100213046FFF7A7FEB1691A
:10553000BDE8F840FFF7D0BD2821084807F02AFF52
:10554000074808F0E9F86420BDE8F84006F0F6BB2B
:105550002D210448F2E700BF882900206C0F0020AD
:10556000A41E00203C0F0020F8B51F4B1B687BB326
:10557000037D0646012B28D984690021FFF77EFEB2
:1055800001462046FFF7A8FD317D01291EDD0025DB
:10559000ECB2304601352146FFF770FE611C07462C
:1055A0003046C9B2FFF76AFE01463846FFF794FD60
:1055B000317D0139A942EBDCC9B23046FFF75EFE0E
:1055C000B169BDE8F840FFF787BDF8BD0139F3E7E1
:1055D0002C21064807F0DEFE054808F09DF86420FF
:1055E000BDE8F84006F0AABB88290020EC0F002097
:1055F000A41E0020B1F5807F2DE9F041074617DC9D
:10560000B1F1AA6F0E461CD94FF0FF300C1808F00C
:1056100041F880464546013C2846FFF74FFD1835C6
:10562000631CF8D1C7F8008038467E60BDE8F08181
:105630004FF4C050FF2408F02DF84FF480768046D8
:10564000E8E701EB41004C1EC00008F023F8621CA3
:105650008046E7D0DEE700BF10B50446006808B119
:1056600008F01AF8204610BD002908B508DB436889
:10567000994205DA01EB4101006800EBC10008BD69
:105680000A460348034908F05FF8002008BD00BF40
:10569000A41E0020281000204368002B16DD70B5E2
:1056A000002482B0054626462A6804EB44000134F3
:1056B000322302EBC0000096C8220021FFF722FD32
:1056C0006B68E4B29C42EFDB02B070BD704700BF74
:1056D0004368002B16DD70B5002482B005462646CF
:1056E0002A6804EB44000134322302EBC000009628
:1056F000C8220121FFF706FD6B68E4B29C42EFDB94
:1057000002B070BD704700BF9A421DD8F8B514466C
:1057100006460F46ABB101334268DDB295420DDD5E
:10572000D5B20BE004EB440021460134326800237B
:10573000E4B212F830203846FEF7B8FBA542F1D8A3
:10574000F8BD4268D5B2E9E7704700BFF8B54368D5
:10575000002B15DD00240F4606462546336804EB72
:1057600044000134394603EBC000FFF711FD7368B4
:10577000E4B2A84288BF01259C42EFDB2846F8BD71
:105780000025FBE7704700BF704700BF704700BFB0
:10579000A0F52570FAE700BF314B70B503F1300278
:1057A000D0F89C4305460360C0F8942234B12046EB
:1057B000FFF752FF2046082107F070FF05F5A160B2
:1057C00005F5267608F06AF805F2E44008F066F878
:1057D00005F2D44008F062F805F2BC4008F05EF82B
:1057E00005F2A44008F05AF805F28C4008F056F88B
:1057F00005F2744008F052F805F58B6008F04EF899
:1058000005F5886008F04AF805F5856008F046F867
:1058100005F5826008F042F805F57E7008F03EF864
:1058200005F5787008F03AF805F5537405F57270CF
:1058300008F034F805F56C7008F030F8A64209D08D
:10584000243C04F1140008F029F8201D08F026F883
:10585000A642F5D1284600F0B7FE284670BD00BF2D
:1058600068100020A0F52570FFF796BF10B504461C
:10587000FFF792FF4FF4A461204607F00FFF204688
:1058800010BD00BFA0F52570FFF7F0BF70B50D4645
:105890000D4E044600F2E44001F0CCFC296830686B
:1058A000FFF754FF00233068A1681A46FFF72CFF6A
:1058B0002968D4F8A003FFF743FA29462046BDE83B
:1058C000704001F09DB900BF8829002038B50D4611
:1058D000064C1121064807F05DFD2946204607F0D9
:1058E00083FF2046BDE8384007F016BFA41E002005
:1058F000A41000202DE9F04186B0044600F0FEFE21
:10590000AB4B04F5277504F5547603F130022360A0
:10591000C4F894220021284608F000F805F1100090
:105920002435002107F0FAFFAE42F3D130220021E6
:1059300004F5537004F56C7508F0AAFF0623284699
:10594000002184F8AC3304F57276C4F8A44304F55E
:105950007878C4F8A84304F5826707F0DFFF95491B
:1059600002A807F0EFFF02A9284604F57E7508F0AB
:105970007BF802A807F092FFD4F8A423072330464F
:10598000C4F8C023002184F8C43307F0C7FF8A4954
:1059900002A807F0D7FF02A9304604F5856608F093
:1059A00063F802A807F07AFFD4F8A4231023404636
:1059B000C4F8D823002184F8DC3307F0AFFF7F4917
:1059C00002A807F0BFFF02A940464FF02F0808F0D9
:1059D0004BF802A807F062FFD4F8A423112328464D
:1059E000C4F8F023002184F8F43307F097FF7449DA
:1059F00002A807F0A7FF02A9284604F5886508F069
:105A000033F802A807F04AFFD4F8A4231B23384632
:105A1000C4F80824002184F80C3407F07FFF69499A
:105A200002A807F08FFF02A9384604F58B6708F03B
:105A30001BF802A807F032FFD4F8A4232523304630
:105A4000C4F82024002184F8243407F067FF5D495E
:105A500002A807F077FF02A9304604F2E44608F0F6
:105A600003F802A807F01AFFD4F8A43384F83C84A2
:105A70002846C4F83834002107F050FF524902A8E4
:105A800007F060FF02A9284604F5A16507F0ECFFC6
:105A900002A807F003FFD4F8A43384F854843846EE
:105AA000C4F85034002107F039FF484902A807F034
:105AB00049FF02A9384607F0D7FF02A807F0EEFE1B
:105AC0000123434A2146C4F8684404F26C40009222
:105AD0001A4601F0F3F83F48D4F86814082301226D
:105AE000009004F2844001F0E9F83B48D4F86814CF
:105AF00009230122009004F29C4001F0DFF83748AE
:105B0000D4F8681400230322009004F2B44001F09A
:105B1000D5F8334801230322D4F86814009004F226
:105B2000CC4001F0CBF8304601F02CFB0021284698
:105B30000F4607F0F3FE2B49D4F8900202F0D8F894
:105B4000642006F0FBF8202007F0A2FD804604F157
:105B50001001FFF78DF9C4F8A083082007F098FD25
:105B600080463021FFF746FD1F49C4F89C8302A8F8
:105B700007F0D4FE02A928463D4607F075FF02A8AB
:105B800007F08CFE3046A4F81875184907F07EFF20
:105B9000A9B201350122A068FEF7C0F9032DF7D1A3
:105BA000134B2046D4F89C231A6006B0BDE8F08160
:105BB00068100020B8100020CC100020D810002061
:105BC000F0100020FC100020081100201811002007
:105BD00020070020080500201005002028110020C3
:105BE00030110020381100204811002054110020ED
:105BF0008829002070B584B006460C46002168460E
:105C000007F08CFED6F8900201F0FEFFD6F8900265
:105C1000224902F0D9F92146D6F890020A2202F070
:105C200099F886F81A45ECB1012C16D100232246CA
:105C3000B0681946FEF73AF9D6F8A0532B7F4BB15E
:105C40000024214601342846FFF7F2F82B7FE4B206
:105C5000A342F6D8002386F81B35684607F01EFEDF
:105C600004B070BD234622462146B068FEF71EF9F7
:105C7000D6F8A0532B7F43B1214601342846FFF7C5
:105C8000D7F82B7FE4B2A342F6D80123684686F802
:105C90001B3507F003FE04B070BD00BF6411002087
:105CA0002DE9F04188B017460646334904A81D4641
:105CB0009DF838409DF83C8007F044FE0A223946A2
:105CC000684607F097FE694604A807F05BFF0146A7
:105CD000304607F049FE684607F0E0FD04A807F0EB
:105CE000DDFD0A2DB268314604A894BF521B0A3A62
:105CF00007F0D0FF04A9304607F0B6FE04A807F06D
:105D0000CDFD377A022F94BF00230123A34202D98D
:105D1000BD1E002D1EDC032F18D9B8F1000F15D0C1
:105D20003D1F03242946304607F058FF0346294605
:105D3000304663F07F02202BA5F10305D2B205D0D7
:105D4000033407F055FFE4B2A742EBD8304608B061
:105D5000BDE8F08100242146304607F03FFF30289F
:105D6000D9D12146013420223046E4B207F040FF69
:105D7000AC42D0DAEFE700BF801100202DE9F043FC
:105D800097B00646002106A807F0C8FD00210AA822
:105D900007F0C4FD00210EA807F0C0FD12A80021E5
:105DA00007F0BCFDD6F8A0532B7F4BB10024214651
:105DB00001342846FFF73CF82B7FE4B2A342F6D823
:105DC000354606AF06F130094FF000080823D5F834
:105DD0004C233146CDF804800DEB0300CDF8008054
:105DE000FFF75EFF0C3502A9384607F03DFE02A81A
:105DF00007F054FDA94507F110074FF00004E5D165
:105E0000D6F8A003234606AA214601940094FFF782
:105E1000F9F8D6F8A0030AAA214601940C230094AD
:105E2000FFF7F0F8D6F8A00323460EAA019401214B
:105E30000094FFF7E7F8D6F8A00312AA0C23019408
:105E400001210094FFF7DEF896F87C1302A807F012
:105E5000A9FD049B02AA0121C3F10A03D6F8A003FD
:105E60000194DBB20094FFF7CDF802A807F016FD0D
:105E700012A807F013FD0EA807F010FD0AA807F0FE
:105E80000DFD06A807F00AFD17B0BDE8F08300BFBE
:105E900000232DE9F043064689B0242400F5277538
:105EA00000F55479984601278DF80F30D6F88C32DA
:105EB0002146D3F8980002F021FB0823024645F85A
:105EC000040C314604A80197CDF80080FFF7E8FEE6
:105ED00004A9284607F0C8FD04A807F0DFFCD6F89F
:105EE0008C32211DD3F8980089B202F0C7FAD6F897
:105EF0008C32611D8DF80C00D3F8980089B202F045
:105F0000BDFAD6F88C32A11D8DF80D00D3F898009B
:105F1000083489B202F0B2FA03A98DF80E0004A881
:105F200007F0FCFC04A905F11000243507F09CFDE6
:105F300004A807F0B3FC4D45A4B2B7D109B0BDE841
:105F4000F08300BF70B50646162400F56275214641
:105F50000434D6F88C32A4B2D3F8980002F0CEFA0A
:105F6000222C45F8040FF2D170BD00BF2DE9F0419D
:105F7000074600254FF001080E4E00F56074E9B2A7
:105F8000D7F88C0201F0ACFC00F01F00182806EBDB
:105F900000030AD8325C1B7F227004F8033C0135F1
:105FA0000134032DEBD1BDE8F08184F8008004F8C2
:105FB000038CF4E7201600602DE9F04305468BB012
:105FC0003E490026D0F8900205F52B7401F090FEB2
:105FD000284600F0DBFBD5F89C23394B02A8394951
:105FE00005F5587985F883624FF47A7885F88462EC
:105FF000012785F81C6585F87C631A6007F0A2FC10
:1060000005F5A16106A807F0AFFC06A902A807F0F4
:1060100083FD06A807F042FC334602AA3146D5F8B4
:106020008C0201F071FA85F8836385F8846385F842
:106030008563C5F84C63C5F85863C5F86463C5F853
:106040007063214906A807F069FC06A9204607F0FD
:106050000BFD06A807F022FC44F8148C08234FF42B
:106060007A72294606A801970097FFF719FE06A93C
:10607000A4F11000243407F0F7FC06A807F00EFC8A
:10608000A145DED10024A1B201340122A868FDF7A8
:1060900045FF032CF7D10123284685F81D35FFF76E
:1060A00065FF2846FFF74EFF2846FFF7F1FE02A8DE
:1060B00007F0F4FB0BB0BDE8F08300BF8C110020AB
:1060C000882900209C110020A411002038B5044626
:1060D0000D46D0F88C02012101F002FC94F87C13EB
:1060E000064BC0F3871029441844C9B290F83830E1
:1060F000994228BF194684F87C1338BD20160060E9
:1061000070B590F8873304465D00EA1800EB820210
:10611000D2F84C0392F855630144022EC2F84C1396
:1061200005D804EB8600D0F88C03814227D22B449B
:1061300004EB830393F856232AB9D3F84C13D4F80D
:106140009822914200D270BD0126D4F88C0216210B
:1061500083F8566301F0CEFB05461721D4F88C0274
:1061600001F0C8FB00EB45012046C9B2FFF7AEFFC6
:10617000324620460821BDE8704000F033BB0136AE
:106180001C2182F85563D4F88C0201F0B3FB01287E
:106190000CD001212046FFF799FF0122082120465B
:1061A00000F020FB94F887335D00C0E794F8875334
:1061B0000023FA22082105EB4505204604EB85055E
:1061C00095F85463013685F8546300F021FB94F888
:1061D00087335D00ABE700BF90F8873303EB4303E1
:1061E00000EB8300D0F850331944C0F850137047C7
:1061F0004B1E1E2B70B5064625D801EB41000C4600
:1062000041F28835C00007F045FA002100F118037B
:106210000A46013103F8182C43F8142C18338C4229
:1062200023F8282C23F8265C23F8242CF1D13060A5
:10623000102007F02DFA05462146FDF715FE756082
:106240003472304670BD002303600372304670BD67
:1062500038B50446006808B107F01EFA656835B124
:106260002846FDF7DBFD2846102107F017FA2046E7
:1062700038BD00BFF8B501EB41040568E4002E5DB0
:106280002F1996420ED02A551B684AB97B610546E4
:106290000C4600234068FDF709FE6C720120F8BD32
:1062A0003B61F4E70020F8BDF0B501EB410604685E
:1062B0000C4F83B004EBC6041E463B681546636072
:1062C00046B1002D4FF00100A68108BFFA252581B7
:1062D00003B0F0BD3F6802AB012243F8047DFFF735
:1062E000C9FFEEE7142C0020F0B5057A83B08D428B
:1062F0001AD901EB41030668DFF834E00025DB0022
:10630000DEF800C0F418F35C9342C4F804C0A58121
:10631000258109D0DEF8004002AB43F8044DFFF7B9
:10632000A9FF012003B0F0BD002003B0F0BD00BF05
:10633000142C002010B4047A8C4203D95DF8044B6D
:10634000FFF7B2BF00205DF8044B704738B5037A01
:106350005BB1054600242146013400222846FFF7A0
:10636000C3FF2B7AE4B2A342F5D838BD2DE9F0473C
:10637000027A002A5BD00025894607462E46AE46A3
:106380000DE0618929B1D9F8003020691B1A8B42D0
:106390003BD8238953BB01361835B24223DD3C6814
:1063A00014F805802C44B8F1000FEAD1A389002B22
:1063B000F1D0D9F800106068091A9942EBD35FFA5E
:1063C00086FA4B46012238465146FFF753FFA4F8A0
:1063D0000C803A7A01364FF0010E87F809A0B242DC
:1063E00005F11805DBDC7046BDE8F0872469D9F8B3
:1063F0000010091B8B42CED25FFA86FA4B46002270
:1064000051463846FFF736FFE3E75FFA86FA002287
:106410004B4638465146FFF72DFF2289002AD8D037
:106420002169D9F800305B1A9342D2D9E6E7964643
:10643000D9E700BFF8B5067A86B1002507462C4695
:106440002E46214601347868E4B2FDF78DFD3B7A93
:10645000A840E5009D4246EA0006F2DB3046F8BD62
:10646000F0B400F20B260746002200F20324034694
:10647000354603F1200104F8012F05F8012F43F8F8
:10648000042F8B424FF00000F9D1B442F1D1FF2329
:1064900087F8140238467B70F0BC704710B504468C
:1064A00010F5017001D007F0F7F814F5037001D072
:1064B00007F0F2F8201D01D007F0EEF8204610BDDD
:1064C00090F814320133DBB2072B05D900221346B2
:1064D00080F814221846704780F814321846704726
:1064E0004078704701F00701084490F804027047B3
:1064F00001F0070100EB010C2DE9F04186469CF804
:106500000402504037D04D01012401EB810198462F
:1065100005F120078EF800007544A14077440EE095
:106520009CF8046226438CF80462D8F800606E6020
:10653000043564000131BD42E4B2C9B21BD020422F
:10654000F6D0D5F80461224206F10106C5F80461CF
:106550008EF80110E4D1D8F800606B68F61A312E7D
:106560000BD99CF8046226EA04068CF80462D8F879
:1065700000606E60DCE7BDE8F08120EA0400D7E748
:1065800013460A4690F81412FFF7B2BF00780030A5
:1065900018BF0120704700BF084AA2FB0132D20891
:1065A00002EB8202A1EB4203DBB21844C91A90F855
:1065B0000402C9B2C84000F001007047CDCCCCCC79
:1065C000704700BF704700BF38B5184B0446C56818
:1065D000036035B12846FFF73BFE28460C2107F043
:1065E0005DF8A56835B12846FDF718FC284610214E
:1065F00007F054F8D4F86C0208B107F04DF804F134
:106600005400FFF74BFF0A4B206C236108B107F0E1
:1066100043F8084B04F12C00236107F03FF904F123
:10662000180007F03BF9204638BD00BFD411002008
:10663000C8110020BC11002010B50446FFF7C4FFAC
:106640004FF42571204607F029F8204610BD00BF01
:1066500038B590F88032A3B1D0F8743293B91D46A2
:10666000FF21D0F88C320446D3F8940002F048FDA4
:10667000D4F87432002B0CBF2B4645F0010384F88C
:10668000803238BDD0F87012D0F878424A1CD0F869
:106690006C52A24235F81150C0F870220BD0EDB206
:1066A0005A1E05F07F010035C0F8742218BF01257D
:1066B00081F0FF01D5E70022C0F87022EFE700BFAC
:1066C000026810B552690A4CA2420DD10C46094825
:1066D000112106F05FFE2146074807F085F80648BD
:1066E000BDE8104007F018B8BDE81040104700BFE3
:1066F0002D400000A4100020A41E002038B51F4A21
:1067000004461F4B103040F8102C0D46636000F01B
:106710001BFB04F15400FFF7A3FE0A231420C4F866
:10672000783206F0B7FF00230E21C4F86C02C4F8DB
:106730007032C4F87432134806F02CFE124806F08A
:10674000EBFF05F1A003C4F88C520C20C4F8903282
:1067500006F09EFF05460921FFF74AFDE56010207F
:1067600006F096FF30210546FDF77EFB012320460B
:10677000A56084F87D3284F87E3238BDD4110020C3
:10678000F0110020F8110020A41E002038B5144993
:106790000446D0F89002002501F0AAFA642005F022
:1067A000CDFAD4F88C0200F05BFEA068FDF746FB42
:1067B000E068FFF7CBFDC4F87052C4F8745204F1DE
:1067C000100084F87C5200F099FBFF2294F87D328F
:1067D00084F8805284F8812284F87E3238BD00BF6C
:1067E000081200200139C9B2082900D9704738B50C
:1067F0000446C068FFF778FDD4F88C52E068FFF7D4
:1068000019FE81B2D5F88800BDE8384002F074BAAC
:106810000139C9B2082914D8002A38B5044608BF7E
:106820004FF4FA72C068FFF785FDD4F88C52E06827
:10683000FFF700FE81B2D5F88800BDE8384002F0CD
:106840005BBA704738B50446C068FFF78FFD00B9E2
:1068500038BDD4F88C52E068FFF7ECFD81B2D5F872
:106860008800BDE8384002F047BA00BF30B4D0F825
:106870007422D0F87842A2420CD2D0F87032551C63
:106880001344D0F86C22C0F874529C4298BF1B1B72
:1068900022F81310012330BC80F88032704700BF0B
:1068A00038B505465430FFF70BFE0121D5F88C3280
:1068B00004468140D3F89000C943C9B202F036FBC8
