:1000000000800020BD0100003D850000F584000057
:10001000F5840000F5840000F5840000F5840000FC
:10002000F5840000F5840000F58400003D850000A3
:100030003D850000F5840000E1990000E59A00008C
:100040003D8500003D8500003D8500003D850000A8
:100050003D8500003D8500003D8500003D85000098
:100060003D8500003D8500003D8500003D85000088
:100070003D8500003D8500003D8500003D85000078
:100080003D8500003D8500003D8500003D85000068
:100090003D8500003D8500003D8500003D85000058
:1000A0003D8500003D8500003D8500003D85000048
:1000B0003D8500003D8500003D8500003D85000038
:1000C0003D8500003D8500003D8500003D85000028
:1000D0003D8500003D8500003D8500003D85000018
:1000E0003D8500003D8500003D8500003D85000008
:1000F0003D85000045A200003D85000071A3000081
:100100003D8500009DA400003D8500003D85000068
:100110003D8500003D8500003D8500003D850000D7
:100120003D8500003D8500003D8500003D850000C7
:100130003D8500003D8500003D8500003D850000B7
:100140003D8500003D8500003D8500003D850000A7
:100150003D8500003D8500003D8500003D85000097
:100160003D850000158A00003D8500003D850000AA
:100170003D8500003D8500003D8500003D85000077
:100180003D8500003D8500003D8500003D85000067
:100190003D8500003D8500003D8500003D85000057
:1001A0003D8500003D8500003D8500003D85000047
:1001B0003D8500003D8500003D850000564B4CF21A
:1001C000205210B51A804DF628121A8000BF00BFC9
:1001D00008F0B8F9514B4FF010621A60504A9A601B
:1001E000504ADA60504A136813F4807304D14F49BF
:1001F0000B604FF4A85313604D4B1A78110703D5C9
:100200001A7842F008021A704A4B4B492A221A7097
:100210004A4A4B4B8B4204D252F8040F43F8040B6A
:10022000F8E7484B484900228B4202D243F8042B9E
:10023000FAE74649464A002352F8230041F82300D2
:1002400001336F2BF8D1434B434A802103F8011B44
:100250009342FBD1414B3D4A1A60414B8A221A70AE
:10026000A3F5805324225A70A0221A709A7992071B
:10027000FCD59A79D406FCD43A4A937903F00C035E
:10028000082B384BF9D105221A7143225A719A79F9
:100290009006FCD5334A9179324B4906FBD5324A58
:1002A0004FF0817111600521516020221A709A79F6
:1002B00002F00C020C2AFAD12C4B2D4A1A602D4B5D
:1002C0002D4A1A6000225A60072243F8042C2B4A58
:1002D000C3F80C2D62B608F053FA144B1B68DA070A
:1002E00005D5274808F0ACF9264B274A1A60274B5A
:1002F0001B785B0609D5234C234B22689A4204D114
:100300001F4808F09DF9002323600AF0F5FD08F06E
:100310001FF909F0EFFBFEE70E2005403080044096
:10032000823F04000100002B10D0034014D0034092
:1003300002D0074000E00740D091FF1F700D010080
:100340002087FF1FD091FF1F9498FF1F0082FF1F7F
:100350000000000000E400E05FE400E008ED00E0E1
:1003600000500640004006404480044004800440A1
:10037000C010050014E000E03F190100000020203B
:10038000DF596E5E1CE00340A5C3945A00F007409D
:10039000FFFFFFFFFFFFFFFFFFFFFFFFFFFFFFFF6D
:1003A000FFFFFFFFFFFFFFFFFFFFFFFFFFFFFFFF5D
:1003B000FFFFFFFFFFFFFFFFFFFFFFFFFFFFFFFF4D
:1003C000FFFFFFFFFFFFFFFFFFFFFFFFFFFFFFFF3D
:1003D000FFFFFFFFFFFFFFFFFFFFFFFFFFFFFFFF2D
:1003E000FFFFFFFFFFFFFFFFFFFFFFFFFFFFFFFF1D
:1003F000FFFFFFFFFFFFFFFFFFFFFFFFFFFFFFFF0D
:10040000FFFFFFFFFFFFFFFFFFFFFFFFDEF9FFFF23
:1004100010B5054C237833B9044B13B10448AFF33E
:1004200000800123237010BDD091FF1F0000000049
:100430006C0D0100084B10B51BB108490848AFF31B
:1004400000800848036803B910BD074B002BFBD0A0
:10045000BDE81040184700BF00000000D491FF1F06
:100460006C0D0100D091FF1F00000000F8B51B4F7C
:100470001B4C1C4E384605F059F81B491B4B0222F9
:10048000002501201A700870257003F033FE6420E7
:1004900008F026F940F6046009F034FB044600F049
:1004A000B1FA134BC4F8807220461C60346004F02B
:1004B00033F90B210F4809F02DF90F4809F068FBBB
:1004C000642008F00DF930680368DB6998470B4B2E
:1004D0001D60BDE8F84003F00DBE00BFEC91FF1FAA
:1004E000D492FF1F9492FF1FCC92FF1F9892FF1F80
:1004F0009092FF1F88F400006C87FF1F8C92FF1FF3
:1005000038B50168104BA3FB0123DB0803EB830321
:10051000B1EB430400D038BD05460C4804F0C8FFD9
:100520000028F8D0094804F0A3FF0138C0B202281F
:100530009CBF074B195C074B88BF21462A461868A9
:10054000BDE8384004F034BACDCCCCCCEC91FF1FE0
:10055000BCF400009492FF1F70B5164E3368044639
:1005600003F1480003F054FF012C05460ED003D3DD
:10057000022C0AD1052811D900220F4B2946D3F8A5
:100580008400BDE8704005F0D5B970BD072D306816
:100590000BD0483003F040FF0246EEE7336881B2EB
:1005A000586801F081FF0246E7E704F04BF940424A
:1005B000C2B2E2E79492FF1FEC91FF1F074B10B508
:1005C00004461878FFF7C8FF2046FFF799FF044B51
:1005D00021461868BDE8104003F068B99892FF1FE3
:1005E0009492FF1F2DE9F047364DDFF8F8808CB06C
:1005F00004A8002109F0A2FB2B6802930027DDF874
:100600000890464638463C46C0F57973033303EB01
:100610004303DB0001D0013BFDD12B680393039B17
:10062000D8F8002001939A4207F101070DD008F095
:1006300033F8019B3360824601A8FFF7BFFF08F043
:100640002BF8019BCAEB00000444C9EB0303B3F58C
:100650007A7FD9D303F042FC1B4B196808A80C31F0
:1006600004F034FB08A904A809F0FAFB08A809F073
:1006700025FB04A9154809F065FA144809F088FA21
:100680006423134803FB04F3A0FB0330C0F387404B
:1006900003F06AFC0F4803F065FC384603F064FC85
:1006A0000D4803F0D3FC0D4803F05CFC204603F03A
:1006B0005BFC0B4803F0CAFC04A809F0FFFA0CB07D
:1006C000BDE8F0879C95FF1F9492FF1F6C87FF1F6A
:1006D00083DE1B4394F400009CF40000A8F40000A7
:1006E000ACF400008C92FF1F10B5054C204604F0BE
:1006F00035FE2046034A0449BDE810400AF0EABB33
:10070000EC91FF1F2087FF1F39540000704700BF86
:10071000964B03F12C0270B5042104460360C0F827
:10072000842200F5AA6009F0F3F904F25450042180
:1007300009F0EEF904F5AB60042109F0E9F904F2DF
:100740005C50042109F0E4F904F5AC60042109F0DF
:10075000DFF904F26450042109F0DAF904F5AD6020
:10076000042109F0D5F904F26C50042109F0D0F904
:1007700004F5AE60042109F0CBF904F274500421B1
:1007800009F0C6F904F5AF60042109F0C1F904F2DB
:100790007C50042109F0BCF904F5B060042109F093
:1007A000B7F904F28450042109F0B2F904F5B160FC
:1007B000042109F0ADF9042104F28C5009F0A8F9E4
:1007C00004F5B26009F0A2F904F6B45009F076FA23
:1007D00004F69C5009F072FA04F6845009F06EFA9F
:1007E00004F66C5009F06AFA04F6545009F066FAFF
:1007F00004F63C5009F062FA04F6245009F05EFA5F
:1008000004F60C5009F05AFA04F6F44009F056FACE
:1008100004F6DC4009F052FA04F54C6009F04EFA97
:1008200004F6A84009F04AFA04F5496009F046FACE
:1008300004F6784009F042FA04F5466009F03EFA01
:1008400004F6484009F03AFA04F5436009F036FA34
:1008500004F6184009F032FA04F5406009F02EFA67
:1008600004F6E83009F02AFA04F53D6009F026FAAA
:1008700004F6B83009F022FA04F53A6009F01EFADD
:1008800004F6883009F01AFA04F5376009F016FA10
:1008900004F6583009F012FA04F5346009F00EFA43
:1008A00004F6283009F00AFA04F5316009F006FA76
:1008B00004F6F82009F002FA04F52E6009F0FEF9BA
:1008C00004F6C82009F0FAF904F52B6009F0F6F9EE
:1008D00004F6982009F0F2F904F5286009F0EEF921
:1008E00004F6682009F0EAF904F5256009F0E6F954
:1008F00004F6382009F0E2F904F5226009F0DEF987
:1009000004F6082009F0DAF904F51F6009F0D6F9B9
:1009100004F6D81009F0D2F904F51C6009F0CEF9FC
:1009200004F6A81009F0CAF904F5196009F0C6F92F
:1009300004F50B6504F6781004F5156609F0BEF9A8
:10094000B54205D0103E304609F0B8F9B542F9D1AC
:1009500004F5B666103D284609F0B0F9AE42F9D16B
:10096000204602F087FA204670BD00BF48FD000017
:10097000A0F52170FFF7CCBE10B50446FFF7C8FE06
:10098000204640F6046109F0C3F8204610BD00BFC0
:10099000A0F52170FFF7F0BF38B5D0F868327BB30F
:1009A000D0F86422D0F86042D0F86C1234F81250BB
:1009B00001328A42C0F86422044608BF002203F1D3
:1009C000FF3308BFC0F86422C0F86832C5F30012D4
:1009D00090F8141503F032FFD4F88032E943D3F8CD
:1009E0009400C9B205F09CFBF023013BFDD1D4F883
:1009F0008032FF21D3F89400BDE8384005F090BB69
:100A000038BD00BF2DE9F04FD64EDFF84884DFF83F
:100A100048B4DFF848A4D44F8BB03546044602F002
:100A200009FDD24B55F8240BD14AC4F8240540F2F5
:100A3000C92103F12C004FF004092360C4F81025EC
:100A4000C4F88402C4F80C1584F81495C94904F557
:100A5000B66009F087F9C84904F5B86009F082F971
:100A6000C64904F5BA6009F07DF9C54904F5BC60D2
:100A700009F078F9C34904F5BE6009F073F9C24979
:100A800004F5C06009F06EF9C04904F5C26009F0D0
:100A900069F9BF4904F5C46009F064F9BD4904F57A
:100AA000C66009F05FF9BC4904F5C86009F05AF95D
:100AB000BA4904F5CA6009F055F9B94904F5CC60A2
:100AC00009F050F9B74904F5CE6009F04BF9B64981
:100AD00004F5D06009F046F9B44904F5D26009F094
:100AE00041F9B34904F5D46009F03CF9B14904F582
:100AF000D66009F037F9B04904F5D86009F032F949
:100B0000AE4904F5DA6009F02DF9AD4904F5DC6071
:100B100009F028F9AB4904F5DE6009F023F9AA4988
:100B200004F5E06009F01EF9A84904F5E26009F057
:100B300019F9A74904F5E46009F014F9A54904F589
:100B4000E66009F00FF9A44904F5E86009F00AF934
:100B5000A24904F5EA6009F005F9984904F5EC604A
:100B600009F000F99E4904F5EE6009F0FBF89D4993
:100B700004F5F06009F0F6F89B4904F5F26009F01D
:100B8000F1F89A4904F5F46009F0ECF8984904F595
:100B9000F66009F0E7F8974904F5F86009F0E2F823
:100BA000954904F5FA6009F0DDF8944904F5FC6014
:100BB00009F0D8F8924904F5FE6009F0D3F891499C
:100BC00004F5006009F0CEF88F4904F5016009F0E2
:100BD000C9F88E4904F5026009F0C4F88C4904F59F
:100BE000036009F0BFF88B4904F5046009F0BAF816
:100BF000894904F5056009F0B5F8884904F50660EF
:100C000009F0B0F8864904F5076009F0ABF88549AA
:100C100004F5086009F0A6F8834904F5096009F0B5
:100C2000A1F8824904F50A6009F09CF8804904F5AE
:100C30000B6009F097F87F4904F50C6009F092F811
:100C4000414604F50D6009F08DF8594604F50E6033
:100C500009F088F8514604F50F6009F083F8394629
:100C600004F5106009F07EF8734904F5116009F08D
:100C700079F8724904F5126009F074F8704904F5C6
:100C8000136009F06FF86F4904F5146009F06AF811
:100C9000B44604F5156E5CF8040FDCF80820DCF8A7
:100CA0000410DCF80C30BCF810C0AEE80F0033467E
:100CB000AEF800C053F8181FC4F8621993F808E0A2
:100CC000586884F86AE904F678131A21C4F86609AA
:100CD00084F8741918460021C4F86C49C4F87049A6
:100CE000059309F02BF8584906A809F03BF8059B35
:100CF00006A9184609F0B4F806A808F0DFFFD4F8F2
:100D00006C29C4F8882904F519631E2284F88C29FB
:100D100018460021059309F011F84C4906A809F07E
:100D200021F8059B06A9184609F09AF806A808F0CC
:100D3000C5FFD4F86C29C4F8A02904F6A8131F2213
:100D400084F8A42918460021059308F0F7FF4049CC
:100D500006A809F007F8059B06A9184609F080F8CF
:100D600006A87DE0C0F400005CF8000048FD00002B
:100D700024F5000030F500003CF5000048F50000C7
:100D800058F5000064F5000070F5000080F50000E3
:100D900090F50000A0F50000B4F50000C8F50000D3
:100DA000D8F50000E8F50000F0F5000004F60000BA
:100DB0001CF6000028F600003CF600005CF600007F
:100DC00070F6000078F6000090F60000A4F600002F
:100DD000B4F60000C4F60000D4F60000E4F600000B
:100DE000F8F6000008F7000014F7000020F70000F4
:100DF0002CF7000038F7000044F7000050F700001F
:100E00005CF7000068F7000074F7000084F700004A
:100E100094F70000A4F70000B4F70000C4F7000046
:100E2000D4F70000E4F70000F4F7000004F8000035
:100E300018F80000A8FA00006CF8000078F800002C
:100E400090F8000098F80000A0F80000B0F800004A
:100E5000C4F8000020F8000030F8000044F800005A
:100E600008F02CFFD4F86C29C4F8B82904F51C63E9
:100E7000202284F8BC2918460021059308F05EFF63
:100E8000CE4906A808F06EFF059B06A9184608F093
:100E9000E7FF06A808F012FFD4F86C29C4F8D0299F
:100EA00004F6D813212284F8D4291846002105938A
:100EB00008F044FFC24906A808F054FF059B06A9A4
:100EC000184608F0CDFF06A808F0F8FED4F86C2903
:100ED000C4F8E82904F51F63222284F8EC29184697
:100EE0000021059308F02AFFB64906A808F03AFF4A
:100EF000059B06A9184608F0B3FF06A808F0DEFE19
:100F0000D4F86C29C4F8002A04F60823232284F8B4
:100F1000042A18460021059308F010FFAA4906A8E4
:100F200008F020FF059B06A9184608F099FF06A8BF
:100F300008F0C4FED4F86C29C4F8182A04F522631A
:100F4000242284F81C2A18460021059308F0F6FE96
:100F50009E4906A808F006FF059B06A9184608F05A
:100F60007FFF06A808F0AAFED4F86C29C4F8302A3E
:100F700004F63823282284F8342A184600210593E1
:100F800008F0DCFE924906A808F0ECFE059B06A9D5
:100F9000184608F065FF06A808F090FED4F86C2902
:100FA000C4F8482A04F52563292284F84C2A1846F7
:100FB0000021059308F0C2FE864906A808F0D2FE7B
:100FC000059B06A9184608F04BFF06A808F076FE18
:100FD000D4F86C29C4F8602A04F668232A2284F81D
:100FE000642A18460021059308F0A8FE7A4906A84D
:100FF00008F0B8FE059B06A9184608F031FF06A8C0
:1010000008F05CFED4F86C29C4F8782A04F528634B
:101010002B2284F87C2A18460021059308F08EFEC6
:101020006E4906A808F09EFE059B06A9184608F022
:1010300017FF06A808F042FED4F86C29C4F8902ADD
:1010400004F698232C2284F8942A1846002105934C
:1010500008F074FE624906A808F084FE059B06A904
:10106000184608F0FDFE06A808F028FED4F86C2902
:10107000C4F8A82A04F52B632D2284F8AC2A18465C
:101080000021059308F05AFE564906A808F06AFEAA
:10109000059B06A9184608F0E3FE06A808F00EFE18
:1010A000D4F86C29C4F8C02A04F6C8232E2284F888
:1010B000C42A18460021059308F040FE414606A8C0
:1010C00008F050FE059B06A9184608F0C9FE06A8C0
:1010D00008F0F4FDD4F86C29C4F8D82A04F52E637E
:1010E000322284F8DC2A18460021059308F026FEF7
:1010F0003D4906A808F036FE059B06A9184608F0EB
:10110000AFFE06A808F0DAFDD4F86C29C4F8F02A7E
:1011100004F6F823332284F8F42A184600210593B4
:1011200008F00CFE314906A808F01CFE059B06A934
:10113000184608F095FE06A808F0C0FDD4F86C2902
:10114000C4F8082B04F53163342284F80C2B1846BC
:101150000021059308F0F2FD254906A808F002FEDB
:10116000059B06A9184608F07BFE06A808F0A6FD18
:10117000D4F86C29C4F8202B04F62833352284F8DF
:10118000242B18460021059308F0D8FD194906A81C
:1011900008F0E8FD059B06A9184608F061FE06A8C0
:1011A00008F08CFDD4F86C29C4F8382B04F53463AE
:1011B000362284F83C2B184600211DE0D8F80000A8
:1011C000E8F80000F8F8000014F9000024F9000025
:1011D00034F9000044F9000058F900006CF90000EF
:1011E00080F900009CF90000B4F90000C4F9000087
:1011F000D8F90000ECF90000059308F09FFDCF49F5
:1012000006A808F0AFFD059B06A9184608F028FEC1
:1012100006A808F053FDD4F86C29C4F8502B04F646
:101220005833372284F8542B18460021059308F0D0
:1012300085FDC34906A808F095FD059B06A918463B
:1012400008F00EFE06A808F039FDD4F86C29C4F8A1
:10125000682B04F53763382284F86C2B184600217C
:10126000059308F06BFD394606A808F07BFD059B49
:1012700006A9184608F0F4FD06A808F01FFDD4F8EA
:101280006C29C4F8802B04F688333C2284F8842B24
:1012900018460021059308F051FDAA4906A808F058
:1012A00061FD059B06A9184608F0DAFD06A808F0BE
:1012B00005FDD4F86C29C4F8982B04F53A633D2257
:1012C00084F89C2B18460021059308F037FD9E49B1
:1012D00006A808F047FD059B06A9184608F0C0FDC2
:1012E00006A808F0EBFCD4F86C29C4F8B02B04F67F
:1012F000B8333E2284F8B42B18460021059308F039
:101300001DFD924906A808F02DFD059B06A918466B
:1013100008F0A6FD06A808F0D1FCD4F86C29C4F8A2
:10132000C82B04F53D633F2284F8CC2B18460021DE
:10133000059308F003FD864906A808F013FD059BF8
:1013400006A9184608F08CFD06A808F0B7FCD4F8EA
:101350006C29C4F8E02B04F6E833402284F8E42B2F
:1013600018460021059308F0E9FC7A4906A808F020
:10137000F9FC059B06A9184608F072FD06A808F0BE
:101380009DFCD4F86C29C4F8F82B04F54063412285
:1013900084F8FC2B18460021059308F0CFFC6E4919
:1013A00006A808F0DFFC059B06A9184608F058FDC2
:1013B00006A808F083FCD4F86C29C4F8102C04F6B5
:1013C0001843422284F8142C18460021059308F093
:1013D000B5FC624906A808F0C5FC059B06A918469D
:1013E00008F03EFD06A808F069FCD4F86C29C4F8A2
:1013F000282C04F54363462284F82C2C184600213F
:10140000059308F09BFC564906A808F0ABFC059B29
:1014100006A9184608F024FD06A808F04FFCD4F8E9
:101420006C29C4F8402C04F64843472284F8442C25
:1014300018460021059308F081FC4A4906A808F0E7
:1014400091FC059B06A9184608F00AFD06A808F0BD
:1014500035FCD4F86C29C4F8582C04F546634822AE
:1014600084F85C2C18460021059308F067FC3E497F
:1014700006A808F077FC059B06A9184608F0F0FCC2
:1014800006A808F01BFCD4F86C29C4F8702C04F6EC
:101490007843492284F8742C18460021059308F0FB
:1014A0004DFC324906A808F05DFC059B06A91846CC
:1014B00008F0D6FC06A808F001FCD4F86C29C4F8A2
:1014C000882C04F549634A2284F88C2C18460021A4
:1014D000059308F033FC264906A808F043FC059B59
:1014E00006A9184608F0BCFC06A808F0E7FBD4F8EB
:1014F0006C29C4F8A02C04F6A8434B2284F8A42C31
:1015000018460021059308F019FC1A4906A808F0AE
:1015100029FC059B06A9184608F0A2FC06A808F0BD
:10152000CDFBD4F86C29C4F8B82C04F54C634C22DC
:1015300084F8BC2C184600211EE000BF00FA000011
:1015400010FA000028FA000038FA00004CFA0000F7
:1015500060FA00007CFA00008CFA0000A4FA000097
:10156000B0FA0000C0FA0000D4FA0000E8FA000067
:1015700004FB000014FB0000059308F0DFFBD749D3
:1015800006A808F0EFFB059B06A9184608F068FCC2
:1015900006A808F093FBCDF8008021460223012223
:1015A000C4F8D04C04F6D44003F000FBD4F8D01CAF
:1015B000CDF800B00323012204F6EC4003F0F6FA64
:1015C000D4F8D01CCDF800A04B46012204F60450FC
:1015D00003F0ECFAD4F8D01C00970523012204F69E
:1015E0001C5003F0E3FABE4BD4F8D01C0093012248
:1015F000062304F6345003F0D9FABA4BD4F8D01CC1
:1016000000930122072304F64C5003F0CFFAB64BA7
:10161000D4F8D01C00930322022304F6645003F094
:10162000C5FAB24BD4F8D01C009303220C2304F665
:101630007C5003F0BBFAAE4BD4F8D01C00930322CD
:101640000D2304F6945003F0B1FAAA4BD4F8D01C41
:10165000009304F6AC500E23032203F0A7FA64367D
:1016600004F6C45E28686968AA68EB6877460FC705
:101670001035B542BE46F5D110219F4808F04AF812
:101680009E4808F085FA642007F02AF8D4F810156F
:1016900006A808F053FB06A904F2F44008F0E0FBAA
:1016A00006A808F00BFB4FF00008D4F80C35A4F89E
:1016B0000435162184F87182914808F02BF88F4880
:1016C00008F066FA642007F00BF81C2008F01AFAFC
:1016D0004FF0FF35072306460195009305220623A8
:1016E000884902F0B5F9C4F850651C2008F00AFAE0
:1016F0000095064609230822834902F0A9F9C4F897
:1017000054651C2008F0FEF9009506460B230A22BA
:101710007E4902F09DF9C4F858651C2008F0F2F9E2
:1017200019221823064602950192009316221723C8
:10173000774902F08DF9C4F85C651C2008F0E2F9E5
:101740002123202702931F230646039500931D2281
:101750001E237049019702F07BF9C4F860651C20D4
:1017600008F0D0F925222423064602950192009321
:1017700022222323684902F06BF9C4F864651C2017
:1017800008F0C0F929222823064602950192009309
:1017900026222723614902F05BF9C4F868651C2002
:1017A00008F0B0F94FF02D0A4FF02C0906460295CB
:1017B0008DE800062B232A22594902F049F9C4F882
:1017C0006C651C2008F09EF91C26834600952E238C
:1017D0001122544902F03CF9C4F870B5304608F0C3
:1017E00091F90195834600961B231A224E4902F077
:1017F0002FF9C4F874B5304608F084F915238346F0
:101800000295009601931A221B23484902F020F901
:10181000C4F878B5304608F075F909220B238346E1
:1018200002950192009308220A23414902F010F91F
:10183000C4F87CB5304608F065F902958346CDF8CA
:10184000009014230F223B49CDF804A002F000F9C8
:10185000C4F880B5304608F055F91F23814600933F
:1018600002951E231D223449019702F0F1F8C4F8B5
:101870008495304608F046F92B2307228DE82C008A
:101880008146062305222D4902F0E2F8C4F8889526
:10189000304608F037F92A2321220295019200935D
:1018A000032211232649064602F0D2F804F5AF625E
:1018B0002CCAC4F89C35D4F88435D4F86405D4F81F
:1018C0005C15C4F8A435D4F88835C4F89825C4F854
:1018D000A835C4F88C65C4F8AC6533E0A8FA0000FC
:1018E0006CF8000078F800002CFB00003CFB0000C6
:1018F00044FB000050FB00005CFB00006C87FF1FF6
:1019000070FB000088FB000094FB0000A0FB0000BF
:10191000A8FB0000B0FB0000B8FB0000C0FB00000B
:10192000C8FB0000D4FB0000E0FB0000ECFB000063
:10193000F4FB0000FCFB000004FC00000CFC0000B9
:1019400014FC0000C4F89005C4F89415C4F8A05520
:101950001021334807F0DEFE324808F019F9642000
:1019600006F0BEFE384608F0CDF804F521750126D4
:101970002946814600962C4B4FF4FA6203F094FC02
:10198000C4F83095384608F0BDF8294681460096DF
:10199000264BC82203F088FCC4F83495384608F07A
:1019A000B1F8234BCDF8008006464FF4FA72294671
:1019B00003F07AFC4146C4F83865304603F0A8FCD1
:1019C000384608F09FF81B4BCDF800804FF47A7230
:1019D0000646294604F59A6503F066FCD4F83015EE
:1019E000C4F83C65284603F03BFCD4F83415C4F831
:1019F0004005284603F034FCD4F83815C4F84405F3
:101A0000284603F02DFCD4F83C15C4F848052846B8
:101A100003F026FCC4F84C0520460BB0BDE8F08F5F
:101A20001CFC00006C87FF1F30FC000040FC000025
:101A30004CFC00005CFC000070B50446D0F830059A
:101A400003F076FC0025D4F830054FF4FA6103F07A
:101A50005DFC2946D4F8740584F8205502F0B6F8E8
:101A60002B462046FA220621BDE8704002F0BEBE99
:101A700010B5044690F81E15D0F86405012202F056
:101A800043F894F81E15032900D910BD4B1C84F8A7
:101A90001E35D4F864050222BDE8104002F034B8C7
:101AA000F8B590F8093504460D46ABB141F28831DE
:101AB00001F066FE4FF47A71204601F0CDFE94F8F5
:101AC0002015B1B1012606FA05F52943C9B20F293F
:101AD00084F820151FD0F8BD40F6B83101F050FE53
:101AE0004FF47A71204601F0B7FE94F820150029D2
:101AF000E8D10222D4F8740502F006F84FF4FA6136
:101B0000D4F8300503F002FCD4F8300503F004FCEF
:101B100094F82015D6E70221D4F8740502F03AF8BB
:101B2000054688B14EF660220221D4F8580502F02D
:101B300097F800220221D4F8740501F0E5FF204651
:101B4000BDE8F840FFF778BF3146D4F8740502F0DD
:101B500021F8074690B90146D4F8740502F01AF846
:101B60000028ECD0204642F2107101F009FE3A46FE
:101B70003946D4F8740501F0C7FFE0E7204605496F
:101B800001F0FEFD2A463146D4F8740501F0BCFF91
:101B9000D5E700BFA086010038B590F809350446A6
:101BA0000D46E3B140F6B83101F0EAFD4FF47A7129
:101BB000204601F051FE2946D4F8640501F0D8FF13
:101BC000022811D064222946D4F8640501F0BCFF34
:101BD000B4F81E2540F204539A4213D038BD4FF496
:101BE0007A7101F0CDFDE1E72046FFF741FF42F2B7
:101BF0001071204601F0C4FDB4F81E2540F20453D4
:101C00009A42EBD10122D4F850051146BDE8384084
:101C100001F07ABF38B590F8093504460D46CBB1CE
:101C200041F2883101F0ACFD4FF47A71204601F0A9
:101C300013FE2946D4F86C0501F09AFF012820D044
:101C400002280CD02946D4F86C050122BDE83840A2
:101C500001F05ABF40F6B83101F092FDE4E72946A1
:101C60000022D4F86C0501F04FFF94F81C350121D7
:101C700001FA05F51D43EDB20F2D84F81C5508D06F
:101C800038BD2946D4F86C050222BDE8384001F081
:101C90003BBFD4F8500501F0B7FF94F81B352BB9C2
:101CA000FF2803D0002384F81C3538BD02492046A4
:101CB00001F066FDF6E700BFA086010038B590F898
:101CC000093504460D4653B340F6B83101F058FDCE
:101CD0004FF47A71204601F0BFFD012D2AD029462C
:101CE000D4F8500501F056FFC0B100222946D4F8BF
:101CF000500501F009FF0021D4F8540501F066FFFA
:101D000094F8773303EB430304EB8303012193F847
:101D100044230A4483F8442384F81B1538BD4FF448
:101D20007A7101F02DFD4FF47A71204601F094FD97
:101D3000012DD4D11221204601F0AAFD90B9132122
:101D4000204601F0A5FD0028C9D094F821150229EC
:101D5000C5D84B1CD4F8680584F82135012201F060
:101D6000D3FEBCE70249204601F00AFDE7E700BFC9
:101D7000A086010090F8093510B5044683B141F200
:101D8000883101F0FDFC94F816358BB10023022256
:101D90000F21204601F06CFD012384F8163510BD9B
:101DA00040F6B83101F0ECFC94F81635002BEDD17B
:101DB0000122D4F850051146BDE8104001F0A4BE40
:101DC00010B546F2A811044601F0DAFC20460F21B6
:101DD00001F05EFD10B1012384F8183510BD00BF7D
:101DE00090F8093510B5044653B940F6B83101F002
:101DF000C7FC20464FF47A71BDE8104001F02CBDBD
:101E000041F2883101F0BCFC20464FF47A71BDE804
:101E1000104001F021BD00BF10B504464FF47A71A7
:101E200001F0AEFCD4F8580501F02AFFD4F85005B3
:101E3000BDE8104001F024BFCB1070B503EB830365
:101E400001F0070190F8065501EB4301064601F049
:101E5000FF047DB3012D2CD1B0F88833B0F82225D2
:101E6000934206D390F821159B1A0229A0F88833D3
:101E700027D9A4F11A03322B22D8DFE803F033214B
:101E8000212175818F999E2121212121A281A6994D
:101E90009EB452212121A281A69957656E3F21212E
:101EA000A281A644576521212121A281A64457B4CD
:101EB0003A0070BD2F2C03D112B190F86C334BB99E
:101EC00070BD4B1CD0F8680586F821352A4601F014
:101ED0001BFECEE7013B80F86C330121BDE870406A
:101EE00001F05CB8304641F28831BDE8704001F045
:101EF00047BC3046BDE87040FFF762BF3046BDE8E2
:101F0000704001F0D1BC3C4BA4F12B0183FB0123B9
:101F1000C917C1EBA3013046C9B2BDE87040FFF755
:101F200079BE3046BDE87040FFF724BF324BA4F1C4
:101F3000360183FB0123C917C1EBA3013046C9B2A7
:101F4000BDE87040FFF7BABEB4F13701304618BFA4
:101F50000121BDE87040FFF743BF304646F2A811AB
:101F6000BDE8704001F00CBC304646F2A81101F00B
:101F700007FC30464FF47A71BDE8704001F06CBC4C
:101F80001D4BA4F11F0183FB0123C917C1EBA30162
:101F90003046C9B2BDE87040FFF782BD30461E2111
:101FA00001F0EEFBD6F85805BDE8704001F068BEC0
:101FB0003046BDE87040FFF72FBF0F4BA4F1220160
:101FC000A4E70D4BA4F12801DDE70B4BA4F12A0196
:101FD00083FB0123C917C1EBA3013046C9B2BDE899
:101FE0007040FFF7D9BDB4F12D01304618BF012173
:101FF000BDE87040FFF7F4BE6766666670B5022103
:102000000446D0F8740501F0C5FD30BB054601213A
:10201000D4F8740501F0BEFD064650B90146D4F867
:10202000740501F0B7FD30BB1848BDE8704002F000
:102030005DB82A46D4F87405012101F065FD2946F2
:10204000D4F87405022201F05FFDD4F8300541F2A6
:102050008831BDE8704003F059B9D4F87405002206
:10206000022101F051FDD4F8740502220121BDE8DE
:10207000704001F049BDD4F874053246314601F094
:1020800043FD2046BDE87040FFF7D6BC6CFC000065
:1020900070B511210646134807F03CFB124807F0C3
:1020A00077FD06F28C5406F2AC5554F8040F00216B
:1020B00001F08CFD20680122002101F025FDAC42D9
:1020C000F3D1C8210023D6F83405A6F82A1586F8DE
:1020D0002E3503F01BF9D6F83405BDE8704003F047
:1020E0001BB900BF98FC00006C87FF1F10B50021D2
:1020F000044600F053FF2046FFF7CAFF13210748AC
:1021000007F008FB064807F043FD002384F8283554
:10211000D4F83C05BDE8104003F0FEB8ACFC00006C
:102120006C87FF1F70B5144684B004EBC4040546E9
:102130000E46A40068460F4907F000FE311901F56C
:102140002771684607F0FEFE0B4907F003FF3119BF
:1021500001F5237107F0F6FE084907F0FBFE014682
:10216000284607F011FE684607F0A8FD284604B08F
:1021700070BD00BFC0FC0000C4FC0000CCFC00002F
:1021800090F82E3570B5054600F28C5400F2AC562E
:10219000FBB154F8040F01F0B3FDB442F9D195F846
:1021A0002E351BB3B5F82A15053189B2A5F82A15C5
:1021B000D5F8340503F0AAF8B5F82A35653B9BB28B
:1021C000C62B05D995F82E3583F0010385F82E35F9
:1021D00070BD54F8040F01F053FDB442DFD054F841
:1021E000040F01F04DFDB442F3D1D8E7B5F82A153C
:1021F000053989B2A5F82A15DAE700BF70B590F85D
:10220000282584B005463AB1032A27D00FD80132D9
:1022100085F8282504B070BD00F080FF4FF47A7176
:10222000D5F83C0503F072F895F82825EFE7043A55
:10223000D2B268462946FFF775FF05236A46012199
:1022400005F10C0000F0A8FB95F82835082B24D0E8
:10225000684607F033FD95F82825D8E790F8283030
:1022600000F10C0600244BB12146304600F03EFC44
:10227000013495F82830E4B2A342F5D80A4A304632
:102280000523002100F074FB40F6C411D5F83C058D
:1022900003F03CF895F82825B9E70023684685F84F
:1022A000283507F00BFDB5E7D0FC000010B5D0F8DD
:1022B00040358B4282B0044617D0D0F8443599425D
:1022C00023D0D0F84835994225D0D0F84C359942E2
:1022D00005D0184802B0BDE8104001F009BF114612
:1022E00002B0BDE81040FFF789BF142112480192E7
:1022F00007F010FA114807F04BFC019A20461146EE
:1023000002B0BDE81040FFF779BE114602B0BDE84B
:102310001040FFF735BF1421094807F0FBF90748C3
:1023200007F036FC04F66450002102B0BDE810400E
:1023300002F05CBC18FD0000E8FC00006C87FF1F89
:1023400000FD0000A0F52170FFF7B0BF10B50446F6
:10235000006808B107F0DAFBA06808B107F0D6FB07
:10236000606808B107F0D2FB204610BD10B50446E6
:10237000642006F0B5F9A37B63B100231A462168F7
:10238000CA54A168CA546168CA540133A17B9BB284
:102390009942F4D810BD00BF38B504460D466420FC
:1023A00006F09EF9B5F5806F294628BF4FF480618D
:1023B000481EC0100130C0B2A181A07307F0A4FB79
:1023C0002060A07B07F0A0FBA060A07B07F09CFB37
:1023D00060602046FFF7CAFF204638BD70B484898C
:1023E0008C420CD901F007050124AC40C910E5B2BC
:1023F00089B23BB162B10268535C1D4216D0002025
:1024000070BC70474668765C3542F8D1002AF2D13C
:102410000668735C1D420CD023EA0404745482687D
:10242000535C1D435554012070BC70472B435354DB
:10243000F5E71046E4E700BF83898B420DD910B45D
:10244000012301F00704C910A34089B232B94068E2
:10245000425C22EA0303435410BC70474268505C5C
:102460000343535410BCF8E783898B420CD942686C
:10247000CB0801F00701D25C012303FA01F10A4203
:1024800014BF18460020704700207047827B4B1015
:102490009A4207D90268D05CCB0754BF00F00F0006
:1024A0000009704700207047837B8B4286BF03681A
:1024B000585C0020704700BF827B4B109A4207D9BE
:1024C0008268D05CCB0754BF00F00F000009704752
:1024D00000207047827B4B109A4207D911F0010F00
:1024E0008168CA5C03D002F00F02CA54704722F020
:1024F0000F02CA54704700BF2DE9F047446804EB4F
:10250000411486B0A37C002B38D00568637C95F815
:10251000158094F808900F460646092B00F20281B8
:10252000DFE813F067000A00DF007A0096007A0007
:102530009600AF00C6002F0094F81880214602A82C
:102540004FF0000A07F020FC029BCDF800A04246A5
:102550003946284602F02CFD02A807F0AFFBA37E07
:10256000002B00F0EC80238B01339BB22383327F5E
:10257000C9EB02094B4501D184F81AA006B0BDE8A9
:10258000F08706F089F8C0B2B0FBF8F308FB13053A
:10259000EDB203E0DDB2A84508BF00252A46394662
:1025A000306802F0CFFD202805F10103F2D1294661
:1025B000204607F0DDFC2A4603463946306802F023
:1025C000B3FD238B01339BB243452383D6D13668B9
:1025D0000025214602A807F0D7FB029B0095304654
:1025E00039462A4602F0E4FC02A807F067FBA5740E
:1025F000C4E794F818802146002602A807F0C4FB1F
:10260000029B009642463946284602F0D1FC02A8B9
:1026100007F054FBA674B1E7214602A807F0B4FB0B
:10262000238B029A03F1010E0126A4F818E01BB2D5
:1026300039462846009602F0EBFC02A807F03EFB64
:10264000238BC8EB0908434598DD0023A37495E765
:10265000214602A807F098FB238B029A03F1FF3E64
:102660000126A4F818E01BB239462846009602F06D
:10267000CFFC02A807F022FB238B4B457FF67EAFF1
:10268000E3E7238B09F1FF394B4570D0284602F070
:10269000FFFC218B4B1C2383204607F069FC08F1CB
:1026A000FF320346D2B23946306802F03DFD65E79D
:1026B000B4F81880B8F1000F49D1214602A807F0FC
:1026C00063FB029BCDF8008042463946284602F063
:1026D0006FFC09F1FF3902A807F0F0FAA4F818908E
:1026E0004CE7214602A807F04FFB4FF0000EB4F96B
:1026F0001830029ACDF800E03946284602F088FCEE
:1027000002A807F0DBFAA37E83B9238B01339BB2C7
:102710002383327FC2EB09094B457FF42FAF01239E
:10272000A3762BE700236374A37427E7238B013B75
:102730009BB22383002B7FF421AFA3761EE7238B6C
:10274000013B9BB22383002B7FF418AFE7E72846B9
:1027500002F0BAFC218B4B1E2383204607F008FCB5
:10276000394603460022306802F0DEFC06E7002608
:10277000214602A807F008FB029B0096394628462E
:10278000324602F015FC02A807F098FA2683F5E617
:10279000037F8B4200D870472DE9F04304468DB08B
:1027A0000D4668462168174602F0B6FC94E84200E0
:1027B00006EB45163223012F94F8148091F81590FA
:1027C000B38377740BD0022F14D0092F00F2BF808F
:1027D000DFE807F0B714BDA8748E2742B368237FE3
:1027E000984503D900233383B3760BE014BF012748
:1027F0000027EAE7237F984580F0A180002201238B
:102800003283B3760123B374237FAB4203D92946C5
:102810002046FFF771FE684607F050FA0DB0BDE89C
:10282000F08304F10C0108A807F0AEFA2A4604A8C8
:10283000216802F061FC04A908A807F083FB0146A7
:10284000304607F005FB04A807F038FA08A807F09F
:1028500035FA63693383D5E708AF3846B8F1000F1E
:1028600000F0828004F10C0107F08EFA3946304600
:1028700007F0F6FA384607F021FA08F1FF33338300
:10288000B8F1000F6AD004F10C01384607F07CFA69
:102890003946304607F0E4FA384607F00FFA0023CD
:1028A0003383AFE704F10C01304607F0D1FA294633
:1028B000206802F077FB00233383A3E7694608A86A
:1028C00007F062FA2A4604A8216802F015FC04A960
:1028D00008A807F037FB0146304607F0B9FA04A80C
:1028E00007F0ECF908A807F0E9F9A6F8189089E7CD
:1028F00004A82A4602F000FC04A908A807F044FA3C
:1029000008A804F10C0107F01DFB0146304607F052
:102910009FFA08A807F0D2F904A807F0CFF900231E
:1029200033836FE704A82A4602F0E6FB04A908A84F
:1029300007F02AFA694608A8E5E708AFA0E77FF4A0
:1029400051AF04F10C01304607F082FA5AE7002338
:102950006846B374338307F0B1F95FE72A4621680C
:10296000384602F0C9FB93E72A4602F0C5FB7DE733
:1029700070B5047F8C4200D870BD1E460D460446DB
:1029800011460C3007F074FA324629462046BDE85D
:102990007040FFF7FDBE00BF70B5047F8C4200D8C9
:1029A00070BD1E460D46044611460C3007F050FA25
:1029B000324629462046BDE87040FFF7E9BE00BF19
:1029C0002DE9F843057F002D56D0002406460F461A
:1029D0002046736803EB44139A7C4AB15A69998B79
:1029E000BA1A8A4204D35F61357FA5423DD80120DF
:1029F0000134E4B2AC42ECD3002D40D00023D6F831
:102A000008E098464FF0640C08E08D4212D982F835
:102A10001080357F0133DBB29D4224D9C3EBC30262
:102A20000EEB8202117C0029F4D05569518B7D1B7D
:102A30000029EAD1148B92F81290B5FBF4F104FB53
:102A400011550CFB05F5B5FBF4F44C458CBF002487
:102A50000124517C5474357F0133A142DBB218BF8D
:102A600001209D42DAD8BDE8F88330462146FFF7C1
:102A700043FD357F0120BBE72846BDE8F883BDE86C
:102A8000F88300BFF8B5064600680C46174602F00A
:102A900059FBB368C4EBC40403EB84040546237CF0
:102AA0000BB92846F8BD3946204607F061FA2028C0
:102AB000F7D0637C002B14BF28462020F8BD00BF50
:102AC000F8B58368427FC1EBC10103EB810662B1B7
:102AD0000546002420272146304607F059FA0770A2
:102AE00001346B7FE4B2A342F5D8F8BD38B5044693
:102AF00000680D4602F056FA237F60680A49AB422F
:102B000000EB451084BF00238374A368C5EBC502A6
:102B100003EB820300221A7407F0AAF92946204623
:102B2000BDE83840FFF7CCBF64FF00002DE9F04757
:102B300001600C7D04774B7D4377202506460820F5
:102B400084B005FB040006F0DFFF00F108094460D3
:102B500005609CB1671E00254C464FF001082046D9
:102B6000013F002107F0EAF87A1C84F810806574B0
:102B7000A5746561258304F12004F0D1347FC6F883
:102B800004901C25082005FB040006F0BDFF05602D
:102B900000F108084460651EC4B1444600274FF0A8
:102BA000010A4FF032092046002107F0C7F8013D25
:102BB0004FF4FA7323836B1C277484F811A084F8F4
:102BC00012906761678304F11C04ECD1337FC6F86F
:102BD000088083B30025AA464FF00109322701E09F
:102BE000D6F808803168C5EBC50308EB8304684656
:102BF00002F092FA6946204607F032F9684607F07B
:102C00005DF84FF4FA7384F810A084F81190A7745B
:102C1000A4F81AA023830135337FEDB2AB42DFD88D
:102C20004BB1002421463046FFF760FF0134337F6B
:102C3000E4B2A342F6D804B0BDE8F0872DE9F8432A
:102C400006461C4690460F46FFF73AFF737FA342A5
:102C50001BD998F80050A146BDB1C7EBC707BF000C
:102C600002E018F8035085B1B0682146384407F0F7
:102C70008FF9202D14BF7823202303700134727F35
:102C8000E4B2A242C9EB0403EBD8BDE8F88300BF6D
:102C90002DE9F04F047F85B08C429DF838909DF867
:102CA0003CA002D805B0BDE8F08F04460EB24068E3
:102CB0004FEA461B0D46584411469846174607F002
:102CC000D7F894E809005B444FF0000BA3F8188094
:102CD00083F811B083F812B04246CDF800A03B460D
:102CE000294602F065F9B9F1000F09D1A368C6EBD6
:102CF000C60603EB860686F8109005B0BDE8F08F97
:102D000043463A4629462046FFF798FFC6EBC606DB
:102D1000A3680949B600334432229A74A26809684C
:102D2000039116444FF4FA700121039AA3F81AB0E4
:102D3000188331747261B5E79C95FF1F2DE9F04748
:102D4000976805461C461F4490460E46FFF7B8FE9E
:102D50006B7FA3421FD9FFB2BC421CD2C6EBC60692
:102D6000B600A14601E0A74215D9C9EB04014046CF
:102D700007F0FEF88246A8682146304407F008F9BB
:102D8000BAF1200F14BF78232023037001346A7F27
:102D9000E4B2A242E7D8BDE8F08700BF2DE9F04FCA
:102DA000047F89B08C429DF848909DF84CA002D8D1
:102DB00009B0BDE8F08F04460EB240684FEA461BEA
:102DC0000D46584411469846174607F041F894E8D6
:102DD0000C005B444FF0000BA3F8188083F811B08F
:102DE00083F812B0394604A8039206F0CDFF039A87
:102DF000049BCDF800A010462946424602F0D8F8C0
:102E000004A806F05BFFB9F1000F09D1A368C6EB77
:102E1000C60603EB860686F8109009B0BDE8F08F71
:102E200043463A4629462046FFF788FFC6EBC606CA
:102E3000A368094AB600334432219974A168126824
:102E4000A3F81AB00E444FF4FA70012118833174BC
:102E50000492049B7361ABE79C95FF1F704700BF12
:102E6000704700BF704700BFA0F52170FAE700BFB0
:102E7000704700BF304B70B5D0F88C4303602C33E3
:102E80000546C0F8843234B1204600F0B7FF204632
:102E9000082106F03DFE05F2F44006F00FFF05F5AF
:102EA0009A6006F00BFF05F5986006F007FF05F540
:102EB000956006F003FF05F5926006F0FFFE05F54C
:102EC0008F6006F0FBFE05F58C6006F0F7FE05F25C
:102ED000444006F0F3FE05F22C4006F0EFFE05F24A
:102EE000144006F0EBFE05F57F7006F0E7FE05F5F1
:102EF000797006F0E3FE05F5737006F0DFFE05F568
:102F00006D7006F0DBFE05F5227605F5677005F5B8
:102F10004F7406F0D3FEA64209D0243C04F11400FD
:102F200006F0CCFE201D06F0C9FEA642F5D12846CB
:102F300001F014FB284670BDC0FD0000A0F5217013
:102F4000FFF798BF10B50446FFF794FF204640F204
:102F50000C5106F0DDFD204610BD00BFA0F521702C
:102F6000FFF7F0BF10B50446083003F0CDFD204652
:102F700010BD00BF38B5074C07480D46112106F0BB
:102F8000C9FB2946204606F069FE2046BDE83840C8
:102F900006F0FEBD6C87FF1FFCFD000070B584B01D
:102FA0000C4605460021684606F0C8FE00F096FF74
:102FB000204800F0B3FF204601F04AF885F80645A6
:102FC000ECB1012C16D12146284601F0EFFC95F812
:102FD000283005F10C0600244BB121463046FFF79E
:102FE00085FD013495F82830E4B2A342F5D80023DA
:102FF00085F80735684606F061FE04B070BD2146CD
:10300000284601F0D3FC95F8283005F10C064BB1A9
:1030100021463046FFF76AFD013495F82830E4B2C6
:10302000A342F5D8012385F80735684606F046FE29
:1030300004B070BD10FE000090F8073503B970476A
:103040000221FFF7ABBF00BF2DE9F04188B0054674
:10305000904631499DF838409DF83C6004A81F46D1
:1030600006F080FE0A224146684606F0BFFE694629
:1030700004A806F067FF0146284606F085FE68466C
:1030800006F01CFE04A806F019FEAA680A2F94BFD9
:10309000D21B0A3A294604A806F0C6FF04A928460E
:1030A00006F0DEFE04A806F009FE2F7A0CB9022F06
:1030B0001CD8BEB1032F15D93E1F03243146284624
:1030C00006F056FF034660F07F02202B3146D2B255
:1030D0002846A6F1030605D00334E4B206F052FFF9
:1030E000A742EBD8284608B0BDE8F081A7F1020856
:1030F000B8F1000FDDDD2146284606F039FF302803
:10310000D7D12146013420222846E4B206F03AFF06
:103110004445CEDAEFE700BF2CFE00002DE9F04376
:1031200097B00546002106A806F008FE00210AA86F
:1031300006F004FE00210EA806F000FE12A80021F1
:1031400006F0FCFD2C4606AE05F130094FF00008F4
:1031500001270823D4F83C230DEB030029468DE812
:103160008001FFF771FF02A9304606F079FE0C34AA
:1031700002A806F0A3FDA14506F11006E9D195F8D5
:10318000283005F10C0600244BB121463046FFF7EC
:10319000ADFC013495F82830E4B2A342F5D8002400
:1031A0002346214606AA304601940094FFF7F6FD17
:1031B00021460AAA3046019400940C23FFF7EEFD45
:1031C00023460EAA3046019400940121FFF7E6FD44
:1031D00012AA0C233046019400940121FFF7DEFD72
:1031E00095F86C1302A806F0EDFD049B0194C3F161
:1031F0000A03DBB202AA012130460094FFF7CEFD9C
:1032000002A806F05BFD12A806F058FD0EA806F015
:1032100055FD0AA806F052FD06A806F04FFD17B0AE
:10322000BDE8F0832DE9F0438BB080463349344F3D
:1032300002A806F083FD1521324806F06BFA3248E9
:1032400006F0A6FC08F5277524260024022C31463A
:1032500046D8D8F8800202F0B1FA02A945F8140C59
:10326000284606F0F5FD04EBC40308EB83030121B7
:10327000D3F8882201910023A5F11009009341465B
:10328000082306A8FFF7E0FE06A9484606F0E8FD79
:1032900006A806F013FD22461C491B4806F090FCC8
:1032A0002946194806F04EFC0521194806F032FA65
:1032B0004946154806F046FC01341348A7F5F427A3
:1032C00006F066FC0836052CA7F5907705F1240575
:1032D000F6B2BBD102A806F0F1FC0BB0BDE8F0835A
:1032E00045F8147C0B4906A806F03CFD06A92846C3
:1032F00006F0B6FD06A806F0E1FCB4E738FE0000D3
:10330000A02526003CFE00006C87FF1F58FE000031
:10331000C4FC000054FE000070B5064600F55E7562
:1033200016242146D6F8800202F048FA0434E4B2AA
:10333000222C45F8040FF4D170BD00BF2DE9F843ED
:10334000DFF84090DFF84080064600F55C75002409
:103350000127E1B2D6F8800202F026FA18280DD82B
:1033600019F8002018F800302A7005F8033C0134E1
:10337000032C05F10105ECD1BDE8F8832F7005F8A9
:10338000037CF4E79CFD000068FF000038B50D21C8
:103390000546244806F0BEF9234806F0F9FB6420F0
:1033A00005F09EF9214BD5F88C231A60002485F88E
:1033B000774285F8784285F8084585F86C4385F8AA
:1033C000734385F8744385F87543C5F83C43C5F8E5
:1033D0004843C5F85443C5F860430122A1B2686868
:1033E0001444FFF729F8032CF7D11521104806F0F3
:1033F00091F90D4806F0CCFB642005F071F901232A
:1034000085F809352846FFF799FF2846FFF784FF1E
:103410002846FFF707FF28460021BDE83840FFF7A0
:10342000BDBD00BF60FE00006C87FF1FC892FF1F7C
:1034300070FE000070B5044686B001F027F9B04B6D
:10344000C4F884321921AF4806F064F9AE4806F09A
:103450009FFB642005F044F9AC4B23602C33C4F887
:10346000843204F5237504F550760021284606F0D1
:1034700065FC05F110000021243506F05FFCAE422A
:10348000F3D13022002104F54F7008F0D1F804F593
:103490006775062384F89833C4F89043C4F89443BE
:1034A0002846002106F04AFC02A8994906F05AFC79
:1034B00002A9284606F0D4FC02A806F0FFFBD4F8C7
:1034C0009033C4F8AC3304F56D75072384F8B0333A
:1034D0002846002106F032FC02A88E4906F042FC84
:1034E00002A9284606F0BCFC02A806F0E7FBD4F8C7
:1034F0009033C4F8C43304F57375102384F8C833CB
:103500002846002106F01AFC02A8834906F02AFC8E
:1035100002A9284606F0A4FC02A806F0CFFBD4F8C6
:103520009033C4F8DC3304F57975112384F8E03363
:103530002846002106F002FC02A8784906F012FC99
:1035400002A9284606F08CFC02A806F0B7FBD4F8C6
:103550009033C4F8F43304F57F751B2384F8F833F3
:103560002846002106F0EAFB02A86D4906F0FAFBA6
:1035700002A9284606F074FC02A806F09FFBD4F8C6
:103580009033C4F80C3404F21445252384F8103425
:103590002846002106F0D2FB02A8614906F0E2FBB2
:1035A00002A9284606F05CFC02A806F087FB04F29C
:1035B0002C45D4F89033C4F824342F2684F828649A
:1035C0002846002106F0BAFB02A8564906F0CAFBBD
:1035D00002A9284606F044FC02A806F06FFB04F29C
:1035E0004445D4F89033C4F83C3484F84064284609
:1035F000002106F0A3FB02A84B4906F0B3FB02A989
:10360000284606F02DFC02A806F058FB0D2147487D
:1036100006F080F83C4806F0BBFA4FF4FA7005F06B
:103620005FF80123424AC4F854442146009204F54D
:103630008B601A4601F0BAFA3E4BD4F8541400934A
:103640000122082304F58E6001F0B0FA3A4BD4F859
:10365000541400930122092304F5916001F0A6FAA5
:10366000364BD4F8541400930322002304F59460DD
:1036700001F09CFA324BD4F8541400930322012336
:1036800004F5976001F092FA0E212E4806F042F8F8
:103690001D4806F07DFA4FF4FA7005F021F804F2A7
:1036A000F44504F59A6001F05BFD2846002106F020
:1036B00045FB0C21244806F02DF8134806F068FA63
:1036C000642005F00DF8082006F01CFA30210646AB
:1036D00000F054FBC4F88C6302A81C4906F02EFBD2
:1036E00002A9284606F0BCFB02A806F0E7FA002370
:1036F0002046A4F80435FFF749FE204606B070BD09
:1037000090FD000088FE00006C87FF1FC0FD0000D8
:10371000A4FE0000B8FE0000C4FE0000DCFE0000B5
:10372000E8FE0000F4FE000004FF000014FF0000AB
:10373000A8FA000090F8000098F8000024FF0000AC
:103740002CFF000034FF000044FF000054FF000085
:1037500038B504460D46D0F88002012102F024F865
:1037600094F86C13054AC0F387106B18125CD9B239
:10377000914228BF114684F86C1338BDF8FD000053
:1037800070B590F877335D00EA1800EB82020446CA
:1037900092F84563D2F83C03022E0144C2F83C1370
:1037A00005D804EB8600D0F87C03814227D22B4455
:1037B00004EB830393F846232AB9D3F83C13D4F8D7
:1037C0008822914200D270BD012683F846631721FA
:1037D000D4F8800202F00EF818210546D4F88002D1
:1037E00002F008F800EB4501C9B22046FFF7B0FF30
:1037F000324620460821BDE8704000F0E1BF0136A6
:1038000082F84563D4F880021D2101F0F3FF0128FE
:103810000CD001212046FFF79BFF01220821204602
:1038200000F0CEFF94F877335D00C0E794F877237B
:1038300002EB420204EB8202002392F844130131AE
:1038400082F844132046FA22082100F0CFFF94F8B2
:1038500077335D00ABE700BF90F8773303EB4303AA
:1038600000EB8300D0F840331944C0F84013704790
:1038700038B5064814461D46006800F0C7FA2A46C7
:103880002146BDE8384000F091B800BFC892FF1F44
:1038900008B5044B186800F0B9FABDE8084000F01C
:1038A000D1B800BFC892FF1F704700BF70B50D466A
:1038B0000A4E044600F59A6001F0D4FC296830688D
:1038C00000F0F0FA0023306861681A4600F0BEFA92
:1038D00029462046BDE8704001F00EB9C892FF1F8E
:1038E00010B5054C204602F057F82046034A04491B
:1038F000BDE8104007F0EEBA9C92FF1F2087FF1F23
:10390000652F0000002210B44FF4FA743221448075
:103910000171027082734270828110BC704700BFD7
:103920004A784B8870B40C780470427043800B79ED
:1039300003718E688D898C7B0A698B8A838286608D
:1039400085818473026170BC704700BF10B4012987
:1039500083B01ED019D302290FD1012404700E4C5C
:10396000417021680191019981604AB9C822428061
:103970004BB9322303710023838103B010BC70471D
:103980004280002BF5D00371F5E7002101704170F2
:10399000EBE70170E3E700BF9C95FF1F02290CBF16
:1039A000C82200223223FFF7D1BF00BF3223FFF726
:1039B000CDBF00BF10B4074A03781268818283B07C
:1039C00001240192019A847363400261037003B081
:1039D00010BC70479C95FF1F4378022B70B404788D
:1039E0001CD02346827B22B10269858A8A1AAA42A8
:1039F0000ED84BB182893AB18568491B914203D3F5
:103A0000002383814370037084EA030070BC704715
:103A100083F00103002203708273EAE7826845881D
:103A200006798A1AB2FBF5F305FB1323642202FB25
:103A300003F2B2FBF5F3B3422CBF00230123037062
:103A4000D0E700BF4078003018BF0120704700BFAA
:103A50000CB4F0B5044685B00D46002106F06EF9B1
:103A600000232375182006F04DF80746FFF74AFF9C
:103A70000A9EA761731C207D07D00AAB53F8042F60
:103A800001300132C0B2F9D1207506F03DF8237D36
:103A900020615BB1002303E00AAA206952F8236089
:103AA000C6540133227DDBB29A42F5D829466846D6
:103AB00006F044F96946204606F0D2F9684606F059
:103AC000FDF8204605B0BDE8F04002B0704700BFE9
:103AD0000A4B10B51C683CB103692046595C00F0E4
:103AE00095F9044628B110BD054800F0FFFA2046BC
:103AF00010BD044800F0FAFA204610BDC892FF1F1E
:103B000084FF0000B4FF000038B50C4B1B687BB18C
:103B1000037D8B4207D91446FFF7DAFF2146BDE843
:103B20003840FFF73BBF0648BDE8384000F0DEBA3A
:103B30000448BDE8384000F0D9BA00BFC892FF1F62
:103B400004000100DCFF0000074B1B6843B110B507
:103B50001446FFF7BDFF2146BDE81040FFF72ABF1E
:103B6000024800F0C3BA00BFC892FF1F580001000E
:103B7000074B1B684BB110B5037D8B4201D8002069
:103B800010BDFFF7A5FF407810BD1846704700BF75
:103B9000C892FF1F0A4B1B6810B56BB1037D8B42A7
:103BA00005D9FFF795FFBDE81040FFF74BBF05486B
:103BB00000F09CFA002010BD034800F097FAF9E7E6
:103BC000C892FF1FAC000100800001000C4B1B6875
:103BD00093B1037D7BB170B50E4605460024E1B27A
:103BE0002846FFF775FF3146FFF7D8FE2B7D0134DD
:103BF000A342F4DC70BD7047024800F077BA00BF02
:103C0000C892FF1FD8000100134B1B6870B5EBB1C1
:103C10000546007DC8B10E46002403E02B7DD4B2DA
:103C2000A34211D921462846FFF752FF4378B342F9
:103C300004F10102F2D021462846FFF749FF314640
:103C4000FFF7ACFE204670BD204670BD034800F073
:103C50004DFAFF2070BD00BFC892FF1F0401010094
:103C600070B515460646FFF7CFFF044635B1FF286D
:103C700004D030462146FFF72BFF8581204670BDDA
:103C8000F8B51C4B1B687BB3017D0129064626D97C
:103C90000139C9B28469FFF71BFF01462046FFF7CF
:103CA0003FFE347D023C11D4E5B2691CC9B23046F6
:103CB000FFF70EFF294607463046FFF709FF013C94
:103CC00001463846FFF72CFE631CEDD1002130463B
:103CD000FFF7FEFEB169BDE8F840FFF721BE0648D8
:103CE000BDE8F84000F002BA0448BDE8F84000F032
:103CF000FDB900BFC892FF1FF8010100C801010013
:103D0000F8B51C4B1B6883B3037D012B06462BD9EA
:103D100000218469FFF7DCFE01462046FFF700FE24
:103D2000317D0129D8BF01F1FF3114DD0025ECB24E
:103D300021463046FFF7CCFE611C0746C9B230462B
:103D4000FFF7C6FE01463846FFF7EAFD317D013533
:103D50000139A942EBDCC9B23046FFF7B9FEB169BF
:103D6000BDE8F840FFF7DCBDF8BD0348BDE8F8400A
:103D700000F0BCB9C892FF1F780201002DE9F041A4
:103D80000E46074610211B4805F0C4FC1A4805F0F2
:103D9000FFFE642004F0A4FCB6F5807F17DCB6F1CA
:103DA000AA6F1DD94FF0FF3005F0AEFE741E80469D
:103DB00045462846013CFFF7A5FD631C05F11805A3
:103DC000F7D1C7F800807E603846BDE8F0814FF437
:103DD000C05005F099FEFF2480464FF48076E7E757
:103DE00006EB4600C00005F08FFE741E621C804684
:103DF000E7D0DDE7B40201006C87FF1F10B5044671
:103E0000006808B105F082FE204610BD43688B4271
:103E100005DD006801EB410100EBC100704710B502
:103E200084B00C466846084905F09CFF2146684668
:103E300006F074F8684600F045F9684605F03EFF64
:103E4000002004B010BD00BFC80201002DE9F04100
:103E500080460F46144613BB0679A64206D9D8F809
:103E600004309E4213DDDEB2B44210D3BDE8F081CF
:103E700004EB440ED8F800200346294612F83E20F1
:103E80003846FEF7ABFA0134E4B2B442EED2A5B242
:103E900029463846FEF7E8FA0028F4D1E8E701336E
:103EA000DEB2DAE7F8B54368002B15DD00240F46D3
:103EB000054626462B6804EB440003EBC000394658
:103EC000FFF78AFD01346B680028E4B218BF0126B1
:103ED0009C42EFDB3046F8BD0026FBE708B50A4BF5
:103EE0001B7823B1094B186808B102F059FB084B45
:103EF0001B7803B908BD0A21064805F00BFC0648EB
:103F0000BDE8084005F044BED492FF1FD092FF1FC9
:103F1000CC92FF1F500301006C87FF1F38B50E4B7A
:103F20001B78044653B10D4B1D683DB107F0A8FE48
:103F30002B6802465B68284621469847084B1B7849
:103F400003B938BD204607F09BFE01462046BDE878
:103F5000384005F0DFBB00BFD492FF1FD092FF1F97
:103F6000CC92FF1FFFF7DABF0C4B1B7810B504464D
:103F70003BB10B4B186820B100230A22214605F003
:103F80002DFE084B1B7803B910BD214600230A22E1
:103F90000548BDE8104005F021BE00BFD492FF1FC8
:103FA000D092FF1FCC92FF1F6C87FF1F38B50D4BBF
:103FB0001B7804464BB10C4B1D6835B101462846B1
:103FC00005F0C0FD284605F0E3FD084B1B7803B95A
:103FD00038BD2146064805F0B5FD0548BDE8384026
:103FE00005F0D6BDD492FF1FD092FF1FCC92FF1FC9
:103FF0006C87FF1F38B5114B1B7804466BB1104B13
:104000001D6855B107F03CFE2B6802465B682146EF
:1040100028469847284605F0BBFD0A4B1B7803B994
:1040200038BD204607F02CFE0146204605F072FB05
:104030000548BDE8384005F0ABBD00BFD492FF1F76
:10404000D092FF1FCC92FF1F6C87FF1FFFF7D2BFDC
:1040500038B50F4B1B7804465BB10E4B1D6845B15C
:10406000014600230A22284605F0B8FD284605F03F
:104070008FFD094B1B7803B938BD214600230A2266
:10408000064805F0ABFD0548BDE8384005F080BDA9
:10409000D492FF1FD092FF1FCC92FF1F6C87FF1F8F
:1040A00010B5074B04461868FFF738FF2046FFF7A6
:1040B0007DFF4FF4FA70BDE8104004F011BB00BF63
:1040C0002487FF1FFFF7ECBF10B5074B04461868A5
:1040D000FFF724FF2046FFF78DFF4FF4FA70BDE88D
:1040E000104004F0FDBA00BF2487FF1FFFF7ECBFAC
:1040F000FFF7EABF08B501F01FF9FFF735FF0248E7
:10410000BDE80840FFF776BF5C03010070B50C46C0
:10411000064616211A4805F0FDFA1A4805F038FD42
:10412000642004F0DDFA631E1E2B23D804EB440048
:10413000C00005F0E9FC002200F11803114641F22D
:1041400088350132944203F8181C43F8141C23F8F4
:10415000101C23F80E5C03F11803F2D1306010201C
:1041600005F0D0FC21460546FEF716F9347275605D
:10417000304670BD002333723360304670BD00BFDF
:10418000940301006C87FF1F38B50446006808B12E
:1041900005F0BCFC656835B12846FEF7D7F828461F
:1041A000102105F0B5FC204638BD00BF01EB4103EE
:1041B00070B5DB000468E55C954282B004EB030651
:1041C00012D00B4D2D680195E254019B52B97361D9
:1041D0000546002340680C46FEF700F901206C728A
:1041E00002B070BD3361F3E7002002B070BD00BFC4
:1041F0009C95FF1F30B50D4B05681B6883B001937C
:1042000001EB4103DB00EC18ED5C019B6360954220
:104210004FF00003A381238104D0FFF7C7FF0120E3
:1042200003B030BD184603B030BD00BF9C95FF1FE2
:10423000037A8B4201D9FFF7DDBF0020704700BF32
:10424000F0B5077A8F4283B011D91E460B4B056833
:104250001B68019301EB410405EBC404019B6360FF
:1042600017463EB101202781A68103B0F0BD002092
:1042700003B0F0BD0122FFF799FFF3E79C95FF1F04
:1042800038B5037A93B10546002403E00134E4B263
:10429000A3420BD99C42F9D2214600222846FFF7BF
:1042A000A9FF01342B7AE4B2A342F3D838BD00BF92
:1042B0002DE9F843027A002A56D0002588460746A1
:1042C0002E46AE460EE0608928B1D8F8003021694C
:1042D0005B1A834237D8238933BB0136B24205F1DA
:1042E00018051EDD3C68635D2C44002BEBD1A389CF
:1042F000002BF2D06068D8F80010091A9942ECD36C
:104300005FFA86F9494601223846FFF74FFF3A7AAD
:1043100087F809900136B2424FF0010E05F11805F9
:10432000E0DC7046BDE8F8832069D8F80010091A6F
:104330008B4238BF5FFA86F9CFD200224946384611
:10434000FFF734FFE3E75FFA86F900224946384673
:10435000FFF72CFF2289002AD9D02169D8F8003034
:104360005B1A9342D3D9E8E79646DAE7F8B5067ABE
:1043700086B1002507462C462E4621467868FEF772
:1043800093F80134E4B23B7AA840E5009D4246EA46
:104390000006F2DB3046F8BDF0B400F20B273E46D3
:1043A00000F203250346002205F8012F06F8012F2D
:1043B00003F1200143F8042F8B424FF00004F9D1A0
:1043C000BD42F1D1FF2380F814424370F0BC704726
:1043D00010B5044610F5017001D005F097FB14F5F7
:1043E000037001D005F092FB201D01D005F08EFB7B
:1043F000204610BD90F8143201330246D8B2072887
:1044000089BF002382F8140282F8143218467047DC
:1044100090F81402704700BF90F81432184490F8D6
:1044200004027047407870472DE9F04101F0070120
:1044300000EB010C86469CF80402504037D04D0139
:1044400005F1200701EB810198468EF80000490034
:104450007744754401240EE09CF8046226438CF8EE
:104460000462D8F800606E60043564000131BD421A
:10447000E4B2C9B21BD02042F6D0D5F80461224282
:1044800006F10106C5F804618EF80110E4D1D8F8F0
:1044900000606B68F61A312E0BD99CF8046226EA8C
:1044A00004068CF80462D8F800606E60DCE7BDE8B2
:1044B000F08120EA0400D7E713460A4690F8141268
:1044C000FFF7B2BF0078003018BF0120704700BF6F
:1044D000084AA2FB0132D20802EB8202A1EB42039E
:1044E000DBB21844C91A90F80402C9B2C84000F0FF
:1044F00001007047CDCCCCCC704700BF704700BFE7
:10450000D0F8683243B3D0F86422D0F8601210B506
:10451000D0F86C4231F812100132A242C0F8642285
:1045200004BF0022C0F86422D0F88022013BC943B6
:10453000C0F868320446C9B2D2F8940001F0F0FD28
:10454000F023013BFDD1D4F88032FF21D3F8940051
:10455000BDE8104001F0E4BD704700BF334B70B5BB
:10456000152103600546324805F0D4F8314805F0BE
:104570000FFBAC6834B12046FFF706FE20460C2145
:1045800005F0C6FA6C6834B12046FDF7DFFE204620
:10459000102105F0BDFAD5F8600208B105F0B6FAB1
:1045A00005F14800FFF714FF686B08B105F0AEFA9B
:1045B0002C69BCB154F8041C49016618B44201D1FD
:1045C0000BE02646A6F12004204605F077FB2B6978
:1045D000A342F6D156F8241C49010831A4F1080081
:1045E00005F098FA6C69DCB154F8041CC1EBC10108
:1045F00089006618B44201D10DE02646A6F11C04DC
:10460000204605F05BFB6B69A342F6D156F8201CEF
:10461000C1EBC10189000831A4F1080005F07AFA64
:1046200005F1180005F04AFB284670BDF8030100AB
:10463000140401006C87FF1F10B50446FFF78EFFBE
:1046400020464FF4217105F063FA204610BD00BFEB
:10465000036810B55A690A4CA2420DD10C460948AC
:10466000112105F057F82146074805F0F7FA0648EA
:10467000BDE8104005F08CBABDE81040104700BFFF
:10468000752F0000FCFD00006C87FF1F1F4B70B5ED
:10469000044640F80C3B00F0B9FA04F14800FFF77B
:1046A0007BFE0A23C4F86C32142005F02DFA002595
:1046B0000E21C4F86002C4F86452C4F86852C4F809
:1046C0008052134805F026F8124805F061FA64207C
:1046D00004F006F80C2005F015FA09210646FFF74C
:1046E00015FDA660102005F00DFA30210646FDF7F5
:1046F00053FEFF22012384F87522666084F8745209
:1047000084F8713284F87232204670BDF8030100DB
:104710002C0401006C87FF1F70B50F2182B0054685
:10472000214804F0F7FF214805F032FA642003F035
:10473000D7FFD5F880329BB1D3F88800002101F073
:10474000CBFB1B4B08241C60642003F0C9FFD5F889
:104750008032184AD3F894001460FF2101F0E0FC85
:1047600068680024FDF702FE05F10C06A868FFF753
:1047700087FD3046C5F86442C5F8684285F8704246
:1047800000F08CFB234621463046019400940A4AEF
:10479000FEF77EFA0194009423463046074A012131
:1047A000FEF776FA02B070BD3C0401006C87FF1F73
:1047B00048F00F4044F00F404C0401006404010035
:1047C0000139C9B2082900D9704710B5044680687C
:1047D000FFF72EFDA068D4F88042FFF7C7FD81B235
:1047E000D4F88800BDE8104001F076BB0139C9B2A9
:1047F000082900D9704710B504468068FFF720FDEE
:10480000A068D4F88042FFF7B1FD81B2D4F88800E7
:10481000BDE8104001F060BB10B504468068FFF7AA
:1048200047FDA068D4F88042FFF7A0FD81B2D4F81C
:104830008800BDE8104001F04FBB00BF4068002376
:10484000FDF7CCBD024B186800F00100704700BFB7
:10485000D0F00F4038B505464830FFF7CBFD0121B9
:10486000D5F880328140C9430446C9B2D3F89000DC
:1048700001F0D4FB204638BDD0F8803270B5044634
:10488000D3F890000E4601F0A3FAC043C1B204F180
:10489000480584F8731232462846FFF70DFE284675
:1048A000FFF710FE20B9FF2384F87532184670BD5B
:1048B0002846FFF7B7FD014684F875022846FFF742
:1048C00007FE94F8753284F87602184670BD00BF72
:1048D000F8B500F10C070446384600F053FAD4F856
:1048E00080320146C0F30126C9B2D3F8940001F02A
:1048F00095FBF0253146D4F8800200F035FF2B46B9
:10490000013BFDD13146D4F8800200F02DFF032E8B
:1049100013D04FF41663013BFDD1384600F032FA54
:10492000D4F88032C1B2D3F8940001F077FB034A87
:1049300002231360013DFDD15360F8BD44F00F40E8
:1049400070B505460C2495F870126868FDF7B4FD43
:1049500088B995F870320133DBB20B2B88BF85F82C
:10496000700204F1FF3098BF85F8703210F0FF0438
:10497000E9D1204670BD95F870426868D5F880622C
:104980002146FDF783FD21460246304600F0FEFE3B
:10499000686895F87012FDF79DFD012070BD00BF9D
:1049A00000230A4640681946FDF718BDFFF7F8BF17
:1049B00030B490F877528D4209D01268C0F87C224A
:1049C0000346002283F8771280F8782209B930BCB8
:1049D000704730BCFFF73CBE70B54D1E022D04463B
:1049E00014D8B2B990F87702002837D01E481B6857
:1049F000C4F87C32084484F8772284F87822FFF7E0
:104A0000B1FA1A48BDE87040FFF720BB07291DD056
:104A100070BD90F8772242B913480844FFF7A2FA14
:104A20001348BDE87040FFF711BB1B680E48C4F87F
:104A30007C320023084484F8773284F87832FFF718
:104A400091FA0B48BDE87040FFF700BB0368094AC4
:104A50009B699342DCD0BDE8704018470248084487
:104A6000FFF780FA0148CDE7940401007C040100BF
:104A700088040100FD44000070B590F877420CB343
:104A800090F87822096802BBD0F87C228A1AB2F525
:104A90007A7F19D30268154D5269C0F87C12AA4278
:104AA0004FF0010180F878121BD11121104804F059
:104AB00031FE21460F4805F0D1F80E48BDE87040A0
:104AC00005F066B880F8784270BDD0F87C228A1A6A
:104AD000C72AF9D90268054D5269C0F87C12AA426A
:104AE000E3D02146BDE87040104700BF752F00009D
:104AF000FCFD00006C87FF1F70B504460D46FFF7F4
:104B00001FFF29462046FFF787FE2046FFF7E0FEFD
:104B1000296804F10C00FDF753FF2046FFF79AFEC9
:104B20001F4A94F87232116801F00101CEB2B3420B
:104B30000AD0236894F871221B69A2B9194A9342DA
:104B4000314615D184F8726229462046FFF794FE5B
:104B5000002814BF012600260DD120462946FFF764
:104B60008BFF304670BD0F4A934281F00101E9D0BE
:104B700020469847E6E72B4694F8762294F875127B
:104B80002046FFF729FF2368074ADB689342E4D0F9
:104B900094F8762294F8751220469847DDE700BF16
:104BA000D0F00F40F94400005D2E00002DE9F041E7
:104BB000044684B000F1080517461E46884628467C
:104BC000002105F0BBF80A99C4F8008027716671CE
:104BD000684605F0C7F86946284605F041F9684679
:104BE00005F06CF8204604B0BDE8F0810379012B94
:104BF00007D0032B04D10A4641790068FFF71EBE97
:104C000070470A4641790068FFF7DABD38B50025DC
:104C100004462946056045600C3005F08FF82023D6
:104C2000636325776577402004F06EFFE562A0623C
:104C30002563282004F066FF14220546022100F0B7
:104C400073F9204625622946FDF770FF204638BDDE
:104C50002DE9F043012A85B0814606D91A4905F0AD
:104C60006DF8484605B0BDE8F0830E466846002161
:104C7000154605F063F833685F7DCFB10024224606
:104C800006EB050808E000F07F010134684605F0F6
:104C900035F9E2B2BA420BD229463046FDF7F2FEB0
:104CA00098F82430012BEED10306ECD52021ECE757
:104CB0006946484604F0F0FF684604F0FFFF4846A6
:104CC00005B0BDE8F08300BF64FF000070B50D467D
:104CD00088B00021064605F031F82B7FF3B100249F
:104CE000104904A805F02AF8E2B229466846FFF701
:104CF000AFFF694604A805F025F90B4905F02AF92C
:104D00000146304605F0F6F8684604F0D7FF04A8DF
:104D100004F0D4FF2B7F0134A342E1DC304608B01D
:104D200070BD00BF80FD00009C040100036B1F2BC1
:104D300026DCF0B5456B0902AB4201F440711ED28E
:104D4000D0F82CC0D0F828E003EB0C07BD4203F1EB
:104D5000010498BF7F1B41F4806646F00106A5421E
:104D600004632EF817600AD96444AC4228BF641B60
:104D700042F480620233114303632EF81410F0BD35
:104D8000704700BF026B38B5034672B1C16A806AD2
:104D90005C6B30F811000131A142D96202F1FF329F
:104DA00004BF0021D9621A6338BD90F8395090F8D9
:104DB0003820044629462544FDF764FE95F8242052
:104DC00094F83930012A20D000F07F00ABB10128DF
:104DD00040F4C06530D0581CC0B201283ED994F8C8
:104DE00038300133DBB20022142B84F8383084F8D9
:104DF000392026D06587284638BD012840F4A065B3
:104E000009D0012384F83930F4E70106DCD503B377
:104E10004FF4C465DFE7226B616B8A421ED2E06A01
:104E2000531C02449142236398BF521AA36A23F889
:104E3000125094F83930CEE7226B616B8A42CAD2A5
:104E4000EDE784F838200321C0222046FFF76EFFEB
:104E5000D0E784F839204FF4A465CBE784F8390013
:104E6000C8E700BF10B594220321FFF75FFF0522BA
:104E70000321FFF75BFF7F220321FFF757FF082283
:104E80000321FFF753FFC0220321FFF74FFF0E223C
:104E90000321BDE81040FFF749BF00BF426B00236C
:104EA00010B5044680F8383080F83930C3620363A7
:104EB0002AB1836A01214FF4407201631A802046AF
:104EC000FFF7D0FF002384F8243084F8253010BD8C
:104ED000437D63B110B48900002320240268525836
:104EE000D4540133427DDBB29A42F7D810BC7047EC
:104EF000037DC3B170B400252E462024427DA90055
:104F000042B1002302685258D4540133427DDBB2CF
:104F10009A42F7D803685B589E540135037DEDB281
:104F2000AB42EBD870BC7047F0B5054685B00C4677
:104F30000430002105F11807164604F0FFFE38463C
:104F4000002104F0FBFE4CB3A0002C756E7504F03C
:104F5000DBFD2B7D28607BB10646002400E02E6837
:104F6000687D013004F0D0FD23B2013446F82300FF
:104F70002B7DE4B2A342F2D82846FFF7B9FF2B6895
:104F80006846196804F0DAFE6946384604F068FF9E
:104F9000684604F093FE284605B0F0BD04200124C5
:104FA000D3E700BF037D8B4201D9FFF791BF704764
:104FB000F0B4047D9DF810508C4218D3CDB9457DD6
:104FC000AA4214D804681E7854F821707EB1AA420F
:104FD0000DD2144602E0417DA14208D9611CC9B23C
:104FE0008D1A3E55EDB20C465E5D002EF3D1F0BC3D
:104FF0007047457D002DE3D08F00002420260568F2
:10500000ED592E550134457DE4B2A542F7D8D7E7D6
:10501000F0B5047D9DF814508C4229D94DBB457DD7
:105020006C42A34224DD14782CB100240134A4B2D4
:10503000165D002EFAD1A3421ADA046854F82170E2
:10504000B5B1194601254FF0200E0AE0565C7EB13D
:105050003E55467D01316C1CAE4209B2E4B207D91F
:105060002546CC1A0029E4B2F0DA07F804E0F0E7AC
:10507000F0BD457D002DD3D08F000024202605688B
:10508000ED592E550134457D24B2AC42F7DBC7E71C
:10509000037D8B4212D90268437D52F8211073B10F
:1050A00010B40023CA185C1C5278CA54427DE3B283
:1050B0009A42F7D8013A20238B5410BC70474FF026
:1050C000FF3220238B547047037D8B4212D9437DDE
:1050D0000268013B13F0FF0352F8211007D0C818F3
:1050E0005A1E10F8010CC85412F0FF03F7D1202308
:1050F0000B707047704700BF10B50B7D93428ABF9D
:105100000B68044953F82210044604F017FE2046A9
:1051100010BD00BF64FF000010B51831044604F054
:1051200033FE204610BD00BF10B4047D8C4206D96A
:10513000447D944203D9006850F821108B5410BC70
:10514000704700BF037D8B4207D9437D934204D94A
:10515000036853F82130985C70472020704700BFE7
:1051600010B50021044604F0E9FD002323762361F5
:105170006361E361204610BD70B50D460446102101
:105180002F4804F0C7FA002D4FD0227E002A2CD1E0
:10519000012325612376636903B11D61E3696561BC
:1051A00000262B600A212E61264804F0B3FA33460C
:1051B0000A22217E244804F011FD0621234804F030
:1051C000A9FAE169204804F049FD0121204804F0D2
:1051D000A1FA1D4804F0DCFCE0696FF0004398423E
:1051E00016BF431CE661E36170BD236913B90DE08E
:1051F0001B695BB19D42FBD12021164804F08AFA5D
:10520000114804F0C5FC6FF0010070BD122A02D8ED
:1052100001322276BFE728210F4804F07BFA0A48C2
:1052200004F0B6FC6FF0020070BD20210B4804F0C2
:1052300071FA054804F0ACFC4FF0FF3070BD00BFC0
:10524000A0040100040501006C87FF1F1005010088
:1052500038F6000018050100D8040100B40401006C
:10526000FFF78ABF70B5057E82B0A5B10D4B04690A
:105270001B680193019B036284B100F120064EF686
:1052800060252046314600F021F82469854228BF78
:105290000546002CF5D1284602B070BD4EF66020C0
:1052A000FAE700BF9C95FF1F70B4074D9DF80C6096
:1052B0000677002B08BF2B46002505720561C360E9
:1052C0004160826170BC704764FF000038B5037FA5
:1052D0003BB10B68426984699B1AA34203D2E01A6E
:1052E00038BD184638BD0446406803680D469B68C3
:1052F00021682A469847237A1BB100232377184652
:1053000038BD2B686361A06938BD00BF81617047FB
:1053100081F0010101727047044B82B01B68019358
:10532000019B43610123037702B070479C95FF1FE7
:1053300000230377704700BF064B186882B018B18E
:1053400001AB181A02B07047034802AB181A02B03A
:10535000704700BF6487FF1F9898FF1F70B5344DDA
:10536000064669682868AA68EB6834460FC4EB698A
:1053700028696969AA690FC4286A30624D2205F15B
:10538000240106F1240002F0B9FF0221084603F0CF
:105390007DF90221032003F079F90221042003F0B2
:1053A00075F90221052003F071F902210B2003F0A9
:1053B0006DF902210C2003F069F901210E2003F0A0
:1053C00065F901210F2003F061F901210A2003F0A2
:1053D0005DF90121102003F059F90121112003F09A
:1053E00055F90121122003F051F901210E2003F09B
:1053F00039F901210F2003F035F901210A2003F0CA
:1054000031F90021102003F02DF90021112003F0C3
:1054100029F90021122003F025F9042004F072FB81
:105420000346044AC6F898001A60304670BD00BFB3
:10543000780501000320023810B504460C21D0F88D
:10544000840004F065FBA06F102104F061FBE06FA5
:10545000102104F05DFBD4F88000102104F058FB0B
:10546000D4F89800042104F053FB204610BD00BF7F
:1054700010B50446806F01F06DFAA06F01F048FA94
:1054800008B1032010BDE06F01F064FAE06F01F095
:105490003FFA08B1022010BDD4F8800001F05AFA9A
:1054A000D4F8800001F034FA003018BF012010BD9C
:1054B00010B50446806F01F04DFAA06F01F070FA4C
:1054C00008B1012010BDA06F01F074FA0028F8D1D6
:1054D000E06F01F03FFAE06F01F062FA0028F0D1CE
:1054E000E06F01F067FA0028EBD1D4F8800001F0FA
:1054F00031FAD4F8800001F053FA0028E1D1D4F851
:10550000800001F057FA0028DBD110BD10B50B2048
:1055100003F0AEF8B0FA80F40C20640903F0A8F8A8
:1055200008B90234E4B2204610BD00BFF0B587B020
:105530000446FFF7EBFF132184F89C007E4804F03B
:10554000E9F800230A2294F89C107C4804F046FBFA
:105550007A4804F01DFB642003F0C2F80D2178485E
:1055600004F0D8F8754804F013FB764800F002FF09
:10557000642003F0B5F80E21734804F0CBF86F48AF
:1055800004F006FB082004F0BDFA0025D4F89810BA
:1055900000952B4606460E2200F02AFDC4F88860CE
:1055A000082004F0AFFAD4F89810009506460123BD
:1055B0000E2200F01DFDC4F88C60082004F0A2FA51
:1055C000FF23D4F898100093064602230E2200F021
:1055D0000FFDC4F89060082004F094FA03230E2213
:1055E000D4F898100095064600F002FD6420C4F837
:1055F000946003F075F81121544804F08BF84F487B
:1056000004F0C6FA102004F07DFA64220546032156
:1056100001F068F9A567102004F074FA64220546C9
:10562000042101F05FF9E567102004F06BFA6422B1
:105630000546052101F056F9C4F88050642003F0B6
:105640004FF81221424804F065F83C4804F0A0FAF3
:105650000C2004F057FA0F220546D4F8981000F0F9
:1056600075F928460321C4F8845000F08FF9D4F866
:10567000843001251D72642003F032F80F21354873
:1056800004F048F82D4804F083FA94F89C3043B1B4
:10569000642003F025F894F89C3073B9636707B071
:1056A000F0BD294680222C4800F040FA642003F027
:1056B00017F894F89C30002BF0D00D212748284F84
:1056C00004F028F81D4804F063FA202004F01AFAC8
:1056D0001526142305460493039616210026172247
:1056E000FF230291019200930622076006710923AD
:1056F000082101F09FF833466A79A9796567284641
:1057000001F06CF8606F00F04BFF606F15490368A3
:105710000A225B689847656F94F89C1033460A220A
:10572000284604F05BFA284604F032FA642007B0F9
:10573000BDE8F04002F0D4BFEC0501006C87FF1F0C
:10574000000601002887FF1F100601002006010047
:105750003406010048060100D892FF1F58060100D8
:105760008408010068060100CA074CBF054B064BC0
:1057700001221A608B074CBF024B034B02221A60B6
:10578000704700BF44F00F4048F00F400B2900D98C
:10579000704730F81110D0F88C0002F00F0242EA86
:1057A000011189B200F098BB032901D9002070478C
:1057B0006431014800F038B9D892FF1F70B50C4D24
:1057C00028460E4600F030F9711C0402284600F00D
:1057D0002BF9B11C0443284600F026F92402F11CE1
:1057E0000443284600F020F92402204370BD00BF86
:1057F000D892FF1F013910B5CCB2C4F3C1010448DF
:1058000000F012F904F00704204100F0010010BD7F
:10581000D892FF1F10B5054C204600F0BDF8204679
:10582000034A0449BDE8104005F054BBD892FF1F5D
:105830002087FF1F652F0000F8B5354C0546E37A39
:1058400000680E4600681746EBB172B6E37AD907D6
:105850001A4609D5DFF8D4E0E168DEF800200A40F6
:10586000A261CEF800201A46990709D5DFF8C0E0FA
:105870002169DEF80030E27A0B40E361CEF80030B7
:1058800053073DD462B62368DA68824207D02149C3
:105890001960214AD86040F0804119611A600021E6
:1058A000287902F0DFFE236806F00F064FF0004271
:1058B000DA625E63D96A0029FCDA4FF00042996B24
:1058C000DA625F63DA6A002AFCDA012128799B6BCD
:1058D00002F0C8FEE37A0E491A4683B1D80703D511
:1058E0000E4A896911601A46990703D50C4BE16984
:1058F000E27A1960530702D50A4B226A1A60F8BD92
:10590000094A636911680B4023621360BAE700BF5C
:105910002887FF1F01403F0000003F8000E100E0BA
:1059200004E100E008E100E088E100E080E100E05F
:1059300084E100E0037A03B97047034B01F00701EB
:1059400001319A5CFFF778BF9C06010038B500244E
:10595000054680E8060009212246FFF76DFF28462C
:1059600007220B21FFF768FF284601220C21FFF7D1
:1059700063FF01232B720134E4B221460022284642
:10598000FFF75AFF082CF6D1284638BD01F00F0268
:105990000A21FFF751BF00BF10B50446083001F0DF
:1059A000A5F8034B2360002384F82830204610BD5F
:1059B0009C07010010B5044613210A4803F0AAFE13
:1059C0002468204606F05CF90146204603F0A2FE5A
:1059D0000321054803F09EFE0448BDE8104004F092
:1059E000D7B800BFA8070100BC0701006C87FF1FE4
:1059F00010B5094C04F1080001F078F8074B23605A
:105A000020460023064A074984F8283005F062FA48
:105A1000BDE8104002F00CBD0493FF1F9C0701007D
:105A20002087FF1F652F000090F82830002B3ED004
:105A3000F0B5037989B00E4604469BB3012B38D1EB
:105A4000684622681F4901F0B5F908AA029B9DF833
:105A5000041012F8140D23612075217304F115034D
:105A600004F1220512F8010F03F8010B9D42F9D150
:105A7000079B6362684604F1080701F045F8384661
:105A800001F05CF80546B8B13146384601F03EF801
:105A9000384600F0C3FFC4B2384601F041F8204652
:105AA00009B0F0BD084602F00BFD09B0F0BD184684
:105AB0007047002009B0F0BD2046FFF77BFF284665
:105AC000F3E700BF3093FF1F30B589B002680D4681
:105AD00068461349132301F06DF9684601F02EF86A
